{
  "contractName": "Apartment",
  "abi": [
    {
      "inputs": [],
      "stateMutability": "payable",
      "type": "constructor",
      "payable": true
    },
    {
      "inputs": [
        {
          "internalType": "uint256",
          "name": "",
          "type": "uint256"
        }
      ],
      "name": "apartments",
      "outputs": [
        {
          "internalType": "string",
          "name": "location",
          "type": "string"
        },
        {
          "internalType": "uint256",
          "name": "price",
          "type": "uint256"
        },
        {
          "internalType": "bool",
          "name": "sold",
          "type": "bool"
        },
        {
          "internalType": "address payable",
          "name": "seller",
          "type": "address"
        },
        {
          "internalType": "address payable",
          "name": "buyer",
          "type": "address"
        }
      ],
      "stateMutability": "view",
      "type": "function",
      "constant": true
    },
    {
      "inputs": [],
      "name": "contract_electricity",
      "outputs": [
        {
          "internalType": "contract Electricity",
          "name": "",
          "type": "address"
        }
      ],
      "stateMutability": "view",
      "type": "function",
      "constant": true
    },
    {
      "inputs": [],
      "name": "contract_garbage",
      "outputs": [
        {
          "internalType": "contract GarbageDisposal",
          "name": "",
          "type": "address"
        }
      ],
      "stateMutability": "view",
      "type": "function",
      "constant": true
    },
    {
      "inputs": [],
      "name": "contract_gas",
      "outputs": [
        {
          "internalType": "contract Gas",
          "name": "",
          "type": "address"
        }
      ],
      "stateMutability": "view",
      "type": "function",
      "constant": true
    },
    {
      "inputs": [],
      "name": "contract_insurance",
      "outputs": [
        {
          "internalType": "contract Insurrance",
          "name": "",
          "type": "address"
        }
      ],
      "stateMutability": "view",
      "type": "function",
      "constant": true
    },
    {
      "inputs": [],
      "name": "contract_water",
      "outputs": [
        {
          "internalType": "contract WaterConnection",
          "name": "",
          "type": "address"
        }
      ],
      "stateMutability": "view",
      "type": "function",
      "constant": true
    },
    {
      "inputs": [],
      "name": "list",
      "outputs": [
        {
          "components": [
            {
              "internalType": "string",
              "name": "location",
              "type": "string"
            },
            {
              "internalType": "uint256",
              "name": "price",
              "type": "uint256"
            },
            {
              "internalType": "bool",
              "name": "sold",
              "type": "bool"
            },
            {
              "internalType": "address payable",
              "name": "seller",
              "type": "address"
            },
            {
              "internalType": "address payable",
              "name": "buyer",
              "type": "address"
            }
          ],
          "internalType": "struct Apartment.Apartments[]",
          "name": "",
          "type": "tuple[]"
        }
      ],
      "stateMutability": "view",
      "type": "function",
      "constant": true
    },
    {
      "inputs": [
        {
          "internalType": "string",
          "name": "location",
          "type": "string"
        },
        {
          "internalType": "uint256",
          "name": "price",
          "type": "uint256"
        }
      ],
      "name": "add_apartment",
      "outputs": [],
      "stateMutability": "nonpayable",
      "type": "function"
    },
    {
      "inputs": [
        {
          "internalType": "uint256",
          "name": "_index",
          "type": "uint256"
        }
      ],
      "name": "buy_apartment",
      "outputs": [],
      "stateMutability": "payable",
      "type": "function",
      "payable": true
    }
  ],
  "bytecode": "0x6080604052604051620000129062000225565b604051809103906000f0801580156200002f573d6000803e3d6000fd5b506000806101000a81548173ffffffffffffffffffffffffffffffffffffffff021916908373ffffffffffffffffffffffffffffffffffffffff1602179055506040516200007d9062000233565b604051809103906000f0801580156200009a573d6000803e3d6000fd5b50600160006101000a81548173ffffffffffffffffffffffffffffffffffffffff021916908373ffffffffffffffffffffffffffffffffffffffff160217905550604051620000e99062000241565b604051809103906000f08015801562000106573d6000803e3d6000fd5b50600260006101000a81548173ffffffffffffffffffffffffffffffffffffffff021916908373ffffffffffffffffffffffffffffffffffffffff16021790555060405162000155906200024f565b604051809103906000f08015801562000172573d6000803e3d6000fd5b50600360006101000a81548173ffffffffffffffffffffffffffffffffffffffff021916908373ffffffffffffffffffffffffffffffffffffffff160217905550604051620001c1906200025d565b604051809103906000f080158015620001de573d6000803e3d6000fd5b50600460006101000a81548173ffffffffffffffffffffffffffffffffffffffff021916908373ffffffffffffffffffffffffffffffffffffffff1602179055506200026b565b6108868062001d3e83390190565b61088680620025c483390190565b6108868062002e4a83390190565b61088680620036d083390190565b6108868062003f5683390190565b611ac3806200027b6000396000f3fe6080604052600436106100865760003560e01c8063713a860211610059578063713a860214610128578063948beea314610153578063a75a03b01461017e578063abb8be17146101a7578063ea53fa8b146101e857610086565b80630f560cd71461008b5780632654ee67146100b65780632b3112dd146100e157806345d4ee34146100fd575b600080fd5b34801561009757600080fd5b506100a0610213565b6040516100ad91906111f6565b60405180910390f35b3480156100c257600080fd5b506100cb6103d5565b6040516100d89190611277565b60405180910390f35b6100fb60048036038101906100f691906112c8565b6103fb565b005b34801561010957600080fd5b50610112610990565b60405161011f9190611316565b60405180910390f35b34801561013457600080fd5b5061013d6109b6565b60405161014a9190611352565b60405180910390f35b34801561015f57600080fd5b506101686109dc565b604051610175919061138e565b60405180910390f35b34801561018a57600080fd5b506101a560048036038101906101a0919061140e565b610a00565b005b3480156101b357600080fd5b506101ce60048036038101906101c991906112c8565b610b9b565b6040516101df9594939291906114e5565b60405180910390f35b3480156101f457600080fd5b506101fd610cb6565b60405161020a9190611560565b60405180910390f35b60606005805480602002602001604051908101604052809291908181526020016000905b828210156103cc57838290600052602060002090600402016040518060a001604052908160008201805461026a906115aa565b80601f0160208091040260200160405190810160405280929190818152602001828054610296906115aa565b80156102e35780601f106102b8576101008083540402835291602001916102e3565b820191906000526020600020905b8154815290600101906020018083116102c657829003601f168201915b50505050508152602001600182015481526020016002820160009054906101000a900460ff161515151581526020016002820160019054906101000a900473ffffffffffffffffffffffffffffffffffffffff1673ffffffffffffffffffffffffffffffffffffffff1673ffffffffffffffffffffffffffffffffffffffff1681526020016003820160009054906101000a900473ffffffffffffffffffffffffffffffffffffffff1673ffffffffffffffffffffffffffffffffffffffff1673ffffffffffffffffffffffffffffffffffffffff168152505081526020019060010190610237565b50505050905090565b600460009054906101000a900473ffffffffffffffffffffffffffffffffffffffff1681565b600060058281548110610411576104106115db565b5b906000526020600020906004020190508060020160009054906101000a900460ff1615610473576040517f08c379a000000000000000000000000000000000000000000000000000000000815260040161046a90611656565b60405180910390fd5b806001015434146104b9576040517f08c379a00000000000000000000000000000000000000000000000000000000081526004016104b0906116e8565b60405180910390fd5b60008160020160019054906101000a900473ffffffffffffffffffffffffffffffffffffffff1673ffffffffffffffffffffffffffffffffffffffff163460405161050390611739565b60006040518083038185875af1925050503d8060008114610540576040519150601f19603f3d011682016040523d82523d6000602084013e610545565b606091505b5050905080610589576040517f08c379a00000000000000000000000000000000000000000000000000000000081526004016105809061179a565b60405180910390fd5b60018260020160006101000a81548160ff021916908315150217905550338260030160006101000a81548173ffffffffffffffffffffffffffffffffffffffff021916908373ffffffffffffffffffffffffffffffffffffffff1602179055506106a38260030160009054906101000a900473ffffffffffffffffffffffffffffffffffffffff16836000018054610620906115aa565b80601f016020809104026020016040519081016040528092919081815260200182805461064c906115aa565b80156106995780601f1061066e57610100808354040283529160200191610699565b820191906000526020600020905b81548152906001019060200180831161067c57829003601f168201915b5050505050610cdc565b61075d8260030160009054906101000a900473ffffffffffffffffffffffffffffffffffffffff168360000180546106da906115aa565b80601f0160208091040260200160405190810160405280929190818152602001828054610706906115aa565b80156107535780601f1061072857610100808354040283529160200191610753565b820191906000526020600020905b81548152906001019060200180831161073657829003601f168201915b5050505050610d6d565b6108178260030160009054906101000a900473ffffffffffffffffffffffffffffffffffffffff16836000018054610794906115aa565b80601f01602080910402602001604051908101604052809291908181526020018280546107c0906115aa565b801561080d5780601f106107e25761010080835404028352916020019161080d565b820191906000526020600020905b8154815290600101906020018083116107f057829003601f168201915b5050505050610e00565b6108d18260030160009054906101000a900473ffffffffffffffffffffffffffffffffffffffff1683600001805461084e906115aa565b80601f016020809104026020016040519081016040528092919081815260200182805461087a906115aa565b80156108c75780601f1061089c576101008083540402835291602001916108c7565b820191906000526020600020905b8154815290600101906020018083116108aa57829003601f168201915b5050505050610e93565b61098b8260030160009054906101000a900473ffffffffffffffffffffffffffffffffffffffff16836000018054610908906115aa565b80601f0160208091040260200160405190810160405280929190818152602001828054610934906115aa565b80156109815780601f1061095657610100808354040283529160200191610981565b820191906000526020600020905b81548152906001019060200180831161096457829003601f168201915b5050505050610f26565b505050565b600360009054906101000a900473ffffffffffffffffffffffffffffffffffffffff1681565b600160009054906101000a900473ffffffffffffffffffffffffffffffffffffffff1681565b60008054906101000a900473ffffffffffffffffffffffffffffffffffffffff1681565b60056040518060a0016040528085858080601f016020809104026020016040519081016040528093929190818152602001838380828437600081840152601f19601f8201169050808301925050505050505081526020018381526020016000151581526020013373ffffffffffffffffffffffffffffffffffffffff168152602001600073ffffffffffffffffffffffffffffffffffffffff1681525090806001815401808255809150506001900390600052602060002090600402016000909190919091506000820151816000019081610adb919061198b565b506020820151816001015560408201518160020160006101000a81548160ff02191690831515021790555060608201518160020160016101000a81548173ffffffffffffffffffffffffffffffffffffffff021916908373ffffffffffffffffffffffffffffffffffffffff16021790555060808201518160030160006101000a81548173ffffffffffffffffffffffffffffffffffffffff021916908373ffffffffffffffffffffffffffffffffffffffff1602179055505050505050565b60058181548110610bab57600080fd5b9060005260206000209060040201600091509050806000018054610bce906115aa565b80601f0160208091040260200160405190810160405280929190818152602001828054610bfa906115aa565b8015610c475780601f10610c1c57610100808354040283529160200191610c47565b820191906000526020600020905b815481529060010190602001808311610c2a57829003601f168201915b5050505050908060010154908060020160009054906101000a900460ff16908060020160019054906101000a900473ffffffffffffffffffffffffffffffffffffffff16908060030160009054906101000a900473ffffffffffffffffffffffffffffffffffffffff16905085565b600260009054906101000a900473ffffffffffffffffffffffffffffffffffffffff1681565b60008054906101000a900473ffffffffffffffffffffffffffffffffffffffff1673ffffffffffffffffffffffffffffffffffffffff1663623b264b83836040518363ffffffff1660e01b8152600401610d37929190611a5d565b600060405180830381600087803b158015610d5157600080fd5b505af1158015610d65573d6000803e3d6000fd5b505050505050565b600160009054906101000a900473ffffffffffffffffffffffffffffffffffffffff1673ffffffffffffffffffffffffffffffffffffffff1663623b264b83836040518363ffffffff1660e01b8152600401610dca929190611a5d565b600060405180830381600087803b158015610de457600080fd5b505af1158015610df8573d6000803e3d6000fd5b505050505050565b600260009054906101000a900473ffffffffffffffffffffffffffffffffffffffff1673ffffffffffffffffffffffffffffffffffffffff1663623b264b83836040518363ffffffff1660e01b8152600401610e5d929190611a5d565b600060405180830381600087803b158015610e7757600080fd5b505af1158015610e8b573d6000803e3d6000fd5b505050505050565b600360009054906101000a900473ffffffffffffffffffffffffffffffffffffffff1673ffffffffffffffffffffffffffffffffffffffff1663623b264b83836040518363ffffffff1660e01b8152600401610ef0929190611a5d565b600060405180830381600087803b158015610f0a57600080fd5b505af1158015610f1e573d6000803e3d6000fd5b505050505050565b600460009054906101000a900473ffffffffffffffffffffffffffffffffffffffff1673ffffffffffffffffffffffffffffffffffffffff1663623b264b83836040518363ffffffff1660e01b8152600401610f83929190611a5d565b600060405180830381600087803b158015610f9d57600080fd5b505af1158015610fb1573d6000803e3d6000fd5b505050505050565b600081519050919050565b600082825260208201905092915050565b6000819050602082019050919050565b600081519050919050565b600082825260208201905092915050565b60005b8381101561101f578082015181840152602081019050611004565b60008484015250505050565b6000601f19601f8301169050919050565b600061104782610fe5565b6110518185610ff0565b9350611061818560208601611001565b61106a8161102b565b840191505092915050565b6000819050919050565b61108881611075565b82525050565b60008115159050919050565b6110a38161108e565b82525050565b600073ffffffffffffffffffffffffffffffffffffffff82169050919050565b60006110d4826110a9565b9050919050565b6110e4816110c9565b82525050565b600060a0830160008301518482036000860152611107828261103c565b915050602083015161111c602086018261107f565b50604083015161112f604086018261109a565b50606083015161114260608601826110db565b50608083015161115560808601826110db565b508091505092915050565b600061116c83836110ea565b905092915050565b6000602082019050919050565b600061118c82610fb9565b6111968185610fc4565b9350836020820285016111a885610fd5565b8060005b858110156111e457848403895281516111c58582611160565b94506111d083611174565b925060208a019950506001810190506111ac565b50829750879550505050505092915050565b600060208201905081810360008301526112108184611181565b905092915050565b6000819050919050565b600061123d611238611233846110a9565b611218565b6110a9565b9050919050565b600061124f82611222565b9050919050565b600061126182611244565b9050919050565b61127181611256565b82525050565b600060208201905061128c6000830184611268565b92915050565b600080fd5b600080fd5b6112a581611075565b81146112b057600080fd5b50565b6000813590506112c28161129c565b92915050565b6000602082840312156112de576112dd611292565b5b60006112ec848285016112b3565b91505092915050565b600061130082611244565b9050919050565b611310816112f5565b82525050565b600060208201905061132b6000830184611307565b92915050565b600061133c82611244565b9050919050565b61134c81611331565b82525050565b60006020820190506113676000830184611343565b92915050565b600061137882611244565b9050919050565b6113888161136d565b82525050565b60006020820190506113a3600083018461137f565b92915050565b600080fd5b600080fd5b600080fd5b60008083601f8401126113ce576113cd6113a9565b5b8235905067ffffffffffffffff8111156113eb576113ea6113ae565b5b602083019150836001820283011115611407576114066113b3565b5b9250929050565b60008060006040848603121561142757611426611292565b5b600084013567ffffffffffffffff81111561144557611444611297565b5b611451868287016113b8565b93509350506020611464868287016112b3565b9150509250925092565b600082825260208201905092915050565b600061148a82610fe5565b611494818561146e565b93506114a4818560208601611001565b6114ad8161102b565b840191505092915050565b6114c181611075565b82525050565b6114d08161108e565b82525050565b6114df816110c9565b82525050565b600060a08201905081810360008301526114ff818861147f565b905061150e60208301876114b8565b61151b60408301866114c7565b61152860608301856114d6565b61153560808301846114d6565b9695505050505050565b600061154a82611244565b9050919050565b61155a8161153f565b82525050565b60006020820190506115756000830184611551565b92915050565b7f4e487b7100000000000000000000000000000000000000000000000000000000600052602260045260246000fd5b600060028204905060018216806115c257607f821691505b6020821081036115d5576115d461157b565b5b50919050565b7f4e487b7100000000000000000000000000000000000000000000000000000000600052603260045260246000fd5b7f4974656d20616c726561647920736f6c642e0000000000000000000000000000600082015250565b600061164060128361146e565b915061164b8261160a565b602082019050919050565b6000602082019050818103600083015261166f81611633565b9050919050565b7f496e636f72726563742076616c75652e20506c656173652073656e6420616d6f60008201527f756e7420657175616c20746f20616e6e6f756e63656d656e742070726963652e602082015250565b60006116d260408361146e565b91506116dd82611676565b604082019050919050565b60006020820190508181036000830152611701816116c5565b9050919050565b600081905092915050565b50565b6000611723600083611708565b915061172e82611713565b600082019050919050565b600061174482611716565b9150819050919050565b7f4661696c656420746f2073656e64206d6f6e6579000000000000000000000000600082015250565b600061178460148361146e565b915061178f8261174e565b602082019050919050565b600060208201905081810360008301526117b381611777565b9050919050565b7f4e487b7100000000000000000000000000000000000000000000000000000000600052604160045260246000fd5b60008190508160005260206000209050919050565b60006020601f8301049050919050565b600082821b905092915050565b60006008830261184b7fffffffffffffffffffffffffffffffffffffffffffffffffffffffffffffffff8261180e565b611855868361180e565b95508019841693508086168417925050509392505050565b600061188861188361187e84611075565b611218565b611075565b9050919050565b6000819050919050565b6118a28361186d565b6118b66118ae8261188f565b84845461181b565b825550505050565b600090565b6118cb6118be565b6118d6818484611899565b505050565b5b818110156118fa576118ef6000826118c3565b6001810190506118dc565b5050565b601f82111561193f57611910816117e9565b611919846117fe565b81016020851015611928578190505b61193c611934856117fe565b8301826118db565b50505b505050565b600082821c905092915050565b600061196260001984600802611944565b1980831691505092915050565b600061197b8383611951565b9150826002028217905092915050565b61199482610fe5565b67ffffffffffffffff8111156119ad576119ac6117ba565b5b6119b782546115aa565b6119c28282856118fe565b600060209050601f8311600181146119f557600084156119e3578287015190505b6119ed858261196f565b865550611a55565b601f198416611a03866117e9565b60005b82811015611a2b57848901518255600182019150602085019450602081019050611a06565b86831015611a485784890151611a44601f891682611951565b8355505b6001600288020188555050505b505050505050565b6000604082019050611a7260008301856114d6565b8181036020830152611a84818461147f565b9050939250505056fea26469706673582212205424fe5b4a4b3e9a0fcd3e8ce0cc473dd752dd7a2aef5724527bccce3c62ef5064736f6c63430008110033608060405234801561001057600080fd5b50610866806100206000396000f3fe608060405234801561001057600080fd5b50600436106100365760003560e01c8063623b264b1461003b578063f88af21d14610057575b600080fd5b610055600480360381019061005091906103d5565b610088565b005b610071600480360381019061006c9190610467565b610141565b60405161007f929190610522565b60405180910390f35b600060405180604001604052808473ffffffffffffffffffffffffffffffffffffffff16815260200183815250908060018154018082558091505060019003906000526020600020906002020160009091909190915060008201518160000160006101000a81548173ffffffffffffffffffffffffffffffffffffffff021916908373ffffffffffffffffffffffffffffffffffffffff160217905550602082015181600101908161013a919061075e565b5050505050565b6000818154811061015157600080fd5b90600052602060002090600202016000915090508060000160009054906101000a900473ffffffffffffffffffffffffffffffffffffffff169080600101805461019a90610581565b80601f01602080910402602001604051908101604052809291908181526020018280546101c690610581565b80156102135780601f106101e857610100808354040283529160200191610213565b820191906000526020600020905b8154815290600101906020018083116101f657829003601f168201915b5050505050905082565b6000604051905090565b600080fd5b600080fd5b600073ffffffffffffffffffffffffffffffffffffffff82169050919050565b600061025c82610231565b9050919050565b61026c81610251565b811461027757600080fd5b50565b60008135905061028981610263565b92915050565b600080fd5b600080fd5b6000601f19601f8301169050919050565b7f4e487b7100000000000000000000000000000000000000000000000000000000600052604160045260246000fd5b6102e282610299565b810181811067ffffffffffffffff82111715610301576103006102aa565b5b80604052505050565b600061031461021d565b905061032082826102d9565b919050565b600067ffffffffffffffff8211156103405761033f6102aa565b5b61034982610299565b9050602081019050919050565b82818337600083830152505050565b600061037861037384610325565b61030a565b90508281526020810184848401111561039457610393610294565b5b61039f848285610356565b509392505050565b600082601f8301126103bc576103bb61028f565b5b81356103cc848260208601610365565b91505092915050565b600080604083850312156103ec576103eb610227565b5b60006103fa8582860161027a565b925050602083013567ffffffffffffffff81111561041b5761041a61022c565b5b610427858286016103a7565b9150509250929050565b6000819050919050565b61044481610431565b811461044f57600080fd5b50565b6000813590506104618161043b565b92915050565b60006020828403121561047d5761047c610227565b5b600061048b84828501610452565b91505092915050565b61049d81610251565b82525050565b600081519050919050565b600082825260208201905092915050565b60005b838110156104dd5780820151818401526020810190506104c2565b60008484015250505050565b60006104f4826104a3565b6104fe81856104ae565b935061050e8185602086016104bf565b61051781610299565b840191505092915050565b60006040820190506105376000830185610494565b818103602083015261054981846104e9565b90509392505050565b7f4e487b7100000000000000000000000000000000000000000000000000000000600052602260045260246000fd5b6000600282049050600182168061059957607f821691505b6020821081036105ac576105ab610552565b5b50919050565b60008190508160005260206000209050919050565b60006020601f8301049050919050565b600082821b905092915050565b6000600883026106147fffffffffffffffffffffffffffffffffffffffffffffffffffffffffffffffff826105d7565b61061e86836105d7565b95508019841693508086168417925050509392505050565b6000819050919050565b600061065b61065661065184610431565b610636565b610431565b9050919050565b6000819050919050565b61067583610640565b61068961068182610662565b8484546105e4565b825550505050565b600090565b61069e610691565b6106a981848461066c565b505050565b5b818110156106cd576106c2600082610696565b6001810190506106af565b5050565b601f821115610712576106e3816105b2565b6106ec846105c7565b810160208510156106fb578190505b61070f610707856105c7565b8301826106ae565b50505b505050565b600082821c905092915050565b600061073560001984600802610717565b1980831691505092915050565b600061074e8383610724565b9150826002028217905092915050565b610767826104a3565b67ffffffffffffffff8111156107805761077f6102aa565b5b61078a8254610581565b6107958282856106d1565b600060209050601f8311600181146107c857600084156107b6578287015190505b6107c08582610742565b865550610828565b601f1984166107d6866105b2565b60005b828110156107fe578489015182556001820191506020850194506020810190506107d9565b8683101561081b5784890151610817601f891682610724565b8355505b6001600288020188555050505b50505050505056fea264697066735822122005767cb713f9cbfef8fc4735482be2c02bf7a4e8cc4b0f8e4b6f7d5df10a58c664736f6c63430008110033608060405234801561001057600080fd5b50610866806100206000396000f3fe608060405234801561001057600080fd5b50600436106100365760003560e01c8063623b264b1461003b578063f88af21d14610057575b600080fd5b610055600480360381019061005091906103d5565b610088565b005b610071600480360381019061006c9190610467565b610141565b60405161007f929190610522565b60405180910390f35b600060405180604001604052808473ffffffffffffffffffffffffffffffffffffffff16815260200183815250908060018154018082558091505060019003906000526020600020906002020160009091909190915060008201518160000160006101000a81548173ffffffffffffffffffffffffffffffffffffffff021916908373ffffffffffffffffffffffffffffffffffffffff160217905550602082015181600101908161013a919061075e565b5050505050565b6000818154811061015157600080fd5b90600052602060002090600202016000915090508060000160009054906101000a900473ffffffffffffffffffffffffffffffffffffffff169080600101805461019a90610581565b80601f01602080910402602001604051908101604052809291908181526020018280546101c690610581565b80156102135780601f106101e857610100808354040283529160200191610213565b820191906000526020600020905b8154815290600101906020018083116101f657829003601f168201915b5050505050905082565b6000604051905090565b600080fd5b600080fd5b600073ffffffffffffffffffffffffffffffffffffffff82169050919050565b600061025c82610231565b9050919050565b61026c81610251565b811461027757600080fd5b50565b60008135905061028981610263565b92915050565b600080fd5b600080fd5b6000601f19601f8301169050919050565b7f4e487b7100000000000000000000000000000000000000000000000000000000600052604160045260246000fd5b6102e282610299565b810181811067ffffffffffffffff82111715610301576103006102aa565b5b80604052505050565b600061031461021d565b905061032082826102d9565b919050565b600067ffffffffffffffff8211156103405761033f6102aa565b5b61034982610299565b9050602081019050919050565b82818337600083830152505050565b600061037861037384610325565b61030a565b90508281526020810184848401111561039457610393610294565b5b61039f848285610356565b509392505050565b600082601f8301126103bc576103bb61028f565b5b81356103cc848260208601610365565b91505092915050565b600080604083850312156103ec576103eb610227565b5b60006103fa8582860161027a565b925050602083013567ffffffffffffffff81111561041b5761041a61022c565b5b610427858286016103a7565b9150509250929050565b6000819050919050565b61044481610431565b811461044f57600080fd5b50565b6000813590506104618161043b565b92915050565b60006020828403121561047d5761047c610227565b5b600061048b84828501610452565b91505092915050565b61049d81610251565b82525050565b600081519050919050565b600082825260208201905092915050565b60005b838110156104dd5780820151818401526020810190506104c2565b60008484015250505050565b60006104f4826104a3565b6104fe81856104ae565b935061050e8185602086016104bf565b61051781610299565b840191505092915050565b60006040820190506105376000830185610494565b818103602083015261054981846104e9565b90509392505050565b7f4e487b7100000000000000000000000000000000000000000000000000000000600052602260045260246000fd5b6000600282049050600182168061059957607f821691505b6020821081036105ac576105ab610552565b5b50919050565b60008190508160005260206000209050919050565b60006020601f8301049050919050565b600082821b905092915050565b6000600883026106147fffffffffffffffffffffffffffffffffffffffffffffffffffffffffffffffff826105d7565b61061e86836105d7565b95508019841693508086168417925050509392505050565b6000819050919050565b600061065b61065661065184610431565b610636565b610431565b9050919050565b6000819050919050565b61067583610640565b61068961068182610662565b8484546105e4565b825550505050565b600090565b61069e610691565b6106a981848461066c565b505050565b5b818110156106cd576106c2600082610696565b6001810190506106af565b5050565b601f821115610712576106e3816105b2565b6106ec846105c7565b810160208510156106fb578190505b61070f610707856105c7565b8301826106ae565b50505b505050565b600082821c905092915050565b600061073560001984600802610717565b1980831691505092915050565b600061074e8383610724565b9150826002028217905092915050565b610767826104a3565b67ffffffffffffffff8111156107805761077f6102aa565b5b61078a8254610581565b6107958282856106d1565b600060209050601f8311600181146107c857600084156107b6578287015190505b6107c08582610742565b865550610828565b601f1984166107d6866105b2565b60005b828110156107fe578489015182556001820191506020850194506020810190506107d9565b8683101561081b5784890151610817601f891682610724565b8355505b6001600288020188555050505b50505050505056fea2646970667358221220ccc3acc98065e9bd9b5e92704c5258df3d4cb644b3061f24c04737728b0b785c64736f6c63430008110033608060405234801561001057600080fd5b50610866806100206000396000f3fe608060405234801561001057600080fd5b50600436106100365760003560e01c8063623b264b1461003b578063f88af21d14610057575b600080fd5b610055600480360381019061005091906103d5565b610088565b005b610071600480360381019061006c9190610467565b610141565b60405161007f929190610522565b60405180910390f35b600060405180604001604052808473ffffffffffffffffffffffffffffffffffffffff16815260200183815250908060018154018082558091505060019003906000526020600020906002020160009091909190915060008201518160000160006101000a81548173ffffffffffffffffffffffffffffffffffffffff021916908373ffffffffffffffffffffffffffffffffffffffff160217905550602082015181600101908161013a919061075e565b5050505050565b6000818154811061015157600080fd5b90600052602060002090600202016000915090508060000160009054906101000a900473ffffffffffffffffffffffffffffffffffffffff169080600101805461019a90610581565b80601f01602080910402602001604051908101604052809291908181526020018280546101c690610581565b80156102135780601f106101e857610100808354040283529160200191610213565b820191906000526020600020905b8154815290600101906020018083116101f657829003601f168201915b5050505050905082565b6000604051905090565b600080fd5b600080fd5b600073ffffffffffffffffffffffffffffffffffffffff82169050919050565b600061025c82610231565b9050919050565b61026c81610251565b811461027757600080fd5b50565b60008135905061028981610263565b92915050565b600080fd5b600080fd5b6000601f19601f8301169050919050565b7f4e487b7100000000000000000000000000000000000000000000000000000000600052604160045260246000fd5b6102e282610299565b810181811067ffffffffffffffff82111715610301576103006102aa565b5b80604052505050565b600061031461021d565b905061032082826102d9565b919050565b600067ffffffffffffffff8211156103405761033f6102aa565b5b61034982610299565b9050602081019050919050565b82818337600083830152505050565b600061037861037384610325565b61030a565b90508281526020810184848401111561039457610393610294565b5b61039f848285610356565b509392505050565b600082601f8301126103bc576103bb61028f565b5b81356103cc848260208601610365565b91505092915050565b600080604083850312156103ec576103eb610227565b5b60006103fa8582860161027a565b925050602083013567ffffffffffffffff81111561041b5761041a61022c565b5b610427858286016103a7565b9150509250929050565b6000819050919050565b61044481610431565b811461044f57600080fd5b50565b6000813590506104618161043b565b92915050565b60006020828403121561047d5761047c610227565b5b600061048b84828501610452565b91505092915050565b61049d81610251565b82525050565b600081519050919050565b600082825260208201905092915050565b60005b838110156104dd5780820151818401526020810190506104c2565b60008484015250505050565b60006104f4826104a3565b6104fe81856104ae565b935061050e8185602086016104bf565b61051781610299565b840191505092915050565b60006040820190506105376000830185610494565b818103602083015261054981846104e9565b90509392505050565b7f4e487b7100000000000000000000000000000000000000000000000000000000600052602260045260246000fd5b6000600282049050600182168061059957607f821691505b6020821081036105ac576105ab610552565b5b50919050565b60008190508160005260206000209050919050565b60006020601f8301049050919050565b600082821b905092915050565b6000600883026106147fffffffffffffffffffffffffffffffffffffffffffffffffffffffffffffffff826105d7565b61061e86836105d7565b95508019841693508086168417925050509392505050565b6000819050919050565b600061065b61065661065184610431565b610636565b610431565b9050919050565b6000819050919050565b61067583610640565b61068961068182610662565b8484546105e4565b825550505050565b600090565b61069e610691565b6106a981848461066c565b505050565b5b818110156106cd576106c2600082610696565b6001810190506106af565b5050565b601f821115610712576106e3816105b2565b6106ec846105c7565b810160208510156106fb578190505b61070f610707856105c7565b8301826106ae565b50505b505050565b600082821c905092915050565b600061073560001984600802610717565b1980831691505092915050565b600061074e8383610724565b9150826002028217905092915050565b610767826104a3565b67ffffffffffffffff8111156107805761077f6102aa565b5b61078a8254610581565b6107958282856106d1565b600060209050601f8311600181146107c857600084156107b6578287015190505b6107c08582610742565b865550610828565b601f1984166107d6866105b2565b60005b828110156107fe578489015182556001820191506020850194506020810190506107d9565b8683101561081b5784890151610817601f891682610724565b8355505b6001600288020188555050505b50505050505056fea2646970667358221220b36468e29614b53808441c73aafd9f2de5e1150c1450f5932b8846894a87953c64736f6c63430008110033608060405234801561001057600080fd5b50610866806100206000396000f3fe608060405234801561001057600080fd5b50600436106100365760003560e01c8063623b264b1461003b578063f88af21d14610057575b600080fd5b610055600480360381019061005091906103d5565b610088565b005b610071600480360381019061006c9190610467565b610141565b60405161007f929190610522565b60405180910390f35b600060405180604001604052808473ffffffffffffffffffffffffffffffffffffffff16815260200183815250908060018154018082558091505060019003906000526020600020906002020160009091909190915060008201518160000160006101000a81548173ffffffffffffffffffffffffffffffffffffffff021916908373ffffffffffffffffffffffffffffffffffffffff160217905550602082015181600101908161013a919061075e565b5050505050565b6000818154811061015157600080fd5b90600052602060002090600202016000915090508060000160009054906101000a900473ffffffffffffffffffffffffffffffffffffffff169080600101805461019a90610581565b80601f01602080910402602001604051908101604052809291908181526020018280546101c690610581565b80156102135780601f106101e857610100808354040283529160200191610213565b820191906000526020600020905b8154815290600101906020018083116101f657829003601f168201915b5050505050905082565b6000604051905090565b600080fd5b600080fd5b600073ffffffffffffffffffffffffffffffffffffffff82169050919050565b600061025c82610231565b9050919050565b61026c81610251565b811461027757600080fd5b50565b60008135905061028981610263565b92915050565b600080fd5b600080fd5b6000601f19601f8301169050919050565b7f4e487b7100000000000000000000000000000000000000000000000000000000600052604160045260246000fd5b6102e282610299565b810181811067ffffffffffffffff82111715610301576103006102aa565b5b80604052505050565b600061031461021d565b905061032082826102d9565b919050565b600067ffffffffffffffff8211156103405761033f6102aa565b5b61034982610299565b9050602081019050919050565b82818337600083830152505050565b600061037861037384610325565b61030a565b90508281526020810184848401111561039457610393610294565b5b61039f848285610356565b509392505050565b600082601f8301126103bc576103bb61028f565b5b81356103cc848260208601610365565b91505092915050565b600080604083850312156103ec576103eb610227565b5b60006103fa8582860161027a565b925050602083013567ffffffffffffffff81111561041b5761041a61022c565b5b610427858286016103a7565b9150509250929050565b6000819050919050565b61044481610431565b811461044f57600080fd5b50565b6000813590506104618161043b565b92915050565b60006020828403121561047d5761047c610227565b5b600061048b84828501610452565b91505092915050565b61049d81610251565b82525050565b600081519050919050565b600082825260208201905092915050565b60005b838110156104dd5780820151818401526020810190506104c2565b60008484015250505050565b60006104f4826104a3565b6104fe81856104ae565b935061050e8185602086016104bf565b61051781610299565b840191505092915050565b60006040820190506105376000830185610494565b818103602083015261054981846104e9565b90509392505050565b7f4e487b7100000000000000000000000000000000000000000000000000000000600052602260045260246000fd5b6000600282049050600182168061059957607f821691505b6020821081036105ac576105ab610552565b5b50919050565b60008190508160005260206000209050919050565b60006020601f8301049050919050565b600082821b905092915050565b6000600883026106147fffffffffffffffffffffffffffffffffffffffffffffffffffffffffffffffff826105d7565b61061e86836105d7565b95508019841693508086168417925050509392505050565b6000819050919050565b600061065b61065661065184610431565b610636565b610431565b9050919050565b6000819050919050565b61067583610640565b61068961068182610662565b8484546105e4565b825550505050565b600090565b61069e610691565b6106a981848461066c565b505050565b5b818110156106cd576106c2600082610696565b6001810190506106af565b5050565b601f821115610712576106e3816105b2565b6106ec846105c7565b810160208510156106fb578190505b61070f610707856105c7565b8301826106ae565b50505b505050565b600082821c905092915050565b600061073560001984600802610717565b1980831691505092915050565b600061074e8383610724565b9150826002028217905092915050565b610767826104a3565b67ffffffffffffffff8111156107805761077f6102aa565b5b61078a8254610581565b6107958282856106d1565b600060209050601f8311600181146107c857600084156107b6578287015190505b6107c08582610742565b865550610828565b601f1984166107d6866105b2565b60005b828110156107fe578489015182556001820191506020850194506020810190506107d9565b8683101561081b5784890151610817601f891682610724565b8355505b6001600288020188555050505b50505050505056fea264697066735822122035abb8961ab1d7632d71b979b3b373074b44962aae7a3367159cb2ca30289d0e64736f6c63430008110033608060405234801561001057600080fd5b50610866806100206000396000f3fe608060405234801561001057600080fd5b50600436106100365760003560e01c8063623b264b1461003b578063f88af21d14610057575b600080fd5b610055600480360381019061005091906103d5565b610088565b005b610071600480360381019061006c9190610467565b610141565b60405161007f929190610522565b60405180910390f35b600060405180604001604052808473ffffffffffffffffffffffffffffffffffffffff16815260200183815250908060018154018082558091505060019003906000526020600020906002020160009091909190915060008201518160000160006101000a81548173ffffffffffffffffffffffffffffffffffffffff021916908373ffffffffffffffffffffffffffffffffffffffff160217905550602082015181600101908161013a919061075e565b5050505050565b6000818154811061015157600080fd5b90600052602060002090600202016000915090508060000160009054906101000a900473ffffffffffffffffffffffffffffffffffffffff169080600101805461019a90610581565b80601f01602080910402602001604051908101604052809291908181526020018280546101c690610581565b80156102135780601f106101e857610100808354040283529160200191610213565b820191906000526020600020905b8154815290600101906020018083116101f657829003601f168201915b5050505050905082565b6000604051905090565b600080fd5b600080fd5b600073ffffffffffffffffffffffffffffffffffffffff82169050919050565b600061025c82610231565b9050919050565b61026c81610251565b811461027757600080fd5b50565b60008135905061028981610263565b92915050565b600080fd5b600080fd5b6000601f19601f8301169050919050565b7f4e487b7100000000000000000000000000000000000000000000000000000000600052604160045260246000fd5b6102e282610299565b810181811067ffffffffffffffff82111715610301576103006102aa565b5b80604052505050565b600061031461021d565b905061032082826102d9565b919050565b600067ffffffffffffffff8211156103405761033f6102aa565b5b61034982610299565b9050602081019050919050565b82818337600083830152505050565b600061037861037384610325565b61030a565b90508281526020810184848401111561039457610393610294565b5b61039f848285610356565b509392505050565b600082601f8301126103bc576103bb61028f565b5b81356103cc848260208601610365565b91505092915050565b600080604083850312156103ec576103eb610227565b5b60006103fa8582860161027a565b925050602083013567ffffffffffffffff81111561041b5761041a61022c565b5b610427858286016103a7565b9150509250929050565b6000819050919050565b61044481610431565b811461044f57600080fd5b50565b6000813590506104618161043b565b92915050565b60006020828403121561047d5761047c610227565b5b600061048b84828501610452565b91505092915050565b61049d81610251565b82525050565b600081519050919050565b600082825260208201905092915050565b60005b838110156104dd5780820151818401526020810190506104c2565b60008484015250505050565b60006104f4826104a3565b6104fe81856104ae565b935061050e8185602086016104bf565b61051781610299565b840191505092915050565b60006040820190506105376000830185610494565b818103602083015261054981846104e9565b90509392505050565b7f4e487b7100000000000000000000000000000000000000000000000000000000600052602260045260246000fd5b6000600282049050600182168061059957607f821691505b6020821081036105ac576105ab610552565b5b50919050565b60008190508160005260206000209050919050565b60006020601f8301049050919050565b600082821b905092915050565b6000600883026106147fffffffffffffffffffffffffffffffffffffffffffffffffffffffffffffffff826105d7565b61061e86836105d7565b95508019841693508086168417925050509392505050565b6000819050919050565b600061065b61065661065184610431565b610636565b610431565b9050919050565b6000819050919050565b61067583610640565b61068961068182610662565b8484546105e4565b825550505050565b600090565b61069e610691565b6106a981848461066c565b505050565b5b818110156106cd576106c2600082610696565b6001810190506106af565b5050565b601f821115610712576106e3816105b2565b6106ec846105c7565b810160208510156106fb578190505b61070f610707856105c7565b8301826106ae565b50505b505050565b600082821c905092915050565b600061073560001984600802610717565b1980831691505092915050565b600061074e8383610724565b9150826002028217905092915050565b610767826104a3565b67ffffffffffffffff8111156107805761077f6102aa565b5b61078a8254610581565b6107958282856106d1565b600060209050601f8311600181146107c857600084156107b6578287015190505b6107c08582610742565b865550610828565b601f1984166107d6866105b2565b60005b828110156107fe578489015182556001820191506020850194506020810190506107d9565b8683101561081b5784890151610817601f891682610724565b8355505b6001600288020188555050505b50505050505056fea2646970667358221220ca608c0fb587aa552698660068793cd4f22b449bc6ed7088490a86d529c7da4164736f6c63430008110033",
  "immutableReferences": {},
  "source": "// SPDX-License-Identifier: MIT\npragma solidity ^0.8.17;\n\ncontract Apartment {\n\n    Insurrance      public contract_insurance;\n    Electricity     public contract_electricity;\n    GarbageDisposal public contract_garbage;\n    Gas             public contract_gas;\n    WaterConnection public contract_water;\n\n    constructor() payable {\n        contract_insurance      = new Insurrance();\n        contract_electricity    = new Electricity();\n        contract_garbage        = new GarbageDisposal();\n        contract_gas            = new Gas();\n        contract_water          = new WaterConnection();\n    }\n\n    struct Apartments {\n        string location;\n        uint price;\n        bool sold;\n        address payable seller;\n        address payable buyer;\n    }\n\n    Apartments[] public apartments;\n\n    function list() public view returns(Apartments[] memory){\n        return apartments;\n    }\n\n\n    function add_apartment(string calldata location, uint price) public {\n        apartments.push(Apartments(location, price, false, payable(msg.sender), payable(0)));\n    }\n\n    function register_insurrance(address payable _client, string memory _location) private {\n        contract_insurance.register_client(_client, _location);\n    }\n\n    function register_water(address payable _client, string memory _location) private {\n        contract_water.register_client(_client, _location);\n    }\n\n    function register_gas(address payable _client, string memory _location) private {\n        contract_gas.register_client(_client, _location);\n    }\n\n    function register_electricity(address payable _client, string memory _location) private {\n        contract_electricity.register_client(_client, _location);\n    }\n\n    function register_garbage(address payable _client, string memory _location) private {\n        contract_garbage.register_client(_client, _location);\n    }\n\n\n    function buy_apartment(uint _index) public payable {\n        Apartments storage apart = apartments[_index];\n\n        require (!apart.sold, \"Item already sold.\");\n        require (msg.value == apart.price, \"Incorrect value. Please send amount equal to announcement price.\");\n        (bool success,) = apart.seller.call{value: msg.value}(\"\");\n        require(success, \"Failed to send money\");\n        apart.sold = true;\n        apart.buyer = payable(msg.sender);\n\n        register_insurrance(apart.buyer, apart.location);\n        register_electricity(apart.buyer, apart.location);\n        register_garbage(apart.buyer, apart.location);\n        register_gas(apart.buyer, apart.location);\n        register_water(apart.buyer, apart.location);\n\n    }\n\n}\n\ncontract Electricity {\n\n    struct Registrations {\n        address payable client;\n        string location;\n    }\n\n    Registrations[] public clients;\n\n    function register_client (address payable _client, string memory _location) public {\n        clients.push(Registrations(_client, _location));\n    }\n\n}\n\ncontract GarbageDisposal {\n\n    struct Registrations {\n        address payable client;\n        string location;\n    }\n\n    Registrations[] public clients;\n\n    function register_client (address payable _client, string memory _location) public {\n        clients.push(Registrations(_client, _location));\n    }\n\n}\n\ncontract Gas {\n\n    struct Registrations {\n        address payable client;\n        string location;\n    }\n\n    Registrations[] public clients;\n\n    function register_client (address payable _client, string memory _location) public {\n        clients.push(Registrations(_client, _location));\n    }\n\n}\n\ncontract Insurrance {\n\n    struct Registrations {\n        address payable client;\n        string location;\n    }\n\n    Registrations[] public clients;\n\n    function register_client (address payable _client, string memory _location) public {\n        clients.push(Registrations(_client, _location));\n    }\n\n}\n\ncontract WaterConnection {\n\n    struct Registrations {\n        address payable client;\n        string location;\n    }\n\n    Registrations[] public clients;\n\n    function register_client (address payable _client, string memory _location) public {\n        clients.push(Registrations(_client, _location));\n    }\n\n}",
  "sourcePath": "/home/pawel/AGH/blockchain/blockchain/contracts/Apartment.sol",
  "compiler": {
    "name": "solc",
    "version": "0.8.17+commit.8df45f5f.Emscripten.clang"
  },
  "schemaVersion": "3.4.10",
  "updatedAt": "2022-11-22T20:39:24.087Z",
  "networkType": "ethereum",
  "devdoc": {
    "kind": "dev",
    "methods": {},
    "version": 1
  },
  "userdoc": {
    "kind": "user",
    "methods": {},
    "version": 1
  }
}