{
  "contractName": "Gas",
  "abi": [
    {
      "inputs": [
        {
          "internalType": "uint256",
          "name": "",
          "type": "uint256"
        }
      ],
      "name": "clients",
      "outputs": [
        {
          "internalType": "address payable",
          "name": "client",
          "type": "address"
        },
        {
          "internalType": "string",
          "name": "location",
          "type": "string"
        }
      ],
      "stateMutability": "view",
      "type": "function"
    },
    {
      "inputs": [
        {
          "internalType": "address payable",
          "name": "_client",
          "type": "address"
        },
        {
          "internalType": "string",
          "name": "_location",
          "type": "string"
        }
      ],
      "name": "register_client",
      "outputs": [],
      "stateMutability": "nonpayable",
      "type": "function"
    }
  ],
  "bytecode": "0x608060405234801561001057600080fd5b50610866806100206000396000f3fe608060405234801561001057600080fd5b50600436106100365760003560e01c8063623b264b1461003b578063f88af21d14610057575b600080fd5b610055600480360381019061005091906103d5565b610088565b005b610071600480360381019061006c9190610467565b610141565b60405161007f929190610522565b60405180910390f35b600060405180604001604052808473ffffffffffffffffffffffffffffffffffffffff16815260200183815250908060018154018082558091505060019003906000526020600020906002020160009091909190915060008201518160000160006101000a81548173ffffffffffffffffffffffffffffffffffffffff021916908373ffffffffffffffffffffffffffffffffffffffff160217905550602082015181600101908161013a919061075e565b5050505050565b6000818154811061015157600080fd5b90600052602060002090600202016000915090508060000160009054906101000a900473ffffffffffffffffffffffffffffffffffffffff169080600101805461019a90610581565b80601f01602080910402602001604051908101604052809291908181526020018280546101c690610581565b80156102135780601f106101e857610100808354040283529160200191610213565b820191906000526020600020905b8154815290600101906020018083116101f657829003601f168201915b5050505050905082565b6000604051905090565b600080fd5b600080fd5b600073ffffffffffffffffffffffffffffffffffffffff82169050919050565b600061025c82610231565b9050919050565b61026c81610251565b811461027757600080fd5b50565b60008135905061028981610263565b92915050565b600080fd5b600080fd5b6000601f19601f8301169050919050565b7f4e487b7100000000000000000000000000000000000000000000000000000000600052604160045260246000fd5b6102e282610299565b810181811067ffffffffffffffff82111715610301576103006102aa565b5b80604052505050565b600061031461021d565b905061032082826102d9565b919050565b600067ffffffffffffffff8211156103405761033f6102aa565b5b61034982610299565b9050602081019050919050565b82818337600083830152505050565b600061037861037384610325565b61030a565b90508281526020810184848401111561039457610393610294565b5b61039f848285610356565b509392505050565b600082601f8301126103bc576103bb61028f565b5b81356103cc848260208601610365565b91505092915050565b600080604083850312156103ec576103eb610227565b5b60006103fa8582860161027a565b925050602083013567ffffffffffffffff81111561041b5761041a61022c565b5b610427858286016103a7565b9150509250929050565b6000819050919050565b61044481610431565b811461044f57600080fd5b50565b6000813590506104618161043b565b92915050565b60006020828403121561047d5761047c610227565b5b600061048b84828501610452565b91505092915050565b61049d81610251565b82525050565b600081519050919050565b600082825260208201905092915050565b60005b838110156104dd5780820151818401526020810190506104c2565b60008484015250505050565b60006104f4826104a3565b6104fe81856104ae565b935061050e8185602086016104bf565b61051781610299565b840191505092915050565b60006040820190506105376000830185610494565b818103602083015261054981846104e9565b90509392505050565b7f4e487b7100000000000000000000000000000000000000000000000000000000600052602260045260246000fd5b6000600282049050600182168061059957607f821691505b6020821081036105ac576105ab610552565b5b50919050565b60008190508160005260206000209050919050565b60006020601f8301049050919050565b600082821b905092915050565b6000600883026106147fffffffffffffffffffffffffffffffffffffffffffffffffffffffffffffffff826105d7565b61061e86836105d7565b95508019841693508086168417925050509392505050565b6000819050919050565b600061065b61065661065184610431565b610636565b610431565b9050919050565b6000819050919050565b61067583610640565b61068961068182610662565b8484546105e4565b825550505050565b600090565b61069e610691565b6106a981848461066c565b505050565b5b818110156106cd576106c2600082610696565b6001810190506106af565b5050565b601f821115610712576106e3816105b2565b6106ec846105c7565b810160208510156106fb578190505b61070f610707856105c7565b8301826106ae565b50505b505050565b600082821c905092915050565b600061073560001984600802610717565b1980831691505092915050565b600061074e8383610724565b9150826002028217905092915050565b610767826104a3565b67ffffffffffffffff8111156107805761077f6102aa565b5b61078a8254610581565b6107958282856106d1565b600060209050601f8311600181146107c857600084156107b6578287015190505b6107c08582610742565b865550610828565b601f1984166107d6866105b2565b60005b828110156107fe578489015182556001820191506020850194506020810190506107d9565b8683101561081b5784890151610817601f891682610724565b8355505b6001600288020188555050505b50505050505056fea264697066735822122035abb8961ab1d7632d71b979b3b373074b44962aae7a3367159cb2ca30289d0e64736f6c63430008110033",
  "immutableReferences": {},
  "source": "// SPDX-License-Identifier: MIT\npragma solidity ^0.8.17;\n\ncontract Apartment {\n\n    Insurrance      public contract_insurance;\n    Electricity     public contract_electricity;\n    GarbageDisposal public contract_garbage;\n    Gas             public contract_gas;\n    WaterConnection public contract_water;\n\n    constructor() payable {\n        contract_insurance      = new Insurrance();\n        contract_electricity    = new Electricity();\n        contract_garbage        = new GarbageDisposal();\n        contract_gas            = new Gas();\n        contract_water          = new WaterConnection();\n    }\n\n    struct Apartments {\n        string location;\n        uint price;\n        bool sold;\n        address payable seller;\n        address payable buyer;\n    }\n\n    Apartments[] public apartments;\n\n    function list() public view returns(Apartments[] memory){\n        return apartments;\n    }\n\n\n    function add_apartment(string calldata location, uint price) public {\n        apartments.push(Apartments(location, price, false, payable(msg.sender), payable(0)));\n    }\n\n    function register_insurrance(address payable _client, string memory _location) private {\n        contract_insurance.register_client(_client, _location);\n    }\n\n    function register_water(address payable _client, string memory _location) private {\n        contract_water.register_client(_client, _location);\n    }\n\n    function register_gas(address payable _client, string memory _location) private {\n        contract_gas.register_client(_client, _location);\n    }\n\n    function register_electricity(address payable _client, string memory _location) private {\n        contract_electricity.register_client(_client, _location);\n    }\n\n    function register_garbage(address payable _client, string memory _location) private {\n        contract_garbage.register_client(_client, _location);\n    }\n\n\n    function buy_apartment(uint _index) public payable {\n        Apartments storage apart = apartments[_index];\n\n        require (!apart.sold, \"Item already sold.\");\n        require (msg.value == apart.price, \"Incorrect value. Please send amount equal to announcement price.\");\n        (bool success,) = apart.seller.call{value: msg.value}(\"\");\n        require(success, \"Failed to send money\");\n        apart.sold = true;\n        apart.buyer = payable(msg.sender);\n\n        register_insurrance(apart.buyer, apart.location);\n        register_electricity(apart.buyer, apart.location);\n        register_garbage(apart.buyer, apart.location);\n        register_gas(apart.buyer, apart.location);\n        register_water(apart.buyer, apart.location);\n\n    }\n\n}\n\ncontract Electricity {\n\n    struct Registrations {\n        address payable client;\n        string location;\n    }\n\n    Registrations[] public clients;\n\n    function register_client (address payable _client, string memory _location) public {\n        clients.push(Registrations(_client, _location));\n    }\n\n}\n\ncontract GarbageDisposal {\n\n    struct Registrations {\n        address payable client;\n        string location;\n    }\n\n    Registrations[] public clients;\n\n    function register_client (address payable _client, string memory _location) public {\n        clients.push(Registrations(_client, _location));\n    }\n\n}\n\ncontract Gas {\n\n    struct Registrations {\n        address payable client;\n        string location;\n    }\n\n    Registrations[] public clients;\n\n    function register_client (address payable _client, string memory _location) public {\n        clients.push(Registrations(_client, _location));\n    }\n\n}\n\ncontract Insurrance {\n\n    struct Registrations {\n        address payable client;\n        string location;\n    }\n\n    Registrations[] public clients;\n\n    function register_client (address payable _client, string memory _location) public {\n        clients.push(Registrations(_client, _location));\n    }\n\n}\n\ncontract WaterConnection {\n\n    struct Registrations {\n        address payable client;\n        string location;\n    }\n\n    Registrations[] public clients;\n\n    function register_client (address payable _client, string memory _location) public {\n        clients.push(Registrations(_client, _location));\n    }\n\n}",
  "sourcePath": "/Users/kmitg/AGH/blockchain/contracts/Apartment.sol",
  "compiler": {
    "name": "solc",
    "version": "0.8.17+commit.8df45f5f.Emscripten.clang"
  },
  "schemaVersion": "3.4.10",
  "updatedAt": "2022-11-25T12:02:41.744Z",
  "devdoc": {
    "kind": "dev",
    "methods": {},
    "version": 1
  },
  "userdoc": {
    "kind": "user",
    "methods": {},
    "version": 1
  }
}