{
  "contractName": "Hotel",
  "abi": [
    {
      "inputs": [],
      "stateMutability": "payable",
      "type": "constructor"
    },
    {
      "inputs": [],
      "name": "contract_breakfast",
      "outputs": [
        {
          "internalType": "contract Breakfast",
          "name": "",
          "type": "address"
        }
      ],
      "stateMutability": "view",
      "type": "function"
    },
    {
      "inputs": [],
      "name": "contract_concierge",
      "outputs": [
        {
          "internalType": "contract Concierge",
          "name": "",
          "type": "address"
        }
      ],
      "stateMutability": "view",
      "type": "function"
    },
    {
      "inputs": [],
      "name": "contract_dinner",
      "outputs": [
        {
          "internalType": "contract Dinner",
          "name": "",
          "type": "address"
        }
      ],
      "stateMutability": "view",
      "type": "function"
    },
    {
      "inputs": [],
      "name": "contract_lunch",
      "outputs": [
        {
          "internalType": "contract Lunch",
          "name": "",
          "type": "address"
        }
      ],
      "stateMutability": "view",
      "type": "function"
    },
    {
      "inputs": [],
      "name": "contract_parties",
      "outputs": [
        {
          "internalType": "contract Parties",
          "name": "",
          "type": "address"
        }
      ],
      "stateMutability": "view",
      "type": "function"
    },
    {
      "inputs": [],
      "name": "contract_transport",
      "outputs": [
        {
          "internalType": "contract AirportTransport",
          "name": "",
          "type": "address"
        }
      ],
      "stateMutability": "view",
      "type": "function"
    },
    {
      "inputs": [],
      "name": "contract_trips",
      "outputs": [
        {
          "internalType": "contract Trips",
          "name": "",
          "type": "address"
        }
      ],
      "stateMutability": "view",
      "type": "function"
    },
    {
      "inputs": [],
      "name": "hotel_owner",
      "outputs": [
        {
          "internalType": "address payable",
          "name": "",
          "type": "address"
        }
      ],
      "stateMutability": "view",
      "type": "function"
    },
    {
      "inputs": [
        {
          "internalType": "uint256",
          "name": "_room_number",
          "type": "uint256"
        },
        {
          "internalType": "uint256",
          "name": "_single_beds",
          "type": "uint256"
        },
        {
          "internalType": "uint256",
          "name": "_double_beds",
          "type": "uint256"
        },
        {
          "internalType": "uint256",
          "name": "_price",
          "type": "uint256"
        },
        {
          "internalType": "uint256",
          "name": "_class",
          "type": "uint256"
        }
      ],
      "name": "add_room",
      "outputs": [],
      "stateMutability": "nonpayable",
      "type": "function"
    },
    {
      "inputs": [
        {
          "internalType": "uint256",
          "name": "_start",
          "type": "uint256"
        },
        {
          "internalType": "uint256",
          "name": "_stop",
          "type": "uint256"
        },
        {
          "internalType": "uint256",
          "name": "_room_number",
          "type": "uint256"
        }
      ],
      "name": "reserve_room",
      "outputs": [],
      "stateMutability": "payable",
      "type": "function"
    },
    {
      "inputs": [],
      "name": "list_rooms",
      "outputs": [
        {
          "components": [
            {
              "internalType": "uint256",
              "name": "room_number",
              "type": "uint256"
            },
            {
              "internalType": "uint256",
              "name": "single_beds",
              "type": "uint256"
            },
            {
              "internalType": "uint256",
              "name": "double_beds",
              "type": "uint256"
            },
            {
              "internalType": "uint256",
              "name": "price_for_night",
              "type": "uint256"
            },
            {
              "internalType": "uint256",
              "name": "class",
              "type": "uint256"
            }
          ],
          "internalType": "struct Hotel.Room[]",
          "name": "",
          "type": "tuple[]"
        }
      ],
      "stateMutability": "view",
      "type": "function"
    },
    {
      "inputs": [
        {
          "internalType": "uint256",
          "name": "_room_number",
          "type": "uint256"
        }
      ],
      "name": "list_room_reservations",
      "outputs": [
        {
          "components": [
            {
              "internalType": "uint256",
              "name": "start_date",
              "type": "uint256"
            },
            {
              "internalType": "uint256",
              "name": "stop_date",
              "type": "uint256"
            },
            {
              "internalType": "uint256",
              "name": "total_price",
              "type": "uint256"
            },
            {
              "internalType": "uint256",
              "name": "room_number",
              "type": "uint256"
            },
            {
              "internalType": "address payable",
              "name": "guest",
              "type": "address"
            }
          ],
          "internalType": "struct Hotel.RoomReservation[]",
          "name": "",
          "type": "tuple[]"
        }
      ],
      "stateMutability": "view",
      "type": "function"
    }
  ],
  "bytecode": "0x608060405260405162000012906200033e565b604051809103906000f0801580156200002f573d6000803e3d6000fd5b506000806101000a81548173ffffffffffffffffffffffffffffffffffffffff021916908373ffffffffffffffffffffffffffffffffffffffff1602179055506040516200007d906200034c565b604051809103906000f0801580156200009a573d6000803e3d6000fd5b50600260006101000a81548173ffffffffffffffffffffffffffffffffffffffff021916908373ffffffffffffffffffffffffffffffffffffffff160217905550604051620000e9906200035a565b604051809103906000f08015801562000106573d6000803e3d6000fd5b50600160006101000a81548173ffffffffffffffffffffffffffffffffffffffff021916908373ffffffffffffffffffffffffffffffffffffffff160217905550604051620001559062000368565b604051809103906000f08015801562000172573d6000803e3d6000fd5b50600360006101000a81548173ffffffffffffffffffffffffffffffffffffffff021916908373ffffffffffffffffffffffffffffffffffffffff160217905550604051620001c19062000376565b604051809103906000f080158015620001de573d6000803e3d6000fd5b50600460006101000a81548173ffffffffffffffffffffffffffffffffffffffff021916908373ffffffffffffffffffffffffffffffffffffffff1602179055506040516200022d9062000384565b604051809103906000f0801580156200024a573d6000803e3d6000fd5b50600560006101000a81548173ffffffffffffffffffffffffffffffffffffffff021916908373ffffffffffffffffffffffffffffffffffffffff160217905550604051620002999062000392565b604051809103906000f080158015620002b6573d6000803e3d6000fd5b50600660006101000a81548173ffffffffffffffffffffffffffffffffffffffff021916908373ffffffffffffffffffffffffffffffffffffffff16021790555033600760006101000a81548173ffffffffffffffffffffffffffffffffffffffff021916908373ffffffffffffffffffffffffffffffffffffffff160217905550620003a0565b6102dc806200161283390190565b6102dc80620018ee83390190565b6102dc8062001bca83390190565b6102dc8062001ea683390190565b6102dc806200218283390190565b6102dc806200245e83390190565b6102dc806200273a83390190565b61126280620003b06000396000f3fe6080604052600436106100a75760003560e01c80639aecad71116100645780639aecad71146101af578063c828c453146101da578063d7f925f714610205578063e00aec8614610230578063f6fece651461025b578063fe50443714610286576100a7565b80630ae45f96146100ac5780632a29d132146100d757806346fac475146100f35780634c30ad22146101305780635d500f8c1461015b57806391b361f714610184575b600080fd5b3480156100b857600080fd5b506100c16102b1565b6040516100ce9190610a42565b60405180910390f35b6100f160048036038101906100ec9190610a98565b6102d7565b005b3480156100ff57600080fd5b5061011a60048036038101906101159190610aeb565b610653565b6040516101279190610c5f565b60405180910390f35b34801561013c57600080fd5b50610145610743565b6040516101529190610ca2565b60405180910390f35b34801561016757600080fd5b50610182600480360381019061017d9190610cbd565b610769565b005b34801561019057600080fd5b50610199610850565b6040516101a69190610d59565b60405180910390f35b3480156101bb57600080fd5b506101c4610876565b6040516101d19190610d95565b60405180910390f35b3480156101e657600080fd5b506101ef61089c565b6040516101fc9190610dd1565b60405180910390f35b34801561021157600080fd5b5061021a6108c2565b6040516102279190610dfb565b60405180910390f35b34801561023c57600080fd5b506102456108e8565b6040516102529190610e37565b60405180910390f35b34801561026757600080fd5b5061027061090c565b60405161027d9190610e73565b60405180910390f35b34801561029257600080fd5b5061029b610932565b6040516102a89190610fa5565b60405180910390f35b600160009054906101000a900473ffffffffffffffffffffffffffffffffffffffff1681565b60006009600083815260200190815260200160002080549050905060005b818110156104165760096000848152602001908152602001600020818154811061032257610321610fc7565b5b90600052602060002090600502016000015484111580610377575060096000848152602001908152602001600020818154811061036257610361610fc7565b5b90600052602060002090600502016001015484115b61038057600080fd5b6009600084815260200190815260200160002081815481106103a5576103a4610fc7565b5b9060005260206000209060050201600001548510806103fa57506009600084815260200190815260200160002081815481106103e4576103e3610fc7565b5b9060005260206000209060050201600101548510155b61040357600080fd5b808061040e90611025565b9150506102f5565b5060006018603c80878761042a919061106d565b61043491906110d0565b61043e91906110d0565b61044891906110d0565b90506000600884815481106104605761045f610fc7565b5b9060005260206000209060050201600301548261047d9190611101565b90508034146104c1576040517f08c379a00000000000000000000000000000000000000000000000000000000081526004016104b8906111c6565b60405180910390fd5b6000600760009054906101000a900473ffffffffffffffffffffffffffffffffffffffff1673ffffffffffffffffffffffffffffffffffffffff163460405161050990611217565b60006040518083038185875af1925050503d8060008114610546576040519150601f19603f3d011682016040523d82523d6000602084013e61054b565b606091505b50509050600115158115151461056057600080fd5b600960008681526020019081526020016000206040518060a001604052808981526020018881526020018481526020018781526020013373ffffffffffffffffffffffffffffffffffffffff1681525090806001815401808255809150506001900390600052602060002090600502016000909190919091506000820151816000015560208201518160010155604082015181600201556060820151816003015560808201518160040160006101000a81548173ffffffffffffffffffffffffffffffffffffffff021916908373ffffffffffffffffffffffffffffffffffffffff160217905550505050505050505050565b606060096000838152602001908152602001600020805480602002602001604051908101604052809291908181526020016000905b8282101561073857838290600052602060002090600502016040518060a0016040529081600082015481526020016001820154815260200160028201548152602001600382015481526020016004820160009054906101000a900473ffffffffffffffffffffffffffffffffffffffff1673ffffffffffffffffffffffffffffffffffffffff1673ffffffffffffffffffffffffffffffffffffffff168152505081526020019060010190610688565b505050509050919050565b600260009054906101000a900473ffffffffffffffffffffffffffffffffffffffff1681565b600760009054906101000a900473ffffffffffffffffffffffffffffffffffffffff1673ffffffffffffffffffffffffffffffffffffffff163373ffffffffffffffffffffffffffffffffffffffff16146107c357600080fd5b60086040518060a00160405280878152602001868152602001858152602001848152602001838152509080600181540180825580915050600190039060005260206000209060050201600090919091909150600082015181600001556020820151816001015560408201518160020155606082015181600301556080820151816004015550505050505050565b600460009054906101000a900473ffffffffffffffffffffffffffffffffffffffff1681565b600560009054906101000a900473ffffffffffffffffffffffffffffffffffffffff1681565b600360009054906101000a900473ffffffffffffffffffffffffffffffffffffffff1681565b600760009054906101000a900473ffffffffffffffffffffffffffffffffffffffff1681565b60008054906101000a900473ffffffffffffffffffffffffffffffffffffffff1681565b600660009054906101000a900473ffffffffffffffffffffffffffffffffffffffff1681565b60606008805480602002602001604051908101604052809291908181526020016000905b828210156109ba57838290600052602060002090600502016040518060a00160405290816000820154815260200160018201548152602001600282015481526020016003820154815260200160048201548152505081526020019060010190610956565b50505050905090565b600073ffffffffffffffffffffffffffffffffffffffff82169050919050565b6000819050919050565b6000610a08610a036109fe846109c3565b6109e3565b6109c3565b9050919050565b6000610a1a826109ed565b9050919050565b6000610a2c82610a0f565b9050919050565b610a3c81610a21565b82525050565b6000602082019050610a576000830184610a33565b92915050565b600080fd5b6000819050919050565b610a7581610a62565b8114610a8057600080fd5b50565b600081359050610a9281610a6c565b92915050565b600080600060608486031215610ab157610ab0610a5d565b5b6000610abf86828701610a83565b9350506020610ad086828701610a83565b9250506040610ae186828701610a83565b9150509250925092565b600060208284031215610b0157610b00610a5d565b5b6000610b0f84828501610a83565b91505092915050565b600081519050919050565b600082825260208201905092915050565b6000819050602082019050919050565b610b4d81610a62565b82525050565b6000610b5e826109c3565b9050919050565b610b6e81610b53565b82525050565b60a082016000820151610b8a6000850182610b44565b506020820151610b9d6020850182610b44565b506040820151610bb06040850182610b44565b506060820151610bc36060850182610b44565b506080820151610bd66080850182610b65565b50505050565b6000610be88383610b74565b60a08301905092915050565b6000602082019050919050565b6000610c0c82610b18565b610c168185610b23565b9350610c2183610b34565b8060005b83811015610c52578151610c398882610bdc565b9750610c4483610bf4565b925050600181019050610c25565b5085935050505092915050565b60006020820190508181036000830152610c798184610c01565b905092915050565b6000610c8c82610a0f565b9050919050565b610c9c81610c81565b82525050565b6000602082019050610cb76000830184610c93565b92915050565b600080600080600060a08688031215610cd957610cd8610a5d565b5b6000610ce788828901610a83565b9550506020610cf888828901610a83565b9450506040610d0988828901610a83565b9350506060610d1a88828901610a83565b9250506080610d2b88828901610a83565b9150509295509295909350565b6000610d4382610a0f565b9050919050565b610d5381610d38565b82525050565b6000602082019050610d6e6000830184610d4a565b92915050565b6000610d7f82610a0f565b9050919050565b610d8f81610d74565b82525050565b6000602082019050610daa6000830184610d86565b92915050565b6000610dbb82610a0f565b9050919050565b610dcb81610db0565b82525050565b6000602082019050610de66000830184610dc2565b92915050565b610df581610b53565b82525050565b6000602082019050610e106000830184610dec565b92915050565b6000610e2182610a0f565b9050919050565b610e3181610e16565b82525050565b6000602082019050610e4c6000830184610e28565b92915050565b6000610e5d82610a0f565b9050919050565b610e6d81610e52565b82525050565b6000602082019050610e886000830184610e64565b92915050565b600081519050919050565b600082825260208201905092915050565b6000819050602082019050919050565b60a082016000820151610ed06000850182610b44565b506020820151610ee36020850182610b44565b506040820151610ef66040850182610b44565b506060820151610f096060850182610b44565b506080820151610f1c6080850182610b44565b50505050565b6000610f2e8383610eba565b60a08301905092915050565b6000602082019050919050565b6000610f5282610e8e565b610f5c8185610e99565b9350610f6783610eaa565b8060005b83811015610f98578151610f7f8882610f22565b9750610f8a83610f3a565b925050600181019050610f6b565b5085935050505092915050565b60006020820190508181036000830152610fbf8184610f47565b905092915050565b7f4e487b7100000000000000000000000000000000000000000000000000000000600052603260045260246000fd5b7f4e487b7100000000000000000000000000000000000000000000000000000000600052601160045260246000fd5b600061103082610a62565b91507fffffffffffffffffffffffffffffffffffffffffffffffffffffffffffffffff820361106257611061610ff6565b5b600182019050919050565b600061107882610a62565b915061108383610a62565b925082820390508181111561109b5761109a610ff6565b5b92915050565b7f4e487b7100000000000000000000000000000000000000000000000000000000600052601260045260246000fd5b60006110db82610a62565b91506110e683610a62565b9250826110f6576110f56110a1565b5b828204905092915050565b600061110c82610a62565b915061111783610a62565b925082820261112581610a62565b9150828204841483151761113c5761113b610ff6565b5b5092915050565b600082825260208201905092915050565b7f496e636f72726563742076616c75652e20506c656173652073656e6420616d6f60008201527f756e7420657175616c20746f2074686520746f74616c2070726963652e000000602082015250565b60006111b0603d83611143565b91506111bb82611154565b604082019050919050565b600060208201905081810360008301526111df816111a3565b9050919050565b600081905092915050565b50565b60006112016000836111e6565b915061120c826111f1565b600082019050919050565b6000611222826111f4565b915081905091905056fea2646970667358221220cd63f103f0ced62a739e1560bd1032f409fd98a8512bf394d7971ca3a61fd95564736f6c63430008110033608060405234801561001057600080fd5b506102bc806100206000396000f3fe608060405234801561001057600080fd5b50600436106100365760003560e01c8063489e0cf11461003b578063f88af21d14610057575b600080fd5b610055600480360381019061005091906101cc565b610087565b005b610071600480360381019061006c919061022f565b61011f565b60405161007e919061026b565b60405180910390f35b600060405180602001604052808373ffffffffffffffffffffffffffffffffffffffff168152509080600181540180825580915050600190039060005260206000200160009091909190915060008201518160000160006101000a81548173ffffffffffffffffffffffffffffffffffffffff021916908373ffffffffffffffffffffffffffffffffffffffff160217905550505050565b6000818154811061012f57600080fd5b906000526020600020016000915090508060000160009054906101000a900473ffffffffffffffffffffffffffffffffffffffff16905081565b600080fd5b600073ffffffffffffffffffffffffffffffffffffffff82169050919050565b60006101998261016e565b9050919050565b6101a98161018e565b81146101b457600080fd5b50565b6000813590506101c6816101a0565b92915050565b6000602082840312156101e2576101e1610169565b5b60006101f0848285016101b7565b91505092915050565b6000819050919050565b61020c816101f9565b811461021757600080fd5b50565b60008135905061022981610203565b92915050565b60006020828403121561024557610244610169565b5b60006102538482850161021a565b91505092915050565b6102658161018e565b82525050565b6000602082019050610280600083018461025c565b9291505056fea264697066735822122081d2466dea08a40e34211a3bc9230fde1a3e9db7f1d089b2134321c36f949da764736f6c63430008110033608060405234801561001057600080fd5b506102bc806100206000396000f3fe608060405234801561001057600080fd5b50600436106100365760003560e01c8063489e0cf11461003b578063f88af21d14610057575b600080fd5b610055600480360381019061005091906101cc565b610087565b005b610071600480360381019061006c919061022f565b61011f565b60405161007e919061026b565b60405180910390f35b600060405180602001604052808373ffffffffffffffffffffffffffffffffffffffff168152509080600181540180825580915050600190039060005260206000200160009091909190915060008201518160000160006101000a81548173ffffffffffffffffffffffffffffffffffffffff021916908373ffffffffffffffffffffffffffffffffffffffff160217905550505050565b6000818154811061012f57600080fd5b906000526020600020016000915090508060000160009054906101000a900473ffffffffffffffffffffffffffffffffffffffff16905081565b600080fd5b600073ffffffffffffffffffffffffffffffffffffffff82169050919050565b60006101998261016e565b9050919050565b6101a98161018e565b81146101b457600080fd5b50565b6000813590506101c6816101a0565b92915050565b6000602082840312156101e2576101e1610169565b5b60006101f0848285016101b7565b91505092915050565b6000819050919050565b61020c816101f9565b811461021757600080fd5b50565b60008135905061022981610203565b92915050565b60006020828403121561024557610244610169565b5b60006102538482850161021a565b91505092915050565b6102658161018e565b82525050565b6000602082019050610280600083018461025c565b9291505056fea26469706673582212204b02af7911ed52e4fc4555d902b8d2400f9a06d54faf893e6d42aa891fa7dd0264736f6c63430008110033608060405234801561001057600080fd5b506102bc806100206000396000f3fe608060405234801561001057600080fd5b50600436106100365760003560e01c8063489e0cf11461003b578063f88af21d14610057575b600080fd5b610055600480360381019061005091906101cc565b610087565b005b610071600480360381019061006c919061022f565b61011f565b60405161007e919061026b565b60405180910390f35b600060405180602001604052808373ffffffffffffffffffffffffffffffffffffffff168152509080600181540180825580915050600190039060005260206000200160009091909190915060008201518160000160006101000a81548173ffffffffffffffffffffffffffffffffffffffff021916908373ffffffffffffffffffffffffffffffffffffffff160217905550505050565b6000818154811061012f57600080fd5b906000526020600020016000915090508060000160009054906101000a900473ffffffffffffffffffffffffffffffffffffffff16905081565b600080fd5b600073ffffffffffffffffffffffffffffffffffffffff82169050919050565b60006101998261016e565b9050919050565b6101a98161018e565b81146101b457600080fd5b50565b6000813590506101c6816101a0565b92915050565b6000602082840312156101e2576101e1610169565b5b60006101f0848285016101b7565b91505092915050565b6000819050919050565b61020c816101f9565b811461021757600080fd5b50565b60008135905061022981610203565b92915050565b60006020828403121561024557610244610169565b5b60006102538482850161021a565b91505092915050565b6102658161018e565b82525050565b6000602082019050610280600083018461025c565b9291505056fea26469706673582212209aee0d419a225856439040cc0263346c1a2f9ba7fc432f0f4eacb2487efd59ae64736f6c63430008110033608060405234801561001057600080fd5b506102bc806100206000396000f3fe608060405234801561001057600080fd5b50600436106100365760003560e01c8063489e0cf11461003b578063f88af21d14610057575b600080fd5b610055600480360381019061005091906101cc565b610087565b005b610071600480360381019061006c919061022f565b61011f565b60405161007e919061026b565b60405180910390f35b600060405180602001604052808373ffffffffffffffffffffffffffffffffffffffff168152509080600181540180825580915050600190039060005260206000200160009091909190915060008201518160000160006101000a81548173ffffffffffffffffffffffffffffffffffffffff021916908373ffffffffffffffffffffffffffffffffffffffff160217905550505050565b6000818154811061012f57600080fd5b906000526020600020016000915090508060000160009054906101000a900473ffffffffffffffffffffffffffffffffffffffff16905081565b600080fd5b600073ffffffffffffffffffffffffffffffffffffffff82169050919050565b60006101998261016e565b9050919050565b6101a98161018e565b81146101b457600080fd5b50565b6000813590506101c6816101a0565b92915050565b6000602082840312156101e2576101e1610169565b5b60006101f0848285016101b7565b91505092915050565b6000819050919050565b61020c816101f9565b811461021757600080fd5b50565b60008135905061022981610203565b92915050565b60006020828403121561024557610244610169565b5b60006102538482850161021a565b91505092915050565b6102658161018e565b82525050565b6000602082019050610280600083018461025c565b9291505056fea2646970667358221220c3704382d3e9cb96052ec0fc8329237ce8e1e71175584694ce727b6aa834fc1164736f6c63430008110033608060405234801561001057600080fd5b506102bc806100206000396000f3fe608060405234801561001057600080fd5b50600436106100365760003560e01c8063489e0cf11461003b578063f88af21d14610057575b600080fd5b610055600480360381019061005091906101cc565b610087565b005b610071600480360381019061006c919061022f565b61011f565b60405161007e919061026b565b60405180910390f35b600060405180602001604052808373ffffffffffffffffffffffffffffffffffffffff168152509080600181540180825580915050600190039060005260206000200160009091909190915060008201518160000160006101000a81548173ffffffffffffffffffffffffffffffffffffffff021916908373ffffffffffffffffffffffffffffffffffffffff160217905550505050565b6000818154811061012f57600080fd5b906000526020600020016000915090508060000160009054906101000a900473ffffffffffffffffffffffffffffffffffffffff16905081565b600080fd5b600073ffffffffffffffffffffffffffffffffffffffff82169050919050565b60006101998261016e565b9050919050565b6101a98161018e565b81146101b457600080fd5b50565b6000813590506101c6816101a0565b92915050565b6000602082840312156101e2576101e1610169565b5b60006101f0848285016101b7565b91505092915050565b6000819050919050565b61020c816101f9565b811461021757600080fd5b50565b60008135905061022981610203565b92915050565b60006020828403121561024557610244610169565b5b60006102538482850161021a565b91505092915050565b6102658161018e565b82525050565b6000602082019050610280600083018461025c565b9291505056fea26469706673582212202c5cddbf6d067553d3e8a4987de24f05e8dd2abbd226fdded521da21cce673d564736f6c63430008110033608060405234801561001057600080fd5b506102bc806100206000396000f3fe608060405234801561001057600080fd5b50600436106100365760003560e01c8063489e0cf11461003b578063f88af21d14610057575b600080fd5b610055600480360381019061005091906101cc565b610087565b005b610071600480360381019061006c919061022f565b61011f565b60405161007e919061026b565b60405180910390f35b600060405180602001604052808373ffffffffffffffffffffffffffffffffffffffff168152509080600181540180825580915050600190039060005260206000200160009091909190915060008201518160000160006101000a81548173ffffffffffffffffffffffffffffffffffffffff021916908373ffffffffffffffffffffffffffffffffffffffff160217905550505050565b6000818154811061012f57600080fd5b906000526020600020016000915090508060000160009054906101000a900473ffffffffffffffffffffffffffffffffffffffff16905081565b600080fd5b600073ffffffffffffffffffffffffffffffffffffffff82169050919050565b60006101998261016e565b9050919050565b6101a98161018e565b81146101b457600080fd5b50565b6000813590506101c6816101a0565b92915050565b6000602082840312156101e2576101e1610169565b5b60006101f0848285016101b7565b91505092915050565b6000819050919050565b61020c816101f9565b811461021757600080fd5b50565b60008135905061022981610203565b92915050565b60006020828403121561024557610244610169565b5b60006102538482850161021a565b91505092915050565b6102658161018e565b82525050565b6000602082019050610280600083018461025c565b9291505056fea2646970667358221220f01043025fa89545f85e50fd48e4a6108cf58c544e887fad0f0df82eff4a4eae64736f6c63430008110033608060405234801561001057600080fd5b506102bc806100206000396000f3fe608060405234801561001057600080fd5b50600436106100365760003560e01c8063489e0cf11461003b578063f88af21d14610057575b600080fd5b610055600480360381019061005091906101cc565b610087565b005b610071600480360381019061006c919061022f565b61011f565b60405161007e919061026b565b60405180910390f35b600060405180602001604052808373ffffffffffffffffffffffffffffffffffffffff168152509080600181540180825580915050600190039060005260206000200160009091909190915060008201518160000160006101000a81548173ffffffffffffffffffffffffffffffffffffffff021916908373ffffffffffffffffffffffffffffffffffffffff160217905550505050565b6000818154811061012f57600080fd5b906000526020600020016000915090508060000160009054906101000a900473ffffffffffffffffffffffffffffffffffffffff16905081565b600080fd5b600073ffffffffffffffffffffffffffffffffffffffff82169050919050565b60006101998261016e565b9050919050565b6101a98161018e565b81146101b457600080fd5b50565b6000813590506101c6816101a0565b92915050565b6000602082840312156101e2576101e1610169565b5b60006101f0848285016101b7565b91505092915050565b6000819050919050565b61020c816101f9565b811461021757600080fd5b50565b60008135905061022981610203565b92915050565b60006020828403121561024557610244610169565b5b60006102538482850161021a565b91505092915050565b6102658161018e565b82525050565b6000602082019050610280600083018461025c565b9291505056fea2646970667358221220b2d40e84410a9e5d5fcefbda6e21bc77d0aae55ac567e83c5f260166e67a729264736f6c63430008110033",
  "immutableReferences": {},
  "source": "// SPDX-License-Identifier: MIT\npragma solidity ^0.8.17;\n\ncontract Hotel {\n\n    Breakfast           public contract_breakfast;\n    Lunch               public contract_lunch;\n    Dinner              public contract_dinner;\n    Trips               public contract_trips;\n    Parties             public contract_parties;\n    AirportTransport    public contract_transport;\n    Concierge           public contract_concierge;\n    address payable public hotel_owner;\n\n    constructor() payable {\n        contract_breakfast  = new Breakfast();\n        contract_dinner     = new Dinner();\n        contract_lunch      = new Lunch();\n        contract_trips      = new Trips();\n        contract_parties    = new Parties();\n        contract_transport  = new AirportTransport();\n        contract_concierge  = new Concierge();\n\n        hotel_owner = payable(msg.sender);\n    }\n\n    struct Room {\n        uint room_number;\n        uint single_beds;\n        uint double_beds;\n        uint price_for_night;\n        uint class;\n    }\n\n    struct RoomReservation {\n        uint start_date;\n        uint stop_date;\n        uint total_price;\n        uint room_number;\n        address payable guest;\n    }\n\n    Room[] rooms;\n    mapping (uint => RoomReservation[]) reservations;\n\n    function add_room (uint _room_number, uint _single_beds, uint _double_beds, uint _price, uint _class) public {\n        // Only the hotel owner can add a room\n        require(msg.sender == hotel_owner);\n        rooms.push(Room(_room_number, _single_beds, _double_beds, _price, _class));\n    }\n\n    function reserve_room (uint _start, uint _stop, uint _room_number) public payable { \n        // check if room is not reserved during this time\n        uint counter = reservations[_room_number].length;\n        for (uint i=0; i<counter; i++){\n            require(_stop <= reservations[_room_number][i].start_date || _stop > reservations[_room_number][i].stop_date);\n            require(_start < reservations[_room_number][i].start_date || _start >= reservations[_room_number][i].stop_date);\n        }\n\n        uint days_total = (_stop - _start) / 60 / 60 / 24;\n        uint price_total = days_total * rooms[_room_number].price_for_night;\n        require (msg.value == price_total, \"Incorrect value. Please send amount equal to the total price.\");\n        (bool success,) = hotel_owner.call{value: msg.value}(\"\");\n        require(success == true);\n\n        reservations[_room_number].push(RoomReservation(_start, _stop, price_total, _room_number, payable(msg.sender)));\n    }\n\n    function list_rooms () public view returns(Room[] memory) {\n        return rooms;\n    }\n\n    function list_room_reservations (uint _room_number) public view returns(RoomReservation[] memory) {\n        return reservations[_room_number];\n    }\n\n\n}\n\ncontract Breakfast {\n\n    struct Registrations {\n        address payable client;\n    }\n\n    Registrations[] public clients;\n\n    function register_client (address payable _client) public {\n        clients.push(Registrations(_client));\n    }\n\n}\n\ncontract Lunch {\n\n    struct Registrations {\n        address payable client;\n    }\n\n    Registrations[] public clients;\n\n    function register_client (address payable _client) public {\n        clients.push(Registrations(_client));\n    }\n\n}\n\ncontract Dinner {\n\n    struct Registrations {\n        address payable client;\n    }\n\n    Registrations[] public clients;\n\n    function register_client (address payable _client) public {\n        clients.push(Registrations(_client));\n    }\n\n}\n\ncontract Trips {\n\n    struct Registrations {\n        address payable client;\n    }\n\n    Registrations[] public clients;\n\n    function register_client (address payable _client) public {\n        clients.push(Registrations(_client));\n    }\n\n}\n\ncontract Parties {\n\n    struct Registrations {\n        address payable client;\n    }\n\n    Registrations[] public clients;\n\n    function register_client (address payable _client) public {\n        clients.push(Registrations(_client));\n    }\n\n}\n\ncontract AirportTransport {\n\n    struct Registrations {\n        address payable client;\n    }\n\n    Registrations[] public clients;\n\n    function register_client (address payable _client) public {\n        clients.push(Registrations(_client));\n    }\n\n}\n\ncontract Concierge {\n\n    struct Registrations {\n        address payable client;\n    }\n\n    Registrations[] public clients;\n\n    function register_client (address payable _client) public {\n        clients.push(Registrations(_client));\n    }\n\n}",
  "sourcePath": "/home/pawel/AGH/blockchain/blockchain/contracts/Hotel.sol",
  "compiler": {
    "name": "solc",
    "version": "0.8.17+commit.8df45f5f.Emscripten.clang"
  },
  "schemaVersion": "3.4.10",
  "updatedAt": "2022-11-22T20:39:05.780Z",
  "devdoc": {
    "kind": "dev",
    "methods": {},
    "version": 1
  },
  "userdoc": {
    "kind": "user",
    "methods": {},
    "version": 1
  }
}