{
  "contractName": "Hotel",
  "abi": [
    {
      "inputs": [],
      "stateMutability": "payable",
      "type": "constructor"
    },
    {
      "inputs": [],
      "name": "contract_food",
      "outputs": [
        {
          "internalType": "contract Food",
          "name": "",
          "type": "address"
        }
      ],
      "stateMutability": "view",
      "type": "function"
    },
    {
      "inputs": [],
      "name": "contract_parties",
      "outputs": [
        {
          "internalType": "contract Parties",
          "name": "",
          "type": "address"
        }
      ],
      "stateMutability": "view",
      "type": "function"
    },
    {
      "inputs": [],
      "name": "contract_transport",
      "outputs": [
        {
          "internalType": "contract AirportTransport",
          "name": "",
          "type": "address"
        }
      ],
      "stateMutability": "view",
      "type": "function"
    },
    {
      "inputs": [],
      "name": "contract_trips",
      "outputs": [
        {
          "internalType": "contract Trips",
          "name": "",
          "type": "address"
        }
      ],
      "stateMutability": "view",
      "type": "function"
    },
    {
      "inputs": [],
      "name": "hotel_owner",
      "outputs": [
        {
          "internalType": "address payable",
          "name": "",
          "type": "address"
        }
      ],
      "stateMutability": "view",
      "type": "function"
    },
    {
      "inputs": [
        {
          "internalType": "uint256",
          "name": "_room_number",
          "type": "uint256"
        },
        {
          "internalType": "uint256",
          "name": "_single_beds",
          "type": "uint256"
        },
        {
          "internalType": "uint256",
          "name": "_double_beds",
          "type": "uint256"
        },
        {
          "internalType": "uint256",
          "name": "_price",
          "type": "uint256"
        },
        {
          "internalType": "uint256",
          "name": "_class",
          "type": "uint256"
        }
      ],
      "name": "add_room",
      "outputs": [],
      "stateMutability": "nonpayable",
      "type": "function"
    },
    {
      "inputs": [
        {
          "internalType": "uint256",
          "name": "_start",
          "type": "uint256"
        },
        {
          "internalType": "uint256",
          "name": "_stop",
          "type": "uint256"
        },
        {
          "internalType": "uint256",
          "name": "_room_number",
          "type": "uint256"
        }
      ],
      "name": "reserve_room",
      "outputs": [],
      "stateMutability": "payable",
      "type": "function"
    },
    {
      "inputs": [],
      "name": "list_rooms",
      "outputs": [
        {
          "components": [
            {
              "internalType": "uint256",
              "name": "room_number",
              "type": "uint256"
            },
            {
              "internalType": "uint256",
              "name": "single_beds",
              "type": "uint256"
            },
            {
              "internalType": "uint256",
              "name": "double_beds",
              "type": "uint256"
            },
            {
              "internalType": "uint256",
              "name": "price_for_night",
              "type": "uint256"
            },
            {
              "internalType": "uint256",
              "name": "class",
              "type": "uint256"
            }
          ],
          "internalType": "struct Hotel.Room[]",
          "name": "",
          "type": "tuple[]"
        }
      ],
      "stateMutability": "view",
      "type": "function"
    },
    {
      "inputs": [
        {
          "internalType": "uint256",
          "name": "_room_number",
          "type": "uint256"
        }
      ],
      "name": "list_room_reservations",
      "outputs": [
        {
          "components": [
            {
              "internalType": "uint256",
              "name": "start_date",
              "type": "uint256"
            },
            {
              "internalType": "uint256",
              "name": "stop_date",
              "type": "uint256"
            },
            {
              "internalType": "uint256",
              "name": "total_price",
              "type": "uint256"
            },
            {
              "internalType": "uint256",
              "name": "room_number",
              "type": "uint256"
            },
            {
              "internalType": "address payable",
              "name": "guest",
              "type": "address"
            }
          ],
          "internalType": "struct Hotel.RoomReservation[]",
          "name": "",
          "type": "tuple[]"
        }
      ],
      "stateMutability": "view",
      "type": "function"
    }
  ],
  "bytecode": "0x60806040526040516200001290620001fa565b604051809103906000f0801580156200002f573d6000803e3d6000fd5b506000806101000a81548173ffffffffffffffffffffffffffffffffffffffff021916908373ffffffffffffffffffffffffffffffffffffffff1602179055506040516200007d9062000208565b604051809103906000f0801580156200009a573d6000803e3d6000fd5b50600160006101000a81548173ffffffffffffffffffffffffffffffffffffffff021916908373ffffffffffffffffffffffffffffffffffffffff160217905550604051620000e99062000216565b604051809103906000f08015801562000106573d6000803e3d6000fd5b50600260006101000a81548173ffffffffffffffffffffffffffffffffffffffff021916908373ffffffffffffffffffffffffffffffffffffffff160217905550604051620001559062000224565b604051809103906000f08015801562000172573d6000803e3d6000fd5b50600360006101000a81548173ffffffffffffffffffffffffffffffffffffffff021916908373ffffffffffffffffffffffffffffffffffffffff16021790555033600460006101000a81548173ffffffffffffffffffffffffffffffffffffffff021916908373ffffffffffffffffffffffffffffffffffffffff16021790555062000232565b6102dc80620012dc83390190565b6102dc80620015b883390190565b6102dc806200189483390190565b6102dc8062001b7083390190565b61109a80620002426000396000f3fe6080604052600436106100865760003560e01c806391b361f71161005957806391b361f7146101385780639aecad7114610163578063c828c4531461018e578063d7f925f7146101b9578063fe504437146101e457610086565b8063202869cd1461008b5780632a29d132146100b657806346fac475146100d25780635d500f8c1461010f575b600080fd5b34801561009757600080fd5b506100a061020f565b6040516100ad919061092e565b60405180910390f35b6100d060048036038101906100cb9190610984565b610233565b005b3480156100de57600080fd5b506100f960048036038101906100f491906109d7565b6105af565b6040516101069190610b4b565b60405180910390f35b34801561011b57600080fd5b5061013660048036038101906101319190610b6d565b61069f565b005b34801561014457600080fd5b5061014d610786565b60405161015a9190610c09565b60405180910390f35b34801561016f57600080fd5b506101786107ac565b6040516101859190610c45565b60405180910390f35b34801561019a57600080fd5b506101a36107d2565b6040516101b09190610c81565b60405180910390f35b3480156101c557600080fd5b506101ce6107f8565b6040516101db9190610cab565b60405180910390f35b3480156101f057600080fd5b506101f961081e565b6040516102069190610ddd565b60405180910390f35b60008054906101000a900473ffffffffffffffffffffffffffffffffffffffff1681565b60006006600083815260200190815260200160002080549050905060005b818110156103725760066000848152602001908152602001600020818154811061027e5761027d610dff565b5b906000526020600020906005020160000154841115806102d357506006600084815260200190815260200160002081815481106102be576102bd610dff565b5b90600052602060002090600502016001015484115b6102dc57600080fd5b60066000848152602001908152602001600020818154811061030157610300610dff565b5b90600052602060002090600502016000015485108061035657506006600084815260200190815260200160002081815481106103405761033f610dff565b5b9060005260206000209060050201600101548510155b61035f57600080fd5b808061036a90610e5d565b915050610251565b5060006018603c8087876103869190610ea5565b6103909190610f08565b61039a9190610f08565b6103a49190610f08565b90506000600584815481106103bc576103bb610dff565b5b906000526020600020906005020160030154826103d99190610f39565b905080341461041d576040517f08c379a000000000000000000000000000000000000000000000000000000000815260040161041490610ffe565b60405180910390fd5b6000600460009054906101000a900473ffffffffffffffffffffffffffffffffffffffff1673ffffffffffffffffffffffffffffffffffffffff16346040516104659061104f565b60006040518083038185875af1925050503d80600081146104a2576040519150601f19603f3d011682016040523d82523d6000602084013e6104a7565b606091505b5050905060011515811515146104bc57600080fd5b600660008681526020019081526020016000206040518060a001604052808981526020018881526020018481526020018781526020013373ffffffffffffffffffffffffffffffffffffffff1681525090806001815401808255809150506001900390600052602060002090600502016000909190919091506000820151816000015560208201518160010155604082015181600201556060820151816003015560808201518160040160006101000a81548173ffffffffffffffffffffffffffffffffffffffff021916908373ffffffffffffffffffffffffffffffffffffffff160217905550505050505050505050565b606060066000838152602001908152602001600020805480602002602001604051908101604052809291908181526020016000905b8282101561069457838290600052602060002090600502016040518060a0016040529081600082015481526020016001820154815260200160028201548152602001600382015481526020016004820160009054906101000a900473ffffffffffffffffffffffffffffffffffffffff1673ffffffffffffffffffffffffffffffffffffffff1673ffffffffffffffffffffffffffffffffffffffff1681525050815260200190600101906105e4565b505050509050919050565b600460009054906101000a900473ffffffffffffffffffffffffffffffffffffffff1673ffffffffffffffffffffffffffffffffffffffff163373ffffffffffffffffffffffffffffffffffffffff16146106f957600080fd5b60056040518060a00160405280878152602001868152602001858152602001848152602001838152509080600181540180825580915050600190039060005260206000209060050201600090919091909150600082015181600001556020820151816001015560408201518160020155606082015181600301556080820151816004015550505050505050565b600260009054906101000a900473ffffffffffffffffffffffffffffffffffffffff1681565b600360009054906101000a900473ffffffffffffffffffffffffffffffffffffffff1681565b600160009054906101000a900473ffffffffffffffffffffffffffffffffffffffff1681565b600460009054906101000a900473ffffffffffffffffffffffffffffffffffffffff1681565b60606005805480602002602001604051908101604052809291908181526020016000905b828210156108a657838290600052602060002090600502016040518060a00160405290816000820154815260200160018201548152602001600282015481526020016003820154815260200160048201548152505081526020019060010190610842565b50505050905090565b600073ffffffffffffffffffffffffffffffffffffffff82169050919050565b6000819050919050565b60006108f46108ef6108ea846108af565b6108cf565b6108af565b9050919050565b6000610906826108d9565b9050919050565b6000610918826108fb565b9050919050565b6109288161090d565b82525050565b6000602082019050610943600083018461091f565b92915050565b600080fd5b6000819050919050565b6109618161094e565b811461096c57600080fd5b50565b60008135905061097e81610958565b92915050565b60008060006060848603121561099d5761099c610949565b5b60006109ab8682870161096f565b93505060206109bc8682870161096f565b92505060406109cd8682870161096f565b9150509250925092565b6000602082840312156109ed576109ec610949565b5b60006109fb8482850161096f565b91505092915050565b600081519050919050565b600082825260208201905092915050565b6000819050602082019050919050565b610a398161094e565b82525050565b6000610a4a826108af565b9050919050565b610a5a81610a3f565b82525050565b60a082016000820151610a766000850182610a30565b506020820151610a896020850182610a30565b506040820151610a9c6040850182610a30565b506060820151610aaf6060850182610a30565b506080820151610ac26080850182610a51565b50505050565b6000610ad48383610a60565b60a08301905092915050565b6000602082019050919050565b6000610af882610a04565b610b028185610a0f565b9350610b0d83610a20565b8060005b83811015610b3e578151610b258882610ac8565b9750610b3083610ae0565b925050600181019050610b11565b5085935050505092915050565b60006020820190508181036000830152610b658184610aed565b905092915050565b600080600080600060a08688031215610b8957610b88610949565b5b6000610b978882890161096f565b9550506020610ba88882890161096f565b9450506040610bb98882890161096f565b9350506060610bca8882890161096f565b9250506080610bdb8882890161096f565b9150509295509295909350565b6000610bf3826108fb565b9050919050565b610c0381610be8565b82525050565b6000602082019050610c1e6000830184610bfa565b92915050565b6000610c2f826108fb565b9050919050565b610c3f81610c24565b82525050565b6000602082019050610c5a6000830184610c36565b92915050565b6000610c6b826108fb565b9050919050565b610c7b81610c60565b82525050565b6000602082019050610c966000830184610c72565b92915050565b610ca581610a3f565b82525050565b6000602082019050610cc06000830184610c9c565b92915050565b600081519050919050565b600082825260208201905092915050565b6000819050602082019050919050565b60a082016000820151610d086000850182610a30565b506020820151610d1b6020850182610a30565b506040820151610d2e6040850182610a30565b506060820151610d416060850182610a30565b506080820151610d546080850182610a30565b50505050565b6000610d668383610cf2565b60a08301905092915050565b6000602082019050919050565b6000610d8a82610cc6565b610d948185610cd1565b9350610d9f83610ce2565b8060005b83811015610dd0578151610db78882610d5a565b9750610dc283610d72565b925050600181019050610da3565b5085935050505092915050565b60006020820190508181036000830152610df78184610d7f565b905092915050565b7f4e487b7100000000000000000000000000000000000000000000000000000000600052603260045260246000fd5b7f4e487b7100000000000000000000000000000000000000000000000000000000600052601160045260246000fd5b6000610e688261094e565b91507fffffffffffffffffffffffffffffffffffffffffffffffffffffffffffffffff8203610e9a57610e99610e2e565b5b600182019050919050565b6000610eb08261094e565b9150610ebb8361094e565b9250828203905081811115610ed357610ed2610e2e565b5b92915050565b7f4e487b7100000000000000000000000000000000000000000000000000000000600052601260045260246000fd5b6000610f138261094e565b9150610f1e8361094e565b925082610f2e57610f2d610ed9565b5b828204905092915050565b6000610f448261094e565b9150610f4f8361094e565b9250828202610f5d8161094e565b91508282048414831517610f7457610f73610e2e565b5b5092915050565b600082825260208201905092915050565b7f496e636f72726563742076616c75652e20506c656173652073656e6420616d6f60008201527f756e7420657175616c20746f2074686520746f74616c2070726963652e000000602082015250565b6000610fe8603d83610f7b565b9150610ff382610f8c565b604082019050919050565b6000602082019050818103600083015261101781610fdb565b9050919050565b600081905092915050565b50565b600061103960008361101e565b915061104482611029565b600082019050919050565b600061105a8261102c565b915081905091905056fea26469706673582212209001f368600ea52a6e0ef74fa64ac6d3739197fdfc6a967dffb25575939a8dea64736f6c63430008110033608060405234801561001057600080fd5b506102bc806100206000396000f3fe608060405234801561001057600080fd5b50600436106100365760003560e01c8063489e0cf11461003b578063f88af21d14610057575b600080fd5b610055600480360381019061005091906101cc565b610087565b005b610071600480360381019061006c919061022f565b61011f565b60405161007e919061026b565b60405180910390f35b600060405180602001604052808373ffffffffffffffffffffffffffffffffffffffff168152509080600181540180825580915050600190039060005260206000200160009091909190915060008201518160000160006101000a81548173ffffffffffffffffffffffffffffffffffffffff021916908373ffffffffffffffffffffffffffffffffffffffff160217905550505050565b6000818154811061012f57600080fd5b906000526020600020016000915090508060000160009054906101000a900473ffffffffffffffffffffffffffffffffffffffff16905081565b600080fd5b600073ffffffffffffffffffffffffffffffffffffffff82169050919050565b60006101998261016e565b9050919050565b6101a98161018e565b81146101b457600080fd5b50565b6000813590506101c6816101a0565b92915050565b6000602082840312156101e2576101e1610169565b5b60006101f0848285016101b7565b91505092915050565b6000819050919050565b61020c816101f9565b811461021757600080fd5b50565b60008135905061022981610203565b92915050565b60006020828403121561024557610244610169565b5b60006102538482850161021a565b91505092915050565b6102658161018e565b82525050565b6000602082019050610280600083018461025c565b9291505056fea26469706673582212208ac9d5277631df0ec04627ac3a830ce6b328336e7b00cc6321b479033589fa3764736f6c63430008110033608060405234801561001057600080fd5b506102bc806100206000396000f3fe608060405234801561001057600080fd5b50600436106100365760003560e01c8063489e0cf11461003b578063f88af21d14610057575b600080fd5b610055600480360381019061005091906101cc565b610087565b005b610071600480360381019061006c919061022f565b61011f565b60405161007e919061026b565b60405180910390f35b600060405180602001604052808373ffffffffffffffffffffffffffffffffffffffff168152509080600181540180825580915050600190039060005260206000200160009091909190915060008201518160000160006101000a81548173ffffffffffffffffffffffffffffffffffffffff021916908373ffffffffffffffffffffffffffffffffffffffff160217905550505050565b6000818154811061012f57600080fd5b906000526020600020016000915090508060000160009054906101000a900473ffffffffffffffffffffffffffffffffffffffff16905081565b600080fd5b600073ffffffffffffffffffffffffffffffffffffffff82169050919050565b60006101998261016e565b9050919050565b6101a98161018e565b81146101b457600080fd5b50565b6000813590506101c6816101a0565b92915050565b6000602082840312156101e2576101e1610169565b5b60006101f0848285016101b7565b91505092915050565b6000819050919050565b61020c816101f9565b811461021757600080fd5b50565b60008135905061022981610203565b92915050565b60006020828403121561024557610244610169565b5b60006102538482850161021a565b91505092915050565b6102658161018e565b82525050565b6000602082019050610280600083018461025c565b9291505056fea2646970667358221220b1f4e274583f32341d1992e5240a4d4d0de1ccb2bf054b63d4c56affe39a7ce764736f6c63430008110033608060405234801561001057600080fd5b506102bc806100206000396000f3fe608060405234801561001057600080fd5b50600436106100365760003560e01c8063489e0cf11461003b578063f88af21d14610057575b600080fd5b610055600480360381019061005091906101cc565b610087565b005b610071600480360381019061006c919061022f565b61011f565b60405161007e919061026b565b60405180910390f35b600060405180602001604052808373ffffffffffffffffffffffffffffffffffffffff168152509080600181540180825580915050600190039060005260206000200160009091909190915060008201518160000160006101000a81548173ffffffffffffffffffffffffffffffffffffffff021916908373ffffffffffffffffffffffffffffffffffffffff160217905550505050565b6000818154811061012f57600080fd5b906000526020600020016000915090508060000160009054906101000a900473ffffffffffffffffffffffffffffffffffffffff16905081565b600080fd5b600073ffffffffffffffffffffffffffffffffffffffff82169050919050565b60006101998261016e565b9050919050565b6101a98161018e565b81146101b457600080fd5b50565b6000813590506101c6816101a0565b92915050565b6000602082840312156101e2576101e1610169565b5b60006101f0848285016101b7565b91505092915050565b6000819050919050565b61020c816101f9565b811461021757600080fd5b50565b60008135905061022981610203565b92915050565b60006020828403121561024557610244610169565b5b60006102538482850161021a565b91505092915050565b6102658161018e565b82525050565b6000602082019050610280600083018461025c565b9291505056fea2646970667358221220d6bc046cd0485d2db2766bef2b9e692a3491a6543d3b5a13fc056b7bc688d09964736f6c63430008110033608060405234801561001057600080fd5b506102bc806100206000396000f3fe608060405234801561001057600080fd5b50600436106100365760003560e01c8063489e0cf11461003b578063f88af21d14610057575b600080fd5b610055600480360381019061005091906101cc565b610087565b005b610071600480360381019061006c919061022f565b61011f565b60405161007e919061026b565b60405180910390f35b600060405180602001604052808373ffffffffffffffffffffffffffffffffffffffff168152509080600181540180825580915050600190039060005260206000200160009091909190915060008201518160000160006101000a81548173ffffffffffffffffffffffffffffffffffffffff021916908373ffffffffffffffffffffffffffffffffffffffff160217905550505050565b6000818154811061012f57600080fd5b906000526020600020016000915090508060000160009054906101000a900473ffffffffffffffffffffffffffffffffffffffff16905081565b600080fd5b600073ffffffffffffffffffffffffffffffffffffffff82169050919050565b60006101998261016e565b9050919050565b6101a98161018e565b81146101b457600080fd5b50565b6000813590506101c6816101a0565b92915050565b6000602082840312156101e2576101e1610169565b5b60006101f0848285016101b7565b91505092915050565b6000819050919050565b61020c816101f9565b811461021757600080fd5b50565b60008135905061022981610203565b92915050565b60006020828403121561024557610244610169565b5b60006102538482850161021a565b91505092915050565b6102658161018e565b82525050565b6000602082019050610280600083018461025c565b9291505056fea2646970667358221220f7319f428f0cec4f4b0e0ef4796d22d334dff3a0c066b8612550d38a12b718e864736f6c63430008110033",
  "immutableReferences": {},
  "source": "// SPDX-License-Identifier: MIT\npragma solidity ^0.8.17;\n\ncontract Hotel {\n\n    Food                public contract_food;\n    Trips               public contract_trips;\n    Parties             public contract_parties;\n    AirportTransport    public contract_transport;\n    address payable public hotel_owner;\n\n    constructor() payable {\n        contract_food       = new Food();\n        contract_trips      = new Trips();\n        contract_parties    = new Parties();\n        contract_transport  = new AirportTransport();\n\n        hotel_owner = payable(msg.sender);\n    }\n\n    struct Room {\n        uint room_number;\n        uint single_beds;\n        uint double_beds;\n        uint price_for_night;\n        uint class;\n    }\n\n    struct RoomReservation {\n        uint start_date;\n        uint stop_date;\n        uint total_price;\n        uint room_number;\n        address payable guest;\n    }\n\n    Room[] rooms;\n    mapping (uint => RoomReservation[]) reservations;\n\n    function add_room (uint _room_number, uint _single_beds, uint _double_beds, uint _price, uint _class) public {\n        // Only the hotel owner can add a room\n        require(msg.sender == hotel_owner);\n        rooms.push(Room(_room_number, _single_beds, _double_beds, _price, _class));\n    }\n\n    function reserve_room (uint _start, uint _stop, uint _room_number) public payable { \n        // check if room is not reserved during this time\n        uint counter = reservations[_room_number].length;\n        for (uint i=0; i<counter; i++){\n            require(_stop <= reservations[_room_number][i].start_date || _stop > reservations[_room_number][i].stop_date);\n            require(_start < reservations[_room_number][i].start_date || _start >= reservations[_room_number][i].stop_date);\n        }\n\n        uint days_total = (_stop - _start) / 60 / 60 / 24;\n        uint price_total = days_total * rooms[_room_number].price_for_night;\n        require (msg.value == price_total, \"Incorrect value. Please send amount equal to the total price.\");\n        (bool success,) = hotel_owner.call{value: msg.value}(\"\");\n        require(success == true);\n\n        reservations[_room_number].push(RoomReservation(_start, _stop, price_total, _room_number, payable(msg.sender)));\n    }\n\n    function list_rooms () public view returns(Room[] memory) {\n        return rooms;\n    }\n\n    function list_room_reservations (uint _room_number) public view returns(RoomReservation[] memory) {\n        return reservations[_room_number];\n    }\n\n\n}\n\ncontract Food {\n\n    struct Registrations {\n        address payable client;\n    }\n\n    Registrations[] public clients;\n\n    function register_client (address payable _client) public {\n        clients.push(Registrations(_client));\n    }\n\n}\n\ncontract Trips {\n\n    struct Registrations {\n        address payable client;\n    }\n\n    Registrations[] public clients;\n\n    function register_client (address payable _client) public {\n        clients.push(Registrations(_client));\n    }\n\n}\n\ncontract Parties {\n\n    struct Registrations {\n        address payable client;\n    }\n\n    Registrations[] public clients;\n\n    function register_client (address payable _client) public {\n        clients.push(Registrations(_client));\n    }\n\n}\n\ncontract AirportTransport {\n\n    struct Registrations {\n        address payable client;\n    }\n\n    Registrations[] public clients;\n\n    function register_client (address payable _client) public {\n        clients.push(Registrations(_client));\n    }\n\n}",
  "sourcePath": "/Users/kmitg/AGH/blockchain/contracts/Hotel.sol",
  "compiler": {
    "name": "solc",
    "version": "0.8.17+commit.8df45f5f.Emscripten.clang"
  },
  "schemaVersion": "3.4.10",
  "updatedAt": "2022-11-25T12:02:41.773Z",
  "devdoc": {
    "kind": "dev",
    "methods": {},
    "version": 1
  },
  "userdoc": {
    "kind": "user",
    "methods": {},
    "version": 1
  }
}