{
  "contractName": "Hotel",
  "abi": [
    {
      "inputs": [],
      "stateMutability": "payable",
      "type": "constructor",
      "payable": true
    },
    {
      "inputs": [],
      "name": "contract_food",
      "outputs": [
        {
          "internalType": "contract Food",
          "name": "",
          "type": "address"
        }
      ],
      "stateMutability": "view",
      "type": "function",
      "constant": true
    },
    {
      "inputs": [],
      "name": "contract_parties",
      "outputs": [
        {
          "internalType": "contract Parties",
          "name": "",
          "type": "address"
        }
      ],
      "stateMutability": "view",
      "type": "function",
      "constant": true
    },
    {
      "inputs": [],
      "name": "contract_transport",
      "outputs": [
        {
          "internalType": "contract AirportTransport",
          "name": "",
          "type": "address"
        }
      ],
      "stateMutability": "view",
      "type": "function",
      "constant": true
    },
    {
      "inputs": [],
      "name": "contract_trips",
      "outputs": [
        {
          "internalType": "contract Trips",
          "name": "",
          "type": "address"
        }
      ],
      "stateMutability": "view",
      "type": "function",
      "constant": true
    },
    {
      "inputs": [],
      "name": "hotel_owner",
      "outputs": [
        {
          "internalType": "address payable",
          "name": "",
          "type": "address"
        }
      ],
      "stateMutability": "view",
      "type": "function",
      "constant": true
    },
    {
      "inputs": [
        {
          "internalType": "uint256",
          "name": "",
          "type": "uint256"
        },
        {
          "internalType": "uint256",
          "name": "",
          "type": "uint256"
        }
      ],
      "name": "reservations",
      "outputs": [
        {
          "internalType": "uint256",
          "name": "start_date",
          "type": "uint256"
        },
        {
          "internalType": "uint256",
          "name": "stop_date",
          "type": "uint256"
        },
        {
          "internalType": "uint256",
          "name": "total_price",
          "type": "uint256"
        },
        {
          "internalType": "uint256",
          "name": "room_number",
          "type": "uint256"
        },
        {
          "internalType": "address payable",
          "name": "guest",
          "type": "address"
        }
      ],
      "stateMutability": "view",
      "type": "function",
      "constant": true
    },
    {
      "inputs": [
        {
          "internalType": "uint256",
          "name": "",
          "type": "uint256"
        }
      ],
      "name": "rooms",
      "outputs": [
        {
          "internalType": "uint256",
          "name": "room_number",
          "type": "uint256"
        },
        {
          "internalType": "uint256",
          "name": "single_beds",
          "type": "uint256"
        },
        {
          "internalType": "uint256",
          "name": "double_beds",
          "type": "uint256"
        },
        {
          "internalType": "uint256",
          "name": "price_for_night",
          "type": "uint256"
        }
      ],
      "stateMutability": "view",
      "type": "function",
      "constant": true
    },
    {
      "inputs": [
        {
          "internalType": "uint256",
          "name": "_room_number",
          "type": "uint256"
        },
        {
          "internalType": "uint256",
          "name": "_single_beds",
          "type": "uint256"
        },
        {
          "internalType": "uint256",
          "name": "_double_beds",
          "type": "uint256"
        },
        {
          "internalType": "uint256",
          "name": "_price",
          "type": "uint256"
        }
      ],
      "name": "add_room",
      "outputs": [],
      "stateMutability": "nonpayable",
      "type": "function"
    },
    {
      "inputs": [
        {
          "internalType": "uint256",
          "name": "_start",
          "type": "uint256"
        },
        {
          "internalType": "uint256",
          "name": "_stop",
          "type": "uint256"
        },
        {
          "internalType": "uint256",
          "name": "_room_number",
          "type": "uint256"
        }
      ],
      "name": "reserve_room",
      "outputs": [],
      "stateMutability": "payable",
      "type": "function",
      "payable": true
    },
    {
      "inputs": [],
      "name": "list_rooms",
      "outputs": [
        {
          "components": [
            {
              "internalType": "uint256",
              "name": "room_number",
              "type": "uint256"
            },
            {
              "internalType": "uint256",
              "name": "single_beds",
              "type": "uint256"
            },
            {
              "internalType": "uint256",
              "name": "double_beds",
              "type": "uint256"
            },
            {
              "internalType": "uint256",
              "name": "price_for_night",
              "type": "uint256"
            }
          ],
          "internalType": "struct Hotel.Room[]",
          "name": "",
          "type": "tuple[]"
        }
      ],
      "stateMutability": "view",
      "type": "function",
      "constant": true
    },
    {
      "inputs": [
        {
          "internalType": "uint256",
          "name": "_room_number",
          "type": "uint256"
        }
      ],
      "name": "list_room_reservations",
      "outputs": [
        {
          "components": [
            {
              "internalType": "uint256",
              "name": "start_date",
              "type": "uint256"
            },
            {
              "internalType": "uint256",
              "name": "stop_date",
              "type": "uint256"
            },
            {
              "internalType": "uint256",
              "name": "total_price",
              "type": "uint256"
            },
            {
              "internalType": "uint256",
              "name": "room_number",
              "type": "uint256"
            },
            {
              "internalType": "address payable",
              "name": "guest",
              "type": "address"
            }
          ],
          "internalType": "struct Hotel.RoomReservation[]",
          "name": "",
          "type": "tuple[]"
        }
      ],
      "stateMutability": "view",
      "type": "function",
      "constant": true
    }
  ],
  "bytecode": "0x608060405233600460006101000a81548173ffffffffffffffffffffffffffffffffffffffff021916908373ffffffffffffffffffffffffffffffffffffffff160217905550600460009054906101000a900473ffffffffffffffffffffffffffffffffffffffff166040516200007690620002b6565b62000082919062000379565b604051809103906000f0801580156200009f573d6000803e3d6000fd5b506000806101000a81548173ffffffffffffffffffffffffffffffffffffffff021916908373ffffffffffffffffffffffffffffffffffffffff160217905550600460009054906101000a900473ffffffffffffffffffffffffffffffffffffffff166040516200011090620002c4565b6200011c919062000379565b604051809103906000f08015801562000139573d6000803e3d6000fd5b50600160006101000a81548173ffffffffffffffffffffffffffffffffffffffff021916908373ffffffffffffffffffffffffffffffffffffffff160217905550600460009054906101000a900473ffffffffffffffffffffffffffffffffffffffff16604051620001ab90620002d2565b620001b7919062000379565b604051809103906000f080158015620001d4573d6000803e3d6000fd5b50600260006101000a81548173ffffffffffffffffffffffffffffffffffffffff021916908373ffffffffffffffffffffffffffffffffffffffff160217905550600460009054906101000a900473ffffffffffffffffffffffffffffffffffffffff166040516200024690620002e0565b62000252919062000379565b604051809103906000f0801580156200026f573d6000803e3d6000fd5b50600360006101000a81548173ffffffffffffffffffffffffffffffffffffffff021916908373ffffffffffffffffffffffffffffffffffffffff16021790555062000396565b6109e38062001ada83390190565b6109e380620024bd83390190565b6109e38062002ea083390190565b6109e3806200388383390190565b600073ffffffffffffffffffffffffffffffffffffffff82169050919050565b6000819050919050565b600062000339620003336200032d84620002ee565b6200030e565b620002ee565b9050919050565b60006200034d8262000318565b9050919050565b6000620003618262000340565b9050919050565b620003738162000354565b82525050565b600060208201905062000390600083018462000368565b92915050565b61173480620003a66000396000f3fe60806040526004361061009c5760003560e01c806391b361f71161006457806391b361f7146101a65780639aecad71146101d1578063c828c453146101fc578063d7f925f714610227578063f4ac25ae14610252578063fe5044371461027b5761009c565b80631bae0ac8146100a1578063202869cd146100e15780632a29d1321461010c57806330662b7b1461012857806346fac47514610169575b600080fd5b3480156100ad57600080fd5b506100c860048036038101906100c39190610c8b565b6102a6565b6040516100d89493929190610cc7565b60405180910390f35b3480156100ed57600080fd5b506100f66102d6565b6040516101039190610d8b565b60405180910390f35b61012660048036038101906101219190610da6565b6102fa565b005b34801561013457600080fd5b5061014f600480360381019061014a9190610df9565b610728565b604051610160959493929190610e5a565b60405180910390f35b34801561017557600080fd5b50610190600480360381019061018b9190610c8b565b61079b565b60405161019d9190610fe2565b60405180910390f35b3480156101b257600080fd5b506101bb61088b565b6040516101c89190611025565b60405180910390f35b3480156101dd57600080fd5b506101e66108b1565b6040516101f39190611061565b60405180910390f35b34801561020857600080fd5b506102116108d7565b60405161021e919061109d565b60405180910390f35b34801561023357600080fd5b5061023c6108fd565b60405161024991906110b8565b60405180910390f35b34801561025e57600080fd5b50610279600480360381019061027491906110d3565b610923565b005b34801561028757600080fd5b50610290610a96565b60405161029d919061123e565b60405180910390f35b60056020528060005260406000206000915090508060000154908060010154908060020154908060030154905084565b60008054906101000a900473ffffffffffffffffffffffffffffffffffffffff1681565b600061030582610bc3565b9050600115158115151461034e576040517f08c379a0000000000000000000000000000000000000000000000000000000008152600401610345906112bd565b60405180910390fd5b60006006600084815260200190815260200160002080549050905060005b818110156104f957600660008581526020019081526020016000208181548110610399576103986112dd565b5b906000526020600020906005020160000154851115806103ee57506006600085815260200190815260200160002081815481106103d9576103d86112dd565b5b90600052602060002090600502016001015485115b61042d576040517f08c379a00000000000000000000000000000000000000000000000000000000081526004016104249061137e565b60405180910390fd5b600660008581526020019081526020016000208181548110610452576104516112dd565b5b9060005260206000209060050201600001548610806104a75750600660008581526020019081526020016000208181548110610491576104906112dd565b5b9060005260206000209060050201600101548610155b6104e6576040517f08c379a00000000000000000000000000000000000000000000000000000000081526004016104dd9061137e565b60405180910390fd5b80806104f1906113cd565b91505061036c565b5060006018603c80888861050d9190611415565b6105179190611478565b6105219190611478565b61052b9190611478565b9050600060056000868152602001908152602001600020600301548261055191906114a9565b9050803414610595576040517f08c379a000000000000000000000000000000000000000000000000000000000815260040161058c9061155d565b60405180910390fd5b6000600460009054906101000a900473ffffffffffffffffffffffffffffffffffffffff1673ffffffffffffffffffffffffffffffffffffffff16346040516105dd906115ae565b60006040518083038185875af1925050503d806000811461061a576040519150601f19603f3d011682016040523d82523d6000602084013e61061f565b606091505b50509050600115158115151461063457600080fd5b600660008781526020019081526020016000206040518060a001604052808a81526020018981526020018481526020018881526020013373ffffffffffffffffffffffffffffffffffffffff1681525090806001815401808255809150506001900390600052602060002090600502016000909190919091506000820151816000015560208201518160010155604082015181600201556060820151816003015560808201518160040160006101000a81548173ffffffffffffffffffffffffffffffffffffffff021916908373ffffffffffffffffffffffffffffffffffffffff16021790555050505050505050505050565b6006602052816000526040600020818154811061074457600080fd5b9060005260206000209060050201600091509150508060000154908060010154908060020154908060030154908060040160009054906101000a900473ffffffffffffffffffffffffffffffffffffffff16905085565b606060066000838152602001908152602001600020805480602002602001604051908101604052809291908181526020016000905b8282101561088057838290600052602060002090600502016040518060a0016040529081600082015481526020016001820154815260200160028201548152602001600382015481526020016004820160009054906101000a900473ffffffffffffffffffffffffffffffffffffffff1673ffffffffffffffffffffffffffffffffffffffff1673ffffffffffffffffffffffffffffffffffffffff1681525050815260200190600101906107d0565b505050509050919050565b600260009054906101000a900473ffffffffffffffffffffffffffffffffffffffff1681565b600360009054906101000a900473ffffffffffffffffffffffffffffffffffffffff1681565b600160009054906101000a900473ffffffffffffffffffffffffffffffffffffffff1681565b600460009054906101000a900473ffffffffffffffffffffffffffffffffffffffff1681565b600460009054906101000a900473ffffffffffffffffffffffffffffffffffffffff1673ffffffffffffffffffffffffffffffffffffffff163373ffffffffffffffffffffffffffffffffffffffff16146109b3576040517f08c379a00000000000000000000000000000000000000000000000000000000081526004016109aa9061160f565b60405180910390fd5b60006109be85610bc3565b90506000151581151514610a07576040517f08c379a00000000000000000000000000000000000000000000000000000000081526004016109fe9061167b565b60405180910390fd5b604051806080016040528086815260200185815260200184815260200183815250600560008781526020019081526020016000206000820151816000015560208201518160010155604082015181600201556060820151816003015590505060078590806001815401808255809150506001900390600052602060002001600090919091909150555050505050565b60606000600780549050905060008167ffffffffffffffff811115610abe57610abd61169b565b5b604051908082528060200260200182016040528015610af757816020015b610ae4610c28565b815260200190600190039081610adc5790505b5090506000806000905060005b600780549050811015610bb85760078181548110610b2557610b246112dd565b5b9060005260206000200154925060056000848152602001908152602001600020604051806080016040529081600082015481526020016001820154815260200160028201548152602001600382015481525050848381518110610b8b57610b8a6112dd565b5b6020026020010181905250600182610ba391906116ca565b91508080610bb0906113cd565b915050610b04565b508294505050505090565b60008060005b600780549050811015610c1c5760078181548110610bea57610be96112dd565b5b90600052602060002001549150838203610c0957600192505050610c23565b8080610c14906113cd565b915050610bc9565b5060009150505b919050565b6040518060800160405280600081526020016000815260200160008152602001600081525090565b600080fd5b6000819050919050565b610c6881610c55565b8114610c7357600080fd5b50565b600081359050610c8581610c5f565b92915050565b600060208284031215610ca157610ca0610c50565b5b6000610caf84828501610c76565b91505092915050565b610cc181610c55565b82525050565b6000608082019050610cdc6000830187610cb8565b610ce96020830186610cb8565b610cf66040830185610cb8565b610d036060830184610cb8565b95945050505050565b600073ffffffffffffffffffffffffffffffffffffffff82169050919050565b6000819050919050565b6000610d51610d4c610d4784610d0c565b610d2c565b610d0c565b9050919050565b6000610d6382610d36565b9050919050565b6000610d7582610d58565b9050919050565b610d8581610d6a565b82525050565b6000602082019050610da06000830184610d7c565b92915050565b600080600060608486031215610dbf57610dbe610c50565b5b6000610dcd86828701610c76565b9350506020610dde86828701610c76565b9250506040610def86828701610c76565b9150509250925092565b60008060408385031215610e1057610e0f610c50565b5b6000610e1e85828601610c76565b9250506020610e2f85828601610c76565b9150509250929050565b6000610e4482610d0c565b9050919050565b610e5481610e39565b82525050565b600060a082019050610e6f6000830188610cb8565b610e7c6020830187610cb8565b610e896040830186610cb8565b610e966060830185610cb8565b610ea36080830184610e4b565b9695505050505050565b600081519050919050565b600082825260208201905092915050565b6000819050602082019050919050565b610ee281610c55565b82525050565b610ef181610e39565b82525050565b60a082016000820151610f0d6000850182610ed9565b506020820151610f206020850182610ed9565b506040820151610f336040850182610ed9565b506060820151610f466060850182610ed9565b506080820151610f596080850182610ee8565b50505050565b6000610f6b8383610ef7565b60a08301905092915050565b6000602082019050919050565b6000610f8f82610ead565b610f998185610eb8565b9350610fa483610ec9565b8060005b83811015610fd5578151610fbc8882610f5f565b9750610fc783610f77565b925050600181019050610fa8565b5085935050505092915050565b60006020820190508181036000830152610ffc8184610f84565b905092915050565b600061100f82610d58565b9050919050565b61101f81611004565b82525050565b600060208201905061103a6000830184611016565b92915050565b600061104b82610d58565b9050919050565b61105b81611040565b82525050565b60006020820190506110766000830184611052565b92915050565b600061108782610d58565b9050919050565b6110978161107c565b82525050565b60006020820190506110b2600083018461108e565b92915050565b60006020820190506110cd6000830184610e4b565b92915050565b600080600080608085870312156110ed576110ec610c50565b5b60006110fb87828801610c76565b945050602061110c87828801610c76565b935050604061111d87828801610c76565b925050606061112e87828801610c76565b91505092959194509250565b600081519050919050565b600082825260208201905092915050565b6000819050602082019050919050565b60808201600082015161117c6000850182610ed9565b50602082015161118f6020850182610ed9565b5060408201516111a26040850182610ed9565b5060608201516111b56060850182610ed9565b50505050565b60006111c78383611166565b60808301905092915050565b6000602082019050919050565b60006111eb8261113a565b6111f58185611145565b935061120083611156565b8060005b8381101561123157815161121888826111bb565b9750611223836111d3565b925050600181019050611204565b5085935050505092915050565b6000602082019050818103600083015261125881846111e0565b905092915050565b600082825260208201905092915050565b7f526f6f6d20646f6573206e6f7420657869737473000000000000000000000000600082015250565b60006112a7601483611260565b91506112b282611271565b602082019050919050565b600060208201905081810360008301526112d68161129a565b9050919050565b7f4e487b7100000000000000000000000000000000000000000000000000000000600052603260045260246000fd5b7f526f6f6d20697320616c7265616479207265736572766564207468617420646160008201527f7900000000000000000000000000000000000000000000000000000000000000602082015250565b6000611368602183611260565b91506113738261130c565b604082019050919050565b600060208201905081810360008301526113978161135b565b9050919050565b7f4e487b7100000000000000000000000000000000000000000000000000000000600052601160045260246000fd5b60006113d882610c55565b91507fffffffffffffffffffffffffffffffffffffffffffffffffffffffffffffffff820361140a5761140961139e565b5b600182019050919050565b600061142082610c55565b915061142b83610c55565b92508282039050818111156114435761144261139e565b5b92915050565b7f4e487b7100000000000000000000000000000000000000000000000000000000600052601260045260246000fd5b600061148382610c55565b915061148e83610c55565b92508261149e5761149d611449565b5b828204905092915050565b60006114b482610c55565b91506114bf83610c55565b92508282026114cd81610c55565b915082820484148315176114e4576114e361139e565b5b5092915050565b7f496e636f72726563742076616c75652e20506c656173652073656e6420616d6f60008201527f756e7420657175616c20746f2074686520746f74616c2070726963652e000000602082015250565b6000611547603d83611260565b9150611552826114eb565b604082019050919050565b600060208201905081810360008301526115768161153a565b9050919050565b600081905092915050565b50565b600061159860008361157d565b91506115a382611588565b600082019050919050565b60006115b98261158b565b9150819050919050565b7f596f75206d7573742062652074686520686f74656c2773206f776e6572000000600082015250565b60006115f9601d83611260565b9150611604826115c3565b602082019050919050565b60006020820190508181036000830152611628816115ec565b9050919050565b7f526f6f6d20616c72656164792065786973747300000000000000000000000000600082015250565b6000611665601383611260565b91506116708261162f565b602082019050919050565b6000602082019050818103600083015261169481611658565b9050919050565b7f4e487b7100000000000000000000000000000000000000000000000000000000600052604160045260246000fd5b60006116d582610c55565b91506116e083610c55565b92508282019050808211156116f8576116f761139e565b5b9291505056fea26469706673582212208e9b8f49ff920968a203a09791e83bd5d5600f42b696061f38cb172b3a959e3b64736f6c63430008110033608060405260006001556040516109e33803806109e3833981810160405281019061002a91906100d3565b806000806101000a81548173ffffffffffffffffffffffffffffffffffffffff021916908373ffffffffffffffffffffffffffffffffffffffff16021790555050610100565b600080fd5b600073ffffffffffffffffffffffffffffffffffffffff82169050919050565b60006100a082610075565b9050919050565b6100b081610095565b81146100bb57600080fd5b50565b6000815190506100cd816100a7565b92915050565b6000602082840312156100e9576100e8610070565b5b60006100f7848285016100be565b91505092915050565b6108d48061010f6000396000f3fe60806040526004361061004a5760003560e01c8063352b81a11461004f578063bfdadc191461007a578063c220d79e146100a3578063f851a440146100bf578063f88af21d146100ea575b600080fd5b34801561005b57600080fd5b50610064610129565b60405161007191906105f3565b60405180910390f35b34801561008657600080fd5b506100a1600480360381019061009c9190610646565b6101f2565b005b6100bd60048036038101906100b89190610673565b61028a565b005b3480156100cb57600080fd5b506100d461042a565b6040516100e191906106c2565b60405180910390f35b3480156100f657600080fd5b50610111600480360381019061010c9190610646565b61044e565b604051610120939291906106ec565b60405180910390f35b60606002805480602002602001604051908101604052809291908181526020016000905b828210156101e957838290600052602060002090600302016040518060600160405290816000820160009054906101000a900473ffffffffffffffffffffffffffffffffffffffff1673ffffffffffffffffffffffffffffffffffffffff1673ffffffffffffffffffffffffffffffffffffffff168152602001600182015481526020016002820154815250508152602001906001019061014d565b50505050905090565b60008054906101000a900473ffffffffffffffffffffffffffffffffffffffff1673ffffffffffffffffffffffffffffffffffffffff163373ffffffffffffffffffffffffffffffffffffffff1614610280576040517f08c379a0000000000000000000000000000000000000000000000000000000008152600401610277906107a6565b60405180910390fd5b8060018190555050565b60015434146102ce576040517f08c379a00000000000000000000000000000000000000000000000000000000081526004016102c590610838565b60405180910390fd5b60008060009054906101000a900473ffffffffffffffffffffffffffffffffffffffff1673ffffffffffffffffffffffffffffffffffffffff163460405161031590610889565b60006040518083038185875af1925050503d8060008114610352576040519150601f19603f3d011682016040523d82523d6000602084013e610357565b606091505b50509050600115158115151461036c57600080fd5b600260405180606001604052803373ffffffffffffffffffffffffffffffffffffffff16815260200185815260200184815250908060018154018082558091505060019003906000526020600020906003020160009091909190915060008201518160000160006101000a81548173ffffffffffffffffffffffffffffffffffffffff021916908373ffffffffffffffffffffffffffffffffffffffff16021790555060208201518160010155604082015181600201555050505050565b60008054906101000a900473ffffffffffffffffffffffffffffffffffffffff1681565b6002818154811061045e57600080fd5b90600052602060002090600302016000915090508060000160009054906101000a900473ffffffffffffffffffffffffffffffffffffffff16908060010154908060020154905083565b600081519050919050565b600082825260208201905092915050565b6000819050602082019050919050565b600073ffffffffffffffffffffffffffffffffffffffff82169050919050565b60006104ff826104d4565b9050919050565b61050f816104f4565b82525050565b6000819050919050565b61052881610515565b82525050565b6060820160008201516105446000850182610506565b506020820151610557602085018261051f565b50604082015161056a604085018261051f565b50505050565b600061057c838361052e565b60608301905092915050565b6000602082019050919050565b60006105a0826104a8565b6105aa81856104b3565b93506105b5836104c4565b8060005b838110156105e65781516105cd8882610570565b97506105d883610588565b9250506001810190506105b9565b5085935050505092915050565b6000602082019050818103600083015261060d8184610595565b905092915050565b600080fd5b61062381610515565b811461062e57600080fd5b50565b6000813590506106408161061a565b92915050565b60006020828403121561065c5761065b610615565b5b600061066a84828501610631565b91505092915050565b6000806040838503121561068a57610689610615565b5b600061069885828601610631565b92505060206106a985828601610631565b9150509250929050565b6106bc816104f4565b82525050565b60006020820190506106d760008301846106b3565b92915050565b6106e681610515565b82525050565b600060608201905061070160008301866106b3565b61070e60208301856106dd565b61071b60408301846106dd565b949350505050565b600082825260208201905092915050565b7f596f75206d757374206265206120686f74656c2773206f776e657220746f206360008201527f68616e6765207468652070726963650000000000000000000000000000000000602082015250565b6000610790602f83610723565b915061079b82610734565b604082019050919050565b600060208201905081810360008301526107bf81610783565b9050919050565b7f496e636f72726563742076616c75652e20506c656173652073656e6420616d6f60008201527f756e7420657175616c20746f2074686520746f74616c2070726963652e000000602082015250565b6000610822603d83610723565b915061082d826107c6565b604082019050919050565b6000602082019050818103600083015261085181610815565b9050919050565b600081905092915050565b50565b6000610873600083610858565b915061087e82610863565b600082019050919050565b600061089482610866565b915081905091905056fea264697066735822122074e8a764c3e7b63f0af69827d79668fcffdf0771282f3effba971217756dfccc64736f6c63430008110033608060405260006001556040516109e33803806109e3833981810160405281019061002a91906100d3565b806000806101000a81548173ffffffffffffffffffffffffffffffffffffffff021916908373ffffffffffffffffffffffffffffffffffffffff16021790555050610100565b600080fd5b600073ffffffffffffffffffffffffffffffffffffffff82169050919050565b60006100a082610075565b9050919050565b6100b081610095565b81146100bb57600080fd5b50565b6000815190506100cd816100a7565b92915050565b6000602082840312156100e9576100e8610070565b5b60006100f7848285016100be565b91505092915050565b6108d48061010f6000396000f3fe60806040526004361061004a5760003560e01c8063352b81a11461004f578063bfdadc191461007a578063c220d79e146100a3578063f851a440146100bf578063f88af21d146100ea575b600080fd5b34801561005b57600080fd5b50610064610129565b60405161007191906105f3565b60405180910390f35b34801561008657600080fd5b506100a1600480360381019061009c9190610646565b6101f2565b005b6100bd60048036038101906100b89190610673565b61028a565b005b3480156100cb57600080fd5b506100d461042a565b6040516100e191906106c2565b60405180910390f35b3480156100f657600080fd5b50610111600480360381019061010c9190610646565b61044e565b604051610120939291906106ec565b60405180910390f35b60606002805480602002602001604051908101604052809291908181526020016000905b828210156101e957838290600052602060002090600302016040518060600160405290816000820160009054906101000a900473ffffffffffffffffffffffffffffffffffffffff1673ffffffffffffffffffffffffffffffffffffffff1673ffffffffffffffffffffffffffffffffffffffff168152602001600182015481526020016002820154815250508152602001906001019061014d565b50505050905090565b60008054906101000a900473ffffffffffffffffffffffffffffffffffffffff1673ffffffffffffffffffffffffffffffffffffffff163373ffffffffffffffffffffffffffffffffffffffff1614610280576040517f08c379a0000000000000000000000000000000000000000000000000000000008152600401610277906107a6565b60405180910390fd5b8060018190555050565b60015434146102ce576040517f08c379a00000000000000000000000000000000000000000000000000000000081526004016102c590610838565b60405180910390fd5b60008060009054906101000a900473ffffffffffffffffffffffffffffffffffffffff1673ffffffffffffffffffffffffffffffffffffffff163460405161031590610889565b60006040518083038185875af1925050503d8060008114610352576040519150601f19603f3d011682016040523d82523d6000602084013e610357565b606091505b50509050600115158115151461036c57600080fd5b600260405180606001604052803373ffffffffffffffffffffffffffffffffffffffff16815260200185815260200184815250908060018154018082558091505060019003906000526020600020906003020160009091909190915060008201518160000160006101000a81548173ffffffffffffffffffffffffffffffffffffffff021916908373ffffffffffffffffffffffffffffffffffffffff16021790555060208201518160010155604082015181600201555050505050565b60008054906101000a900473ffffffffffffffffffffffffffffffffffffffff1681565b6002818154811061045e57600080fd5b90600052602060002090600302016000915090508060000160009054906101000a900473ffffffffffffffffffffffffffffffffffffffff16908060010154908060020154905083565b600081519050919050565b600082825260208201905092915050565b6000819050602082019050919050565b600073ffffffffffffffffffffffffffffffffffffffff82169050919050565b60006104ff826104d4565b9050919050565b61050f816104f4565b82525050565b6000819050919050565b61052881610515565b82525050565b6060820160008201516105446000850182610506565b506020820151610557602085018261051f565b50604082015161056a604085018261051f565b50505050565b600061057c838361052e565b60608301905092915050565b6000602082019050919050565b60006105a0826104a8565b6105aa81856104b3565b93506105b5836104c4565b8060005b838110156105e65781516105cd8882610570565b97506105d883610588565b9250506001810190506105b9565b5085935050505092915050565b6000602082019050818103600083015261060d8184610595565b905092915050565b600080fd5b61062381610515565b811461062e57600080fd5b50565b6000813590506106408161061a565b92915050565b60006020828403121561065c5761065b610615565b5b600061066a84828501610631565b91505092915050565b6000806040838503121561068a57610689610615565b5b600061069885828601610631565b92505060206106a985828601610631565b9150509250929050565b6106bc816104f4565b82525050565b60006020820190506106d760008301846106b3565b92915050565b6106e681610515565b82525050565b600060608201905061070160008301866106b3565b61070e60208301856106dd565b61071b60408301846106dd565b949350505050565b600082825260208201905092915050565b7f596f75206d757374206265206120686f74656c2773206f776e657220746f206360008201527f68616e6765207468652070726963650000000000000000000000000000000000602082015250565b6000610790602f83610723565b915061079b82610734565b604082019050919050565b600060208201905081810360008301526107bf81610783565b9050919050565b7f496e636f72726563742076616c75652e20506c656173652073656e6420616d6f60008201527f756e7420657175616c20746f2074686520746f74616c2070726963652e000000602082015250565b6000610822603d83610723565b915061082d826107c6565b604082019050919050565b6000602082019050818103600083015261085181610815565b9050919050565b600081905092915050565b50565b6000610873600083610858565b915061087e82610863565b600082019050919050565b600061089482610866565b915081905091905056fea26469706673582212208fdfacad23a3a17a7249131c7a7ad3cc7f465a15cded0a7b46e37987492c341564736f6c63430008110033608060405260006001556040516109e33803806109e3833981810160405281019061002a91906100d3565b806000806101000a81548173ffffffffffffffffffffffffffffffffffffffff021916908373ffffffffffffffffffffffffffffffffffffffff16021790555050610100565b600080fd5b600073ffffffffffffffffffffffffffffffffffffffff82169050919050565b60006100a082610075565b9050919050565b6100b081610095565b81146100bb57600080fd5b50565b6000815190506100cd816100a7565b92915050565b6000602082840312156100e9576100e8610070565b5b60006100f7848285016100be565b91505092915050565b6108d48061010f6000396000f3fe60806040526004361061004a5760003560e01c8063352b81a11461004f578063bfdadc191461007a578063c220d79e146100a3578063f851a440146100bf578063f88af21d146100ea575b600080fd5b34801561005b57600080fd5b50610064610129565b60405161007191906105f3565b60405180910390f35b34801561008657600080fd5b506100a1600480360381019061009c9190610646565b6101f2565b005b6100bd60048036038101906100b89190610673565b61028a565b005b3480156100cb57600080fd5b506100d461042a565b6040516100e191906106c2565b60405180910390f35b3480156100f657600080fd5b50610111600480360381019061010c9190610646565b61044e565b604051610120939291906106ec565b60405180910390f35b60606002805480602002602001604051908101604052809291908181526020016000905b828210156101e957838290600052602060002090600302016040518060600160405290816000820160009054906101000a900473ffffffffffffffffffffffffffffffffffffffff1673ffffffffffffffffffffffffffffffffffffffff1673ffffffffffffffffffffffffffffffffffffffff168152602001600182015481526020016002820154815250508152602001906001019061014d565b50505050905090565b60008054906101000a900473ffffffffffffffffffffffffffffffffffffffff1673ffffffffffffffffffffffffffffffffffffffff163373ffffffffffffffffffffffffffffffffffffffff1614610280576040517f08c379a0000000000000000000000000000000000000000000000000000000008152600401610277906107a6565b60405180910390fd5b8060018190555050565b60015434146102ce576040517f08c379a00000000000000000000000000000000000000000000000000000000081526004016102c590610838565b60405180910390fd5b60008060009054906101000a900473ffffffffffffffffffffffffffffffffffffffff1673ffffffffffffffffffffffffffffffffffffffff163460405161031590610889565b60006040518083038185875af1925050503d8060008114610352576040519150601f19603f3d011682016040523d82523d6000602084013e610357565b606091505b50509050600115158115151461036c57600080fd5b600260405180606001604052803373ffffffffffffffffffffffffffffffffffffffff16815260200185815260200184815250908060018154018082558091505060019003906000526020600020906003020160009091909190915060008201518160000160006101000a81548173ffffffffffffffffffffffffffffffffffffffff021916908373ffffffffffffffffffffffffffffffffffffffff16021790555060208201518160010155604082015181600201555050505050565b60008054906101000a900473ffffffffffffffffffffffffffffffffffffffff1681565b6002818154811061045e57600080fd5b90600052602060002090600302016000915090508060000160009054906101000a900473ffffffffffffffffffffffffffffffffffffffff16908060010154908060020154905083565b600081519050919050565b600082825260208201905092915050565b6000819050602082019050919050565b600073ffffffffffffffffffffffffffffffffffffffff82169050919050565b60006104ff826104d4565b9050919050565b61050f816104f4565b82525050565b6000819050919050565b61052881610515565b82525050565b6060820160008201516105446000850182610506565b506020820151610557602085018261051f565b50604082015161056a604085018261051f565b50505050565b600061057c838361052e565b60608301905092915050565b6000602082019050919050565b60006105a0826104a8565b6105aa81856104b3565b93506105b5836104c4565b8060005b838110156105e65781516105cd8882610570565b97506105d883610588565b9250506001810190506105b9565b5085935050505092915050565b6000602082019050818103600083015261060d8184610595565b905092915050565b600080fd5b61062381610515565b811461062e57600080fd5b50565b6000813590506106408161061a565b92915050565b60006020828403121561065c5761065b610615565b5b600061066a84828501610631565b91505092915050565b6000806040838503121561068a57610689610615565b5b600061069885828601610631565b92505060206106a985828601610631565b9150509250929050565b6106bc816104f4565b82525050565b60006020820190506106d760008301846106b3565b92915050565b6106e681610515565b82525050565b600060608201905061070160008301866106b3565b61070e60208301856106dd565b61071b60408301846106dd565b949350505050565b600082825260208201905092915050565b7f596f75206d757374206265206120686f74656c2773206f776e657220746f206360008201527f68616e6765207468652070726963650000000000000000000000000000000000602082015250565b6000610790602f83610723565b915061079b82610734565b604082019050919050565b600060208201905081810360008301526107bf81610783565b9050919050565b7f496e636f72726563742076616c75652e20506c656173652073656e6420616d6f60008201527f756e7420657175616c20746f2074686520746f74616c2070726963652e000000602082015250565b6000610822603d83610723565b915061082d826107c6565b604082019050919050565b6000602082019050818103600083015261085181610815565b9050919050565b600081905092915050565b50565b6000610873600083610858565b915061087e82610863565b600082019050919050565b600061089482610866565b915081905091905056fea26469706673582212208794353955533a2bc640990893d093d3341d07808dd5fb9d3c78c60a58c9bd7864736f6c63430008110033608060405260006001556040516109e33803806109e3833981810160405281019061002a91906100d3565b806000806101000a81548173ffffffffffffffffffffffffffffffffffffffff021916908373ffffffffffffffffffffffffffffffffffffffff16021790555050610100565b600080fd5b600073ffffffffffffffffffffffffffffffffffffffff82169050919050565b60006100a082610075565b9050919050565b6100b081610095565b81146100bb57600080fd5b50565b6000815190506100cd816100a7565b92915050565b6000602082840312156100e9576100e8610070565b5b60006100f7848285016100be565b91505092915050565b6108d48061010f6000396000f3fe60806040526004361061004a5760003560e01c8063352b81a11461004f578063bfdadc191461007a578063c220d79e146100a3578063f851a440146100bf578063f88af21d146100ea575b600080fd5b34801561005b57600080fd5b50610064610129565b60405161007191906105f3565b60405180910390f35b34801561008657600080fd5b506100a1600480360381019061009c9190610646565b6101f2565b005b6100bd60048036038101906100b89190610673565b61028a565b005b3480156100cb57600080fd5b506100d461042a565b6040516100e191906106c2565b60405180910390f35b3480156100f657600080fd5b50610111600480360381019061010c9190610646565b61044e565b604051610120939291906106ec565b60405180910390f35b60606002805480602002602001604051908101604052809291908181526020016000905b828210156101e957838290600052602060002090600302016040518060600160405290816000820160009054906101000a900473ffffffffffffffffffffffffffffffffffffffff1673ffffffffffffffffffffffffffffffffffffffff1673ffffffffffffffffffffffffffffffffffffffff168152602001600182015481526020016002820154815250508152602001906001019061014d565b50505050905090565b60008054906101000a900473ffffffffffffffffffffffffffffffffffffffff1673ffffffffffffffffffffffffffffffffffffffff163373ffffffffffffffffffffffffffffffffffffffff1614610280576040517f08c379a0000000000000000000000000000000000000000000000000000000008152600401610277906107a6565b60405180910390fd5b8060018190555050565b60015434146102ce576040517f08c379a00000000000000000000000000000000000000000000000000000000081526004016102c590610838565b60405180910390fd5b60008060009054906101000a900473ffffffffffffffffffffffffffffffffffffffff1673ffffffffffffffffffffffffffffffffffffffff163460405161031590610889565b60006040518083038185875af1925050503d8060008114610352576040519150601f19603f3d011682016040523d82523d6000602084013e610357565b606091505b50509050600115158115151461036c57600080fd5b600260405180606001604052803373ffffffffffffffffffffffffffffffffffffffff16815260200185815260200184815250908060018154018082558091505060019003906000526020600020906003020160009091909190915060008201518160000160006101000a81548173ffffffffffffffffffffffffffffffffffffffff021916908373ffffffffffffffffffffffffffffffffffffffff16021790555060208201518160010155604082015181600201555050505050565b60008054906101000a900473ffffffffffffffffffffffffffffffffffffffff1681565b6002818154811061045e57600080fd5b90600052602060002090600302016000915090508060000160009054906101000a900473ffffffffffffffffffffffffffffffffffffffff16908060010154908060020154905083565b600081519050919050565b600082825260208201905092915050565b6000819050602082019050919050565b600073ffffffffffffffffffffffffffffffffffffffff82169050919050565b60006104ff826104d4565b9050919050565b61050f816104f4565b82525050565b6000819050919050565b61052881610515565b82525050565b6060820160008201516105446000850182610506565b506020820151610557602085018261051f565b50604082015161056a604085018261051f565b50505050565b600061057c838361052e565b60608301905092915050565b6000602082019050919050565b60006105a0826104a8565b6105aa81856104b3565b93506105b5836104c4565b8060005b838110156105e65781516105cd8882610570565b97506105d883610588565b9250506001810190506105b9565b5085935050505092915050565b6000602082019050818103600083015261060d8184610595565b905092915050565b600080fd5b61062381610515565b811461062e57600080fd5b50565b6000813590506106408161061a565b92915050565b60006020828403121561065c5761065b610615565b5b600061066a84828501610631565b91505092915050565b6000806040838503121561068a57610689610615565b5b600061069885828601610631565b92505060206106a985828601610631565b9150509250929050565b6106bc816104f4565b82525050565b60006020820190506106d760008301846106b3565b92915050565b6106e681610515565b82525050565b600060608201905061070160008301866106b3565b61070e60208301856106dd565b61071b60408301846106dd565b949350505050565b600082825260208201905092915050565b7f596f75206d757374206265206120686f74656c2773206f776e657220746f206360008201527f68616e6765207468652070726963650000000000000000000000000000000000602082015250565b6000610790602f83610723565b915061079b82610734565b604082019050919050565b600060208201905081810360008301526107bf81610783565b9050919050565b7f496e636f72726563742076616c75652e20506c656173652073656e6420616d6f60008201527f756e7420657175616c20746f2074686520746f74616c2070726963652e000000602082015250565b6000610822603d83610723565b915061082d826107c6565b604082019050919050565b6000602082019050818103600083015261085181610815565b9050919050565b600081905092915050565b50565b6000610873600083610858565b915061087e82610863565b600082019050919050565b600061089482610866565b915081905091905056fea264697066735822122025d42517768e8b50c89c756e3945d2e1b3617fc07ede6100c130acfb4cc229da64736f6c63430008110033",
  "immutableReferences": {},
  "source": "// SPDX-License-Identifier: MIT\npragma solidity ^0.8.17;\n\ncontract Hotel {\n\n    Food                public contract_food;\n    Trips               public contract_trips;\n    Parties             public contract_parties;\n    AirportTransport    public contract_transport;\n    address payable public hotel_owner;\n\n    constructor() payable {\n        hotel_owner         = payable(msg.sender);\n\n        contract_food       = new Food(hotel_owner);\n        contract_trips      = new Trips(hotel_owner);\n        contract_parties    = new Parties(hotel_owner);\n        contract_transport  = new AirportTransport(hotel_owner);\n    }\n\n    struct Room {\n        uint room_number;\n        uint single_beds;\n        uint double_beds;\n        uint price_for_night;\n    }\n\n    struct RoomReservation {\n        uint start_date;\n        uint stop_date;\n        uint total_price;\n        uint room_number;\n        address payable guest;\n    }\n\n    mapping (uint => Room) public rooms;\n    mapping (uint => RoomReservation[]) public reservations;\n    uint[] rooms_numbers;\n\n    function check_if_room_exists(uint _room_number) private view returns(bool) {\n        uint num;\n        for (uint i = 0; i < rooms_numbers.length; i++) {\n            num = rooms_numbers[i];\n            if (num == _room_number) {\n                return true;\n            }\n        }\n        return false;\n    }\n\n    function add_room (uint _room_number, uint _single_beds, uint _double_beds, uint _price) public {\n        // Only the hotel owner can add a room\n        require(msg.sender == hotel_owner, \"You must be the hotel's owner\");\n        bool room_exists = check_if_room_exists(_room_number);\n        require(room_exists == false, \"Room already exists\");\n        rooms[_room_number] = Room(_room_number, _single_beds, _double_beds, _price);\n        rooms_numbers.push(_room_number);\n    }\n\n    function reserve_room (uint _start, uint _stop, uint _room_number) payable public { \n        bool room_exists = check_if_room_exists(_room_number);\n        require(room_exists == true, \"Room does not exists\");\n        // check if room is not reserved during this time\n        uint counter = reservations[_room_number].length;\n        for (uint i=0; i<counter; i++){\n            require(_stop <= reservations[_room_number][i].start_date || _stop > reservations[_room_number][i].stop_date, \"Room is already reserved that day\");\n            require(_start < reservations[_room_number][i].start_date || _start >= reservations[_room_number][i].stop_date, \"Room is already reserved that day\");\n        }\n\n        uint days_total = uint((((_stop - _start) / 60) / 60) / 24);\n        uint price_total = days_total * rooms[_room_number].price_for_night;\n        require (msg.value == price_total, \"Incorrect value. Please send amount equal to the total price.\");\n        (bool success,) = hotel_owner.call{value: msg.value}(\"\");\n        require(success == true);\n\n        reservations[_room_number].push(RoomReservation(_start, _stop, price_total, _room_number, payable(msg.sender)));\n    }\n\n    function list_rooms () public view returns(Room[] memory) {\n        uint len = rooms_numbers.length;\n        Room[] memory rooms_export = new Room[](len);\n        uint num;\n        uint ind = 0;\n        for (uint i = 0; i < rooms_numbers.length; i++) {\n            num = rooms_numbers[i];\n            rooms_export[ind] = (rooms[num]);\n            ind = ind + 1;\n        }\n        return rooms_export;\n    }\n\n    function list_room_reservations (uint _room_number) public view returns(RoomReservation[] memory) {\n        return reservations[_room_number];\n    }\n\n\n}\n\ncontract Food {\n\n    address payable public admin;\n    uint price = 0;\n\n    constructor(address _recepient) payable {\n        admin = payable(_recepient);\n    }\n\n    function change_price (uint _price) public {\n        require(msg.sender == admin, \"You must be a hotel's owner to change the price\");\n        price = _price;\n    }\n\n\n    struct Registrations {\n        address payable client;\n        uint room_number;\n        uint reservation_id;\n    }\n\n    Registrations[] public clients;\n\n    function register_client (uint _room_number, uint _reservation_id) payable public {\n        require (msg.value == price, \"Incorrect value. Please send amount equal to the total price.\");\n        (bool success,) = admin.call{value: msg.value}(\"\");\n        require(success == true);\n        clients.push(Registrations(payable(msg.sender), _room_number, _reservation_id));\n    }\n\n    function list_clients () public view returns(Registrations[] memory) {\n        return clients;\n    }\n\n}\n\n\ncontract AirportTransport {\n\n    address payable public admin;\n    uint price = 0;\n\n    constructor(address _recepient) payable {\n        admin = payable(_recepient);\n    }\n\n    function change_price (uint _price) public {\n        require(msg.sender == admin, \"You must be a hotel's owner to change the price\");\n        price = _price;\n    }\n\n\n    struct Registrations {\n        address payable client;\n        uint room_number;\n        uint reservation_id;\n    }\n\n    Registrations[] public clients;\n\n    function register_client (uint _room_number, uint _reservation_id) payable public {\n        require (msg.value == price, \"Incorrect value. Please send amount equal to the total price.\");\n        (bool success,) = admin.call{value: msg.value}(\"\");\n        require(success == true);\n        clients.push(Registrations(payable(msg.sender), _room_number, _reservation_id));\n    }\n\n    function list_clients () public view returns(Registrations[] memory) {\n        return clients;\n    }\n\n}\n\n\ncontract Parties {\n\n    address payable public admin;\n    uint price = 0;\n\n    constructor(address _recepient) payable {\n        admin = payable(_recepient);\n    }\n\n    function change_price (uint _price) public {\n        require(msg.sender == admin, \"You must be a hotel's owner to change the price\");\n        price = _price;\n    }\n\n\n    struct Registrations {\n        address payable client;\n        uint room_number;\n        uint reservation_id;\n    }\n\n    Registrations[] public clients;\n\n    function register_client (uint _room_number, uint _reservation_id) payable public {\n        require (msg.value == price, \"Incorrect value. Please send amount equal to the total price.\");\n        (bool success,) = admin.call{value: msg.value}(\"\");\n        require(success == true);\n        clients.push(Registrations(payable(msg.sender), _room_number, _reservation_id));\n    }\n\n    function list_clients () public view returns(Registrations[] memory) {\n        return clients;\n    }\n\n}\n\ncontract Trips {\n\n    address payable public admin;\n    uint price = 0;\n\n    constructor(address _recepient) payable {\n        admin = payable(_recepient);\n    }\n\n    function change_price (uint _price) public {\n        require(msg.sender == admin, \"You must be a hotel's owner to change the price\");\n        price = _price;\n    }\n\n\n    struct Registrations {\n        address payable client;\n        uint room_number;\n        uint reservation_id;\n    }\n\n    Registrations[] public clients;\n\n    function register_client (uint _room_number, uint _reservation_id) payable public {\n        require (msg.value == price, \"Incorrect value. Please send amount equal to the total price.\");\n        (bool success,) = admin.call{value: msg.value}(\"\");\n        require(success == true);\n        clients.push(Registrations(payable(msg.sender), _room_number, _reservation_id));\n    }\n\n    function list_clients () public view returns(Registrations[] memory) {\n        return clients;\n    }\n\n}",
  "sourcePath": "/Users/kmitg/AGH/blockchain/contracts/Hotel.sol",
  "compiler": {
    "name": "solc",
    "version": "0.8.17+commit.8df45f5f.Emscripten.clang"
  },
  "schemaVersion": "3.4.10",
  "updatedAt": "2022-11-27T13:06:53.836Z",
  "networkType": "ethereum",
  "devdoc": {
    "kind": "dev",
    "methods": {},
    "version": 1
  },
  "userdoc": {
    "kind": "user",
    "methods": {},
    "version": 1
  }
}