{
  "contractName": "Trips",
  "abi": [
    {
      "inputs": [
        {
          "internalType": "address",
          "name": "_recepient",
          "type": "address"
        }
      ],
      "stateMutability": "payable",
      "type": "constructor"
    },
    {
      "inputs": [],
      "name": "admin",
      "outputs": [
        {
          "internalType": "address payable",
          "name": "",
          "type": "address"
        }
      ],
      "stateMutability": "view",
      "type": "function"
    },
    {
      "inputs": [
        {
          "internalType": "uint256",
          "name": "",
          "type": "uint256"
        }
      ],
      "name": "clients",
      "outputs": [
        {
          "internalType": "address payable",
          "name": "client",
          "type": "address"
        },
        {
          "internalType": "uint256",
          "name": "room_number",
          "type": "uint256"
        },
        {
          "internalType": "uint256",
          "name": "reservation_id",
          "type": "uint256"
        }
      ],
      "stateMutability": "view",
      "type": "function"
    },
    {
      "inputs": [
        {
          "internalType": "uint256",
          "name": "_price",
          "type": "uint256"
        }
      ],
      "name": "change_price",
      "outputs": [],
      "stateMutability": "nonpayable",
      "type": "function"
    },
    {
      "inputs": [
        {
          "internalType": "uint256",
          "name": "_room_number",
          "type": "uint256"
        },
        {
          "internalType": "uint256",
          "name": "_reservation_id",
          "type": "uint256"
        }
      ],
      "name": "register_client",
      "outputs": [],
      "stateMutability": "payable",
      "type": "function"
    },
    {
      "inputs": [],
      "name": "list_clients",
      "outputs": [
        {
          "components": [
            {
              "internalType": "address payable",
              "name": "client",
              "type": "address"
            },
            {
              "internalType": "uint256",
              "name": "room_number",
              "type": "uint256"
            },
            {
              "internalType": "uint256",
              "name": "reservation_id",
              "type": "uint256"
            }
          ],
          "internalType": "struct Trips.Registrations[]",
          "name": "",
          "type": "tuple[]"
        }
      ],
      "stateMutability": "view",
      "type": "function"
    }
  ],
  "bytecode": "0x608060405260006001556040516109e33803806109e3833981810160405281019061002a91906100d3565b806000806101000a81548173ffffffffffffffffffffffffffffffffffffffff021916908373ffffffffffffffffffffffffffffffffffffffff16021790555050610100565b600080fd5b600073ffffffffffffffffffffffffffffffffffffffff82169050919050565b60006100a082610075565b9050919050565b6100b081610095565b81146100bb57600080fd5b50565b6000815190506100cd816100a7565b92915050565b6000602082840312156100e9576100e8610070565b5b60006100f7848285016100be565b91505092915050565b6108d48061010f6000396000f3fe60806040526004361061004a5760003560e01c8063352b81a11461004f578063bfdadc191461007a578063c220d79e146100a3578063f851a440146100bf578063f88af21d146100ea575b600080fd5b34801561005b57600080fd5b50610064610129565b60405161007191906105f3565b60405180910390f35b34801561008657600080fd5b506100a1600480360381019061009c9190610646565b6101f2565b005b6100bd60048036038101906100b89190610673565b61028a565b005b3480156100cb57600080fd5b506100d461042a565b6040516100e191906106c2565b60405180910390f35b3480156100f657600080fd5b50610111600480360381019061010c9190610646565b61044e565b604051610120939291906106ec565b60405180910390f35b60606002805480602002602001604051908101604052809291908181526020016000905b828210156101e957838290600052602060002090600302016040518060600160405290816000820160009054906101000a900473ffffffffffffffffffffffffffffffffffffffff1673ffffffffffffffffffffffffffffffffffffffff1673ffffffffffffffffffffffffffffffffffffffff168152602001600182015481526020016002820154815250508152602001906001019061014d565b50505050905090565b60008054906101000a900473ffffffffffffffffffffffffffffffffffffffff1673ffffffffffffffffffffffffffffffffffffffff163373ffffffffffffffffffffffffffffffffffffffff1614610280576040517f08c379a0000000000000000000000000000000000000000000000000000000008152600401610277906107a6565b60405180910390fd5b8060018190555050565b60015434146102ce576040517f08c379a00000000000000000000000000000000000000000000000000000000081526004016102c590610838565b60405180910390fd5b60008060009054906101000a900473ffffffffffffffffffffffffffffffffffffffff1673ffffffffffffffffffffffffffffffffffffffff163460405161031590610889565b60006040518083038185875af1925050503d8060008114610352576040519150601f19603f3d011682016040523d82523d6000602084013e610357565b606091505b50509050600115158115151461036c57600080fd5b600260405180606001604052803373ffffffffffffffffffffffffffffffffffffffff16815260200185815260200184815250908060018154018082558091505060019003906000526020600020906003020160009091909190915060008201518160000160006101000a81548173ffffffffffffffffffffffffffffffffffffffff021916908373ffffffffffffffffffffffffffffffffffffffff16021790555060208201518160010155604082015181600201555050505050565b60008054906101000a900473ffffffffffffffffffffffffffffffffffffffff1681565b6002818154811061045e57600080fd5b90600052602060002090600302016000915090508060000160009054906101000a900473ffffffffffffffffffffffffffffffffffffffff16908060010154908060020154905083565b600081519050919050565b600082825260208201905092915050565b6000819050602082019050919050565b600073ffffffffffffffffffffffffffffffffffffffff82169050919050565b60006104ff826104d4565b9050919050565b61050f816104f4565b82525050565b6000819050919050565b61052881610515565b82525050565b6060820160008201516105446000850182610506565b506020820151610557602085018261051f565b50604082015161056a604085018261051f565b50505050565b600061057c838361052e565b60608301905092915050565b6000602082019050919050565b60006105a0826104a8565b6105aa81856104b3565b93506105b5836104c4565b8060005b838110156105e65781516105cd8882610570565b97506105d883610588565b9250506001810190506105b9565b5085935050505092915050565b6000602082019050818103600083015261060d8184610595565b905092915050565b600080fd5b61062381610515565b811461062e57600080fd5b50565b6000813590506106408161061a565b92915050565b60006020828403121561065c5761065b610615565b5b600061066a84828501610631565b91505092915050565b6000806040838503121561068a57610689610615565b5b600061069885828601610631565b92505060206106a985828601610631565b9150509250929050565b6106bc816104f4565b82525050565b60006020820190506106d760008301846106b3565b92915050565b6106e681610515565b82525050565b600060608201905061070160008301866106b3565b61070e60208301856106dd565b61071b60408301846106dd565b949350505050565b600082825260208201905092915050565b7f596f75206d757374206265206120686f74656c2773206f776e657220746f206360008201527f68616e6765207468652070726963650000000000000000000000000000000000602082015250565b6000610790602f83610723565b915061079b82610734565b604082019050919050565b600060208201905081810360008301526107bf81610783565b9050919050565b7f496e636f72726563742076616c75652e20506c656173652073656e6420616d6f60008201527f756e7420657175616c20746f2074686520746f74616c2070726963652e000000602082015250565b6000610822603d83610723565b915061082d826107c6565b604082019050919050565b6000602082019050818103600083015261085181610815565b9050919050565b600081905092915050565b50565b6000610873600083610858565b915061087e82610863565b600082019050919050565b600061089482610866565b915081905091905056fea26469706673582212208fdfacad23a3a17a7249131c7a7ad3cc7f465a15cded0a7b46e37987492c341564736f6c63430008110033",
  "immutableReferences": {},
  "source": "// SPDX-License-Identifier: MIT\npragma solidity ^0.8.17;\n\ncontract Hotel {\n\n    Food                public contract_food;\n    Trips               public contract_trips;\n    Parties             public contract_parties;\n    AirportTransport    public contract_transport;\n    address payable public hotel_owner;\n\n    constructor() payable {\n        hotel_owner         = payable(msg.sender);\n\n        contract_food       = new Food(hotel_owner);\n        contract_trips      = new Trips(hotel_owner);\n        contract_parties    = new Parties(hotel_owner);\n        contract_transport  = new AirportTransport(hotel_owner);\n    }\n\n    struct Room {\n        uint room_number;\n        uint single_beds;\n        uint double_beds;\n        uint price_for_night;\n    }\n\n    struct RoomReservation {\n        uint start_date;\n        uint stop_date;\n        uint total_price;\n        uint room_number;\n        address payable guest;\n    }\n\n    mapping (uint => Room) public rooms;\n    mapping (uint => RoomReservation[]) public reservations;\n    uint[] rooms_numbers;\n\n    function check_if_room_exists(uint _room_number) private view returns(bool) {\n        uint num;\n        for (uint i = 0; i < rooms_numbers.length; i++) {\n            num = rooms_numbers[i];\n            if (num == _room_number) {\n                return true;\n            }\n        }\n        return false;\n    }\n\n    function add_room (uint _room_number, uint _single_beds, uint _double_beds, uint _price) public {\n        // Only the hotel owner can add a room\n        require(msg.sender == hotel_owner, \"You must be the hotel's owner\");\n        bool room_exists = check_if_room_exists(_room_number);\n        require(room_exists == false, \"Room already exists\");\n        rooms[_room_number] = Room(_room_number, _single_beds, _double_beds, _price);\n        rooms_numbers.push(_room_number);\n    }\n\n    function reserve_room (uint _start, uint _stop, uint _room_number) payable public { \n        bool room_exists = check_if_room_exists(_room_number);\n        require(room_exists == true, \"Room does not exists\");\n        // check if room is not reserved during this time\n        uint counter = reservations[_room_number].length;\n        for (uint i=0; i<counter; i++){\n            require(_stop <= reservations[_room_number][i].start_date || _stop > reservations[_room_number][i].stop_date, \"Room is already reserved that day\");\n            require(_start < reservations[_room_number][i].start_date || _start >= reservations[_room_number][i].stop_date, \"Room is already reserved that day\");\n        }\n\n        uint days_total = uint((((_stop - _start) / 60) / 60) / 24);\n        uint price_total = days_total * rooms[_room_number].price_for_night;\n        require (msg.value == price_total, \"Incorrect value. Please send amount equal to the total price.\");\n        (bool success,) = hotel_owner.call{value: msg.value}(\"\");\n        require(success == true);\n\n        reservations[_room_number].push(RoomReservation(_start, _stop, price_total, _room_number, payable(msg.sender)));\n    }\n\n    function list_rooms () public view returns(Room[] memory) {\n        uint len = rooms_numbers.length;\n        Room[] memory rooms_export = new Room[](len);\n        uint num;\n        uint ind = 0;\n        for (uint i = 0; i < rooms_numbers.length; i++) {\n            num = rooms_numbers[i];\n            rooms_export[ind] = (rooms[num]);\n            ind = ind + 1;\n        }\n        return rooms_export;\n    }\n\n    function list_room_reservations (uint _room_number) public view returns(RoomReservation[] memory) {\n        return reservations[_room_number];\n    }\n\n\n}\n\ncontract Food {\n\n    address payable public admin;\n    uint price = 0;\n\n    constructor(address _recepient) payable {\n        admin = payable(_recepient);\n    }\n\n    function change_price (uint _price) public {\n        require(msg.sender == admin, \"You must be a hotel's owner to change the price\");\n        price = _price;\n    }\n\n\n    struct Registrations {\n        address payable client;\n        uint room_number;\n        uint reservation_id;\n    }\n\n    Registrations[] public clients;\n\n    function register_client (uint _room_number, uint _reservation_id) payable public {\n        require (msg.value == price, \"Incorrect value. Please send amount equal to the total price.\");\n        (bool success,) = admin.call{value: msg.value}(\"\");\n        require(success == true);\n        clients.push(Registrations(payable(msg.sender), _room_number, _reservation_id));\n    }\n\n    function list_clients () public view returns(Registrations[] memory) {\n        return clients;\n    }\n\n}\n\n\ncontract AirportTransport {\n\n    address payable public admin;\n    uint price = 0;\n\n    constructor(address _recepient) payable {\n        admin = payable(_recepient);\n    }\n\n    function change_price (uint _price) public {\n        require(msg.sender == admin, \"You must be a hotel's owner to change the price\");\n        price = _price;\n    }\n\n\n    struct Registrations {\n        address payable client;\n        uint room_number;\n        uint reservation_id;\n    }\n\n    Registrations[] public clients;\n\n    function register_client (uint _room_number, uint _reservation_id) payable public {\n        require (msg.value == price, \"Incorrect value. Please send amount equal to the total price.\");\n        (bool success,) = admin.call{value: msg.value}(\"\");\n        require(success == true);\n        clients.push(Registrations(payable(msg.sender), _room_number, _reservation_id));\n    }\n\n    function list_clients () public view returns(Registrations[] memory) {\n        return clients;\n    }\n\n}\n\n\ncontract Parties {\n\n    address payable public admin;\n    uint price = 0;\n\n    constructor(address _recepient) payable {\n        admin = payable(_recepient);\n    }\n\n    function change_price (uint _price) public {\n        require(msg.sender == admin, \"You must be a hotel's owner to change the price\");\n        price = _price;\n    }\n\n\n    struct Registrations {\n        address payable client;\n        uint room_number;\n        uint reservation_id;\n    }\n\n    Registrations[] public clients;\n\n    function register_client (uint _room_number, uint _reservation_id) payable public {\n        require (msg.value == price, \"Incorrect value. Please send amount equal to the total price.\");\n        (bool success,) = admin.call{value: msg.value}(\"\");\n        require(success == true);\n        clients.push(Registrations(payable(msg.sender), _room_number, _reservation_id));\n    }\n\n    function list_clients () public view returns(Registrations[] memory) {\n        return clients;\n    }\n\n}\n\ncontract Trips {\n\n    address payable public admin;\n    uint price = 0;\n\n    constructor(address _recepient) payable {\n        admin = payable(_recepient);\n    }\n\n    function change_price (uint _price) public {\n        require(msg.sender == admin, \"You must be a hotel's owner to change the price\");\n        price = _price;\n    }\n\n\n    struct Registrations {\n        address payable client;\n        uint room_number;\n        uint reservation_id;\n    }\n\n    Registrations[] public clients;\n\n    function register_client (uint _room_number, uint _reservation_id) payable public {\n        require (msg.value == price, \"Incorrect value. Please send amount equal to the total price.\");\n        (bool success,) = admin.call{value: msg.value}(\"\");\n        require(success == true);\n        clients.push(Registrations(payable(msg.sender), _room_number, _reservation_id));\n    }\n\n    function list_clients () public view returns(Registrations[] memory) {\n        return clients;\n    }\n\n}",
  "sourcePath": "/home/pawel/AGH/blockchain/blockchain/contracts/Hotel.sol",
  "compiler": {
    "name": "solc",
    "version": "0.8.17+commit.8df45f5f.Emscripten.clang"
  },
  "schemaVersion": "3.4.10",
  "updatedAt": "2022-11-27T17:34:21.951Z",
  "devdoc": {
    "kind": "dev",
    "methods": {},
    "version": 1
  },
  "userdoc": {
    "kind": "user",
    "methods": {},
    "version": 1
  }
}