{
  "contractName": "Trips",
  "abi": [
    {
      "inputs": [
        {
          "internalType": "uint256",
          "name": "",
          "type": "uint256"
        }
      ],
      "name": "clients",
      "outputs": [
        {
          "internalType": "address payable",
          "name": "client",
          "type": "address"
        }
      ],
      "stateMutability": "view",
      "type": "function"
    },
    {
      "inputs": [
        {
          "internalType": "address payable",
          "name": "_client",
          "type": "address"
        }
      ],
      "name": "register_client",
      "outputs": [],
      "stateMutability": "nonpayable",
      "type": "function"
    }
  ],
  "bytecode": "0x608060405234801561001057600080fd5b506102bc806100206000396000f3fe608060405234801561001057600080fd5b50600436106100365760003560e01c8063489e0cf11461003b578063f88af21d14610057575b600080fd5b610055600480360381019061005091906101cc565b610087565b005b610071600480360381019061006c919061022f565b61011f565b60405161007e919061026b565b60405180910390f35b600060405180602001604052808373ffffffffffffffffffffffffffffffffffffffff168152509080600181540180825580915050600190039060005260206000200160009091909190915060008201518160000160006101000a81548173ffffffffffffffffffffffffffffffffffffffff021916908373ffffffffffffffffffffffffffffffffffffffff160217905550505050565b6000818154811061012f57600080fd5b906000526020600020016000915090508060000160009054906101000a900473ffffffffffffffffffffffffffffffffffffffff16905081565b600080fd5b600073ffffffffffffffffffffffffffffffffffffffff82169050919050565b60006101998261016e565b9050919050565b6101a98161018e565b81146101b457600080fd5b50565b6000813590506101c6816101a0565b92915050565b6000602082840312156101e2576101e1610169565b5b60006101f0848285016101b7565b91505092915050565b6000819050919050565b61020c816101f9565b811461021757600080fd5b50565b60008135905061022981610203565b92915050565b60006020828403121561024557610244610169565b5b60006102538482850161021a565b91505092915050565b6102658161018e565b82525050565b6000602082019050610280600083018461025c565b9291505056fea2646970667358221220b1f4e274583f32341d1992e5240a4d4d0de1ccb2bf054b63d4c56affe39a7ce764736f6c63430008110033",
  "immutableReferences": {},
  "source": "// SPDX-License-Identifier: MIT\npragma solidity ^0.8.17;\n\ncontract Hotel {\n\n    Food                public contract_food;\n    Trips               public contract_trips;\n    Parties             public contract_parties;\n    AirportTransport    public contract_transport;\n    address payable public hotel_owner;\n\n    constructor() payable {\n        contract_food       = new Food();\n        contract_trips      = new Trips();\n        contract_parties    = new Parties();\n        contract_transport  = new AirportTransport();\n\n        hotel_owner = payable(msg.sender);\n    }\n\n    struct Room {\n        uint room_number;\n        uint single_beds;\n        uint double_beds;\n        uint price_for_night;\n        uint class;\n    }\n\n    struct RoomReservation {\n        uint start_date;\n        uint stop_date;\n        uint total_price;\n        uint room_number;\n        address payable guest;\n    }\n\n    Room[] rooms;\n    mapping (uint => RoomReservation[]) reservations;\n\n    function add_room (uint _room_number, uint _single_beds, uint _double_beds, uint _price, uint _class) public {\n        // Only the hotel owner can add a room\n        require(msg.sender == hotel_owner);\n        rooms.push(Room(_room_number, _single_beds, _double_beds, _price, _class));\n    }\n\n    function reserve_room (uint _start, uint _stop, uint _room_number) public payable { \n        // check if room is not reserved during this time\n        uint counter = reservations[_room_number].length;\n        for (uint i=0; i<counter; i++){\n            require(_stop <= reservations[_room_number][i].start_date || _stop > reservations[_room_number][i].stop_date);\n            require(_start < reservations[_room_number][i].start_date || _start >= reservations[_room_number][i].stop_date);\n        }\n\n        uint days_total = (_stop - _start) / 60 / 60 / 24;\n        uint price_total = days_total * rooms[_room_number].price_for_night;\n        require (msg.value == price_total, \"Incorrect value. Please send amount equal to the total price.\");\n        (bool success,) = hotel_owner.call{value: msg.value}(\"\");\n        require(success == true);\n\n        reservations[_room_number].push(RoomReservation(_start, _stop, price_total, _room_number, payable(msg.sender)));\n    }\n\n    function list_rooms () public view returns(Room[] memory) {\n        return rooms;\n    }\n\n    function list_room_reservations (uint _room_number) public view returns(RoomReservation[] memory) {\n        return reservations[_room_number];\n    }\n\n\n}\n\ncontract Food {\n\n    struct Registrations {\n        address payable client;\n    }\n\n    Registrations[] public clients;\n\n    function register_client (address payable _client) public {\n        clients.push(Registrations(_client));\n    }\n\n}\n\ncontract Trips {\n\n    struct Registrations {\n        address payable client;\n    }\n\n    Registrations[] public clients;\n\n    function register_client (address payable _client) public {\n        clients.push(Registrations(_client));\n    }\n\n}\n\ncontract Parties {\n\n    struct Registrations {\n        address payable client;\n    }\n\n    Registrations[] public clients;\n\n    function register_client (address payable _client) public {\n        clients.push(Registrations(_client));\n    }\n\n}\n\ncontract AirportTransport {\n\n    struct Registrations {\n        address payable client;\n    }\n\n    Registrations[] public clients;\n\n    function register_client (address payable _client) public {\n        clients.push(Registrations(_client));\n    }\n\n}",
  "sourcePath": "/Users/kmitg/AGH/blockchain/contracts/Hotel.sol",
  "compiler": {
    "name": "solc",
    "version": "0.8.17+commit.8df45f5f.Emscripten.clang"
  },
  "schemaVersion": "3.4.10",
  "updatedAt": "2022-11-25T12:02:41.784Z",
  "devdoc": {
    "kind": "dev",
    "methods": {},
    "version": 1
  },
  "userdoc": {
    "kind": "user",
    "methods": {},
    "version": 1
  }
}