{
  "contractName": "Insurrance",
  "abi": [
    {
      "inputs": [
        {
          "internalType": "uint256",
          "name": "",
          "type": "uint256"
        }
      ],
      "name": "clients",
      "outputs": [
        {
          "internalType": "address payable",
          "name": "client",
          "type": "address"
        },
        {
          "internalType": "string",
          "name": "location",
          "type": "string"
        }
      ],
      "stateMutability": "view",
      "type": "function"
    },
    {
      "inputs": [
        {
          "internalType": "address payable",
          "name": "_client",
          "type": "address"
        },
        {
          "internalType": "string",
          "name": "_location",
          "type": "string"
        }
      ],
      "name": "register_client",
      "outputs": [],
      "stateMutability": "nonpayable",
      "type": "function"
    },
    {
      "inputs": [],
      "name": "list_clients",
      "outputs": [
        {
          "components": [
            {
              "internalType": "address payable",
              "name": "client",
              "type": "address"
            },
            {
              "internalType": "string",
              "name": "location",
              "type": "string"
            }
          ],
          "internalType": "struct Insurrance.Registrations[]",
          "name": "",
          "type": "tuple[]"
        }
      ],
      "stateMutability": "view",
      "type": "function"
    }
  ],
  "bytecode": "0x608060405234801561001057600080fd5b50610b50806100206000396000f3fe608060405234801561001057600080fd5b50600436106100415760003560e01c8063352b81a114610046578063623b264b14610064578063f88af21d14610080575b600080fd5b61004e6100b1565b60405161005b919061055d565b60405180910390f35b61007e600480360381019061007991906106f4565b6101f8565b005b61009a60048036038101906100959190610786565b6102b1565b6040516100a892919061080c565b60405180910390f35b60606000805480602002602001604051908101604052809291908181526020016000905b828210156101ef57838290600052602060002090600202016040518060400160405290816000820160009054906101000a900473ffffffffffffffffffffffffffffffffffffffff1673ffffffffffffffffffffffffffffffffffffffff1673ffffffffffffffffffffffffffffffffffffffff16815260200160018201805461015e9061086b565b80601f016020809104026020016040519081016040528092919081815260200182805461018a9061086b565b80156101d75780601f106101ac576101008083540402835291602001916101d7565b820191906000526020600020905b8154815290600101906020018083116101ba57829003601f168201915b505050505081525050815260200190600101906100d5565b50505050905090565b600060405180604001604052808473ffffffffffffffffffffffffffffffffffffffff16815260200183815250908060018154018082558091505060019003906000526020600020906002020160009091909190915060008201518160000160006101000a81548173ffffffffffffffffffffffffffffffffffffffff021916908373ffffffffffffffffffffffffffffffffffffffff16021790555060208201518160010190816102aa9190610a48565b5050505050565b600081815481106102c157600080fd5b90600052602060002090600202016000915090508060000160009054906101000a900473ffffffffffffffffffffffffffffffffffffffff169080600101805461030a9061086b565b80601f01602080910402602001604051908101604052809291908181526020018280546103369061086b565b80156103835780601f1061035857610100808354040283529160200191610383565b820191906000526020600020905b81548152906001019060200180831161036657829003601f168201915b5050505050905082565b600081519050919050565b600082825260208201905092915050565b6000819050602082019050919050565b600073ffffffffffffffffffffffffffffffffffffffff82169050919050565b60006103e4826103b9565b9050919050565b6103f4816103d9565b82525050565b600081519050919050565b600082825260208201905092915050565b60005b83811015610434578082015181840152602081019050610419565b60008484015250505050565b6000601f19601f8301169050919050565b600061045c826103fa565b6104668185610405565b9350610476818560208601610416565b61047f81610440565b840191505092915050565b60006040830160008301516104a260008601826103eb565b50602083015184820360208601526104ba8282610451565b9150508091505092915050565b60006104d3838361048a565b905092915050565b6000602082019050919050565b60006104f38261038d565b6104fd8185610398565b93508360208202850161050f856103a9565b8060005b8581101561054b578484038952815161052c85826104c7565b9450610537836104db565b925060208a01995050600181019050610513565b50829750879550505050505092915050565b6000602082019050818103600083015261057781846104e8565b905092915050565b6000604051905090565b600080fd5b600080fd5b61059c816103d9565b81146105a757600080fd5b50565b6000813590506105b981610593565b92915050565b600080fd5b600080fd5b7f4e487b7100000000000000000000000000000000000000000000000000000000600052604160045260246000fd5b61060182610440565b810181811067ffffffffffffffff821117156106205761061f6105c9565b5b80604052505050565b600061063361057f565b905061063f82826105f8565b919050565b600067ffffffffffffffff82111561065f5761065e6105c9565b5b61066882610440565b9050602081019050919050565b82818337600083830152505050565b600061069761069284610644565b610629565b9050828152602081018484840111156106b3576106b26105c4565b5b6106be848285610675565b509392505050565b600082601f8301126106db576106da6105bf565b5b81356106eb848260208601610684565b91505092915050565b6000806040838503121561070b5761070a610589565b5b6000610719858286016105aa565b925050602083013567ffffffffffffffff81111561073a5761073961058e565b5b610746858286016106c6565b9150509250929050565b6000819050919050565b61076381610750565b811461076e57600080fd5b50565b6000813590506107808161075a565b92915050565b60006020828403121561079c5761079b610589565b5b60006107aa84828501610771565b91505092915050565b6107bc816103d9565b82525050565b600082825260208201905092915050565b60006107de826103fa565b6107e881856107c2565b93506107f8818560208601610416565b61080181610440565b840191505092915050565b600060408201905061082160008301856107b3565b818103602083015261083381846107d3565b90509392505050565b7f4e487b7100000000000000000000000000000000000000000000000000000000600052602260045260246000fd5b6000600282049050600182168061088357607f821691505b6020821081036108965761089561083c565b5b50919050565b60008190508160005260206000209050919050565b60006020601f8301049050919050565b600082821b905092915050565b6000600883026108fe7fffffffffffffffffffffffffffffffffffffffffffffffffffffffffffffffff826108c1565b61090886836108c1565b95508019841693508086168417925050509392505050565b6000819050919050565b600061094561094061093b84610750565b610920565b610750565b9050919050565b6000819050919050565b61095f8361092a565b61097361096b8261094c565b8484546108ce565b825550505050565b600090565b61098861097b565b610993818484610956565b505050565b5b818110156109b7576109ac600082610980565b600181019050610999565b5050565b601f8211156109fc576109cd8161089c565b6109d6846108b1565b810160208510156109e5578190505b6109f96109f1856108b1565b830182610998565b50505b505050565b600082821c905092915050565b6000610a1f60001984600802610a01565b1980831691505092915050565b6000610a388383610a0e565b9150826002028217905092915050565b610a51826103fa565b67ffffffffffffffff811115610a6a57610a696105c9565b5b610a74825461086b565b610a7f8282856109bb565b600060209050601f831160018114610ab25760008415610aa0578287015190505b610aaa8582610a2c565b865550610b12565b601f198416610ac08661089c565b60005b82811015610ae857848901518255600182019150602085019450602081019050610ac3565b86831015610b055784890151610b01601f891682610a0e565b8355505b6001600288020188555050505b50505050505056fea2646970667358221220e2a51ca2ee89939443a3d218f5baf58c89db0d66bb029f4193aedecea338337264736f6c63430008110033",
  "immutableReferences": {},
  "source": "// SPDX-License-Identifier: MIT\npragma solidity ^0.8.17;\n\ncontract Apartment {\n\n    Insurrance      public contract_insurance;\n    Electricity     public contract_electricity;\n    GarbageDisposal public contract_garbage;\n    Gas             public contract_gas;\n    WaterConnection public contract_water;\n\n    constructor() payable {\n        contract_insurance      = new Insurrance();\n        contract_electricity    = new Electricity();\n        contract_garbage        = new GarbageDisposal();\n        contract_gas            = new Gas();\n        contract_water          = new WaterConnection();\n    }\n\n    struct Apartments {\n        string location;\n        uint price;\n        bool sold;\n        address payable seller;\n        address payable buyer;\n    }\n\n    Apartments[] public apartments;\n\n    function list() public view returns(Apartments[] memory){\n        return apartments;\n    }\n\n\n    function add_apartment(string calldata location, uint price) public {\n        apartments.push(Apartments(location, price, false, payable(msg.sender), payable(0)));\n    }\n\n    function register_insurrance(address payable _client, string memory _location) private {\n        contract_insurance.register_client(_client, _location);\n    }\n\n    function register_water(address payable _client, string memory _location) private {\n        contract_water.register_client(_client, _location);\n    }\n\n    function register_gas(address payable _client, string memory _location) private {\n        contract_gas.register_client(_client, _location);\n    }\n\n    function register_electricity(address payable _client, string memory _location) private {\n        contract_electricity.register_client(_client, _location);\n    }\n\n    function register_garbage(address payable _client, string memory _location) private {\n        contract_garbage.register_client(_client, _location);\n    }\n\n\n    function buy_apartment(uint _index) public payable {\n        Apartments storage apart = apartments[_index];\n\n        require (!apart.sold, \"Item already sold.\");\n        require (msg.value == apart.price, \"Incorrect value. Please send amount equal to announcement price.\");\n        (bool success,) = apart.seller.call{value: msg.value}(\"\");\n        require(success, \"Failed to send money\");\n        apart.sold = true;\n        apart.buyer = payable(msg.sender);\n\n        register_insurrance(apart.buyer, apart.location);\n        register_electricity(apart.buyer, apart.location);\n        register_garbage(apart.buyer, apart.location);\n        register_gas(apart.buyer, apart.location);\n        register_water(apart.buyer, apart.location);\n\n    }\n\n}\n\ncontract Electricity {\n\n    struct Registrations {\n        address payable client;\n        string location;\n    }\n\n    Registrations[] public clients;\n\n    function register_client (address payable _client, string memory _location) public {\n        clients.push(Registrations(_client, _location));\n    }\n\n    function list_clients() public view returns(Registrations[] memory){\n        return clients;\n    }\n\n}\n\ncontract GarbageDisposal {\n\n    struct Registrations {\n        address payable client;\n        string location;\n    }\n\n    Registrations[] public clients;\n\n    function register_client (address payable _client, string memory _location) public {\n        clients.push(Registrations(_client, _location));\n    }\n\n    function list_clients() public view returns(Registrations[] memory) {\n        return clients;\n    }\n\n}\n\ncontract Gas {\n\n    struct Registrations {\n        address payable client;\n        string location;\n    }\n\n    Registrations[] public clients;\n\n    function register_client (address payable _client, string memory _location) public {\n        clients.push(Registrations(_client, _location));\n    }\n\n    function list_clients() public view returns(Registrations[] memory) {\n        return clients;\n    }\n\n}\n\ncontract Insurrance {\n\n    struct Registrations {\n        address payable client;\n        string location;\n    }\n\n    Registrations[] public clients;\n\n    function register_client (address payable _client, string memory _location) public {\n        clients.push(Registrations(_client, _location));\n    }\n\n    function list_clients() public view returns(Registrations[] memory) {\n        return clients;\n    }\n\n}\n\ncontract WaterConnection {\n\n    struct Registrations {\n        address payable client;\n        string location;\n    }\n\n    Registrations[] public clients;\n\n    function register_client (address payable _client, string memory _location) public {\n        clients.push(Registrations(_client, _location));\n    }\n\n    function list_clients() public view returns(Registrations[] memory) {\n        return clients;\n    }\n\n}",
  "sourcePath": "/home/pawel/AGH/blockchain/blockchain/contracts/Apartment.sol",
  "compiler": {
    "name": "solc",
    "version": "0.8.17+commit.8df45f5f.Emscripten.clang"
  },
  "schemaVersion": "3.4.10",
  "updatedAt": "2022-11-27T18:44:41.547Z",
  "devdoc": {
    "kind": "dev",
    "methods": {},
    "version": 1
  },
  "userdoc": {
    "kind": "user",
    "methods": {},
    "version": 1
  }
}