{
  "contractName": "Announcement",
  "abi": [
    {
      "inputs": [
        {
          "internalType": "uint256",
          "name": "",
          "type": "uint256"
        }
      ],
      "name": "anns",
      "outputs": [
        {
          "internalType": "string",
          "name": "name",
          "type": "string"
        },
        {
          "internalType": "uint256",
          "name": "price",
          "type": "uint256"
        },
        {
          "internalType": "address payable",
          "name": "creator",
          "type": "address"
        },
        {
          "internalType": "bool",
          "name": "sold",
          "type": "bool"
        },
        {
          "internalType": "address payable",
          "name": "buyer",
          "type": "address"
        },
        {
          "internalType": "bool",
          "name": "refunded",
          "type": "bool"
        }
      ],
      "stateMutability": "view",
      "type": "function",
      "constant": true
    },
    {
      "inputs": [],
      "name": "list",
      "outputs": [
        {
          "components": [
            {
              "internalType": "string",
              "name": "name",
              "type": "string"
            },
            {
              "internalType": "uint256",
              "name": "price",
              "type": "uint256"
            },
            {
              "internalType": "address payable",
              "name": "creator",
              "type": "address"
            },
            {
              "internalType": "bool",
              "name": "sold",
              "type": "bool"
            },
            {
              "internalType": "address payable",
              "name": "buyer",
              "type": "address"
            },
            {
              "internalType": "bool",
              "name": "refunded",
              "type": "bool"
            }
          ],
          "internalType": "struct Announcement.Ann[]",
          "name": "",
          "type": "tuple[]"
        }
      ],
      "stateMutability": "view",
      "type": "function",
      "constant": true
    },
    {
      "inputs": [
        {
          "internalType": "string",
          "name": "name",
          "type": "string"
        },
        {
          "internalType": "uint256",
          "name": "price",
          "type": "uint256"
        }
      ],
      "name": "add",
      "outputs": [],
      "stateMutability": "nonpayable",
      "type": "function"
    },
    {
      "inputs": [
        {
          "internalType": "uint256",
          "name": "_index",
          "type": "uint256"
        }
      ],
      "name": "pay",
      "outputs": [],
      "stateMutability": "payable",
      "type": "function",
      "payable": true
    },
    {
      "inputs": [
        {
          "internalType": "uint256",
          "name": "_index",
          "type": "uint256"
        }
      ],
      "name": "refund",
      "outputs": [],
      "stateMutability": "payable",
      "type": "function",
      "payable": true
    },
    {
      "inputs": [],
      "name": "AnnsLength",
      "outputs": [
        {
          "internalType": "uint256",
          "name": "",
          "type": "uint256"
        }
      ],
      "stateMutability": "view",
      "type": "function",
      "constant": true
    }
  ],
  "bytecode": "0x608060405234801561001057600080fd5b506115d2806100206000396000f3fe6080604052600436106100555760003560e01c80630f560cd71461005a5780631cbfdfe014610085578063278ecde1146100c757806336555b85146100e35780637d1b4ac61461010c578063c290d69114610137575b600080fd5b34801561006657600080fd5b5061006f610153565b60405161007c9190610d02565b60405180910390f35b34801561009157600080fd5b506100ac60048036038101906100a79190610d5a565b610330565b6040516100be96959493929190610dfe565b60405180910390f35b6100e160048036038101906100dc9190610d5a565b61045e565b005b3480156100ef57600080fd5b5061010a60048036038101906101059190610ecb565b6106f0565b005b34801561011857600080fd5b506101216108b4565b60405161012e9190610f2b565b60405180910390f35b610151600480360381019061014c9190610d5a565b6108c0565b005b60606000805480602002602001604051908101604052809291908181526020016000905b8282101561032757838290600052602060002090600402016040518060c00160405290816000820180546101aa90610f75565b80601f01602080910402602001604051908101604052809291908181526020018280546101d690610f75565b80156102235780601f106101f857610100808354040283529160200191610223565b820191906000526020600020905b81548152906001019060200180831161020657829003601f168201915b50505050508152602001600182015481526020016002820160009054906101000a900473ffffffffffffffffffffffffffffffffffffffff1673ffffffffffffffffffffffffffffffffffffffff1673ffffffffffffffffffffffffffffffffffffffff1681526020016002820160149054906101000a900460ff161515151581526020016003820160009054906101000a900473ffffffffffffffffffffffffffffffffffffffff1673ffffffffffffffffffffffffffffffffffffffff1673ffffffffffffffffffffffffffffffffffffffff1681526020016003820160149054906101000a900460ff16151515158152505081526020019060010190610177565b50505050905090565b6000818154811061034057600080fd5b906000526020600020906004020160009150905080600001805461036390610f75565b80601f016020809104026020016040519081016040528092919081815260200182805461038f90610f75565b80156103dc5780601f106103b1576101008083540402835291602001916103dc565b820191906000526020600020905b8154815290600101906020018083116103bf57829003601f168201915b5050505050908060010154908060020160009054906101000a900473ffffffffffffffffffffffffffffffffffffffff16908060020160149054906101000a900460ff16908060030160009054906101000a900473ffffffffffffffffffffffffffffffffffffffff16908060030160149054906101000a900460ff16905086565b600080828154811061047357610472610fa6565b5b906000526020600020906004020190508060020160149054906101000a900460ff166104d4576040517f08c379a00000000000000000000000000000000000000000000000000000000081526004016104cb90611021565b60405180910390fd5b8060030160149054906101000a900460ff1615610526576040517f08c379a000000000000000000000000000000000000000000000000000000000815260040161051d9061108d565b60405180910390fd5b8060020160009054906101000a900473ffffffffffffffffffffffffffffffffffffffff1673ffffffffffffffffffffffffffffffffffffffff163373ffffffffffffffffffffffffffffffffffffffff16146105b8576040517f08c379a00000000000000000000000000000000000000000000000000000000081526004016105af9061111f565b60405180910390fd5b806001015434146105fe576040517f08c379a00000000000000000000000000000000000000000000000000000000081526004016105f5906111b1565b60405180910390fd5b60008160030160009054906101000a900473ffffffffffffffffffffffffffffffffffffffff1673ffffffffffffffffffffffffffffffffffffffff163460405161064890611202565b60006040518083038185875af1925050503d8060008114610685576040519150601f19603f3d011682016040523d82523d6000602084013e61068a565b606091505b50509050806106ce576040517f08c379a00000000000000000000000000000000000000000000000000000000081526004016106c590611263565b60405180910390fd5b60018260030160146101000a81548160ff021916908315150217905550505050565b60006040518060c0016040528085858080601f016020809104026020016040519081016040528093929190818152602001838380828437600081840152601f19601f8201169050808301925050505050505081526020018381526020013373ffffffffffffffffffffffffffffffffffffffff168152602001600015158152602001600073ffffffffffffffffffffffffffffffffffffffff16815260200160001515815250908060018154018082558091505060019003906000526020600020906004020160009091909190915060008201518160000190816107d4919061145e565b506020820151816001015560408201518160020160006101000a81548173ffffffffffffffffffffffffffffffffffffffff021916908373ffffffffffffffffffffffffffffffffffffffff16021790555060608201518160020160146101000a81548160ff02191690831515021790555060808201518160030160006101000a81548173ffffffffffffffffffffffffffffffffffffffff021916908373ffffffffffffffffffffffffffffffffffffffff16021790555060a08201518160030160146101000a81548160ff0219169083151502179055505050505050565b60008080549050905090565b60008082815481106108d5576108d4610fa6565b5b906000526020600020906004020190508060020160149054906101000a900460ff1615610937576040517f08c379a000000000000000000000000000000000000000000000000000000000815260040161092e9061157c565b60405180910390fd5b8060010154341461097d576040517f08c379a0000000000000000000000000000000000000000000000000000000008152600401610974906111b1565b60405180910390fd5b60008160020160009054906101000a900473ffffffffffffffffffffffffffffffffffffffff1673ffffffffffffffffffffffffffffffffffffffff16346040516109c790611202565b60006040518083038185875af1925050503d8060008114610a04576040519150601f19603f3d011682016040523d82523d6000602084013e610a09565b606091505b5050905080610a4d576040517f08c379a0000000000000000000000000000000000000000000000000000000008152600401610a4490611263565b60405180910390fd5b60018260020160146101000a81548160ff021916908315150217905550338260030160006101000a81548173ffffffffffffffffffffffffffffffffffffffff021916908373ffffffffffffffffffffffffffffffffffffffff160217905550505050565b600081519050919050565b600082825260208201905092915050565b6000819050602082019050919050565b600081519050919050565b600082825260208201905092915050565b60005b83811015610b18578082015181840152602081019050610afd565b60008484015250505050565b6000601f19601f8301169050919050565b6000610b4082610ade565b610b4a8185610ae9565b9350610b5a818560208601610afa565b610b6381610b24565b840191505092915050565b6000819050919050565b610b8181610b6e565b82525050565b600073ffffffffffffffffffffffffffffffffffffffff82169050919050565b6000610bb282610b87565b9050919050565b610bc281610ba7565b82525050565b60008115159050919050565b610bdd81610bc8565b82525050565b600060c0830160008301518482036000860152610c008282610b35565b9150506020830151610c156020860182610b78565b506040830151610c286040860182610bb9565b506060830151610c3b6060860182610bd4565b506080830151610c4e6080860182610bb9565b5060a0830151610c6160a0860182610bd4565b508091505092915050565b6000610c788383610be3565b905092915050565b6000602082019050919050565b6000610c9882610ab2565b610ca28185610abd565b935083602082028501610cb485610ace565b8060005b85811015610cf05784840389528151610cd18582610c6c565b9450610cdc83610c80565b925060208a01995050600181019050610cb8565b50829750879550505050505092915050565b60006020820190508181036000830152610d1c8184610c8d565b905092915050565b600080fd5b600080fd5b610d3781610b6e565b8114610d4257600080fd5b50565b600081359050610d5481610d2e565b92915050565b600060208284031215610d7057610d6f610d24565b5b6000610d7e84828501610d45565b91505092915050565b600082825260208201905092915050565b6000610da382610ade565b610dad8185610d87565b9350610dbd818560208601610afa565b610dc681610b24565b840191505092915050565b610dda81610b6e565b82525050565b610de981610ba7565b82525050565b610df881610bc8565b82525050565b600060c0820190508181036000830152610e188189610d98565b9050610e276020830188610dd1565b610e346040830187610de0565b610e416060830186610def565b610e4e6080830185610de0565b610e5b60a0830184610def565b979650505050505050565b600080fd5b600080fd5b600080fd5b60008083601f840112610e8b57610e8a610e66565b5b8235905067ffffffffffffffff811115610ea857610ea7610e6b565b5b602083019150836001820283011115610ec457610ec3610e70565b5b9250929050565b600080600060408486031215610ee457610ee3610d24565b5b600084013567ffffffffffffffff811115610f0257610f01610d29565b5b610f0e86828701610e75565b93509350506020610f2186828701610d45565b9150509250925092565b6000602082019050610f406000830184610dd1565b92915050565b7f4e487b7100000000000000000000000000000000000000000000000000000000600052602260045260246000fd5b60006002820490506001821680610f8d57607f821691505b602082108103610fa057610f9f610f46565b5b50919050565b7f4e487b7100000000000000000000000000000000000000000000000000000000600052603260045260246000fd5b7f4974656d206e6f7420736f6c642e000000000000000000000000000000000000600082015250565b600061100b600e83610d87565b915061101682610fd5565b602082019050919050565b6000602082019050818103600083015261103a81610ffe565b9050919050565b7f4974656d20616c726561647920726566756e6465642e00000000000000000000600082015250565b6000611077601683610d87565b915061108282611041565b602082019050919050565b600060208201905081810360008301526110a68161106a565b9050919050565b7f4f6e6c7920616e6e6f756e63656d656e742063726561746f722063616e20726560008201527f66756e64206d6f6e65792e000000000000000000000000000000000000000000602082015250565b6000611109602b83610d87565b9150611114826110ad565b604082019050919050565b60006020820190508181036000830152611138816110fc565b9050919050565b7f496e636f72726563742076616c75652e20506c656173652073656e6420616d6f60008201527f756e7420657175616c20746f20616e6e6f756e63656d656e742070726963652e602082015250565b600061119b604083610d87565b91506111a68261113f565b604082019050919050565b600060208201905081810360008301526111ca8161118e565b9050919050565b600081905092915050565b50565b60006111ec6000836111d1565b91506111f7826111dc565b600082019050919050565b600061120d826111df565b9150819050919050565b7f4661696c656420746f2073656e64206d6f6e6579000000000000000000000000600082015250565b600061124d601483610d87565b915061125882611217565b602082019050919050565b6000602082019050818103600083015261127c81611240565b9050919050565b7f4e487b7100000000000000000000000000000000000000000000000000000000600052604160045260246000fd5b60008190508160005260206000209050919050565b60006020601f8301049050919050565b600082821b905092915050565b6000600883026113147fffffffffffffffffffffffffffffffffffffffffffffffffffffffffffffffff826112d7565b61131e86836112d7565b95508019841693508086168417925050509392505050565b6000819050919050565b600061135b61135661135184610b6e565b611336565b610b6e565b9050919050565b6000819050919050565b61137583611340565b61138961138182611362565b8484546112e4565b825550505050565b600090565b61139e611391565b6113a981848461136c565b505050565b5b818110156113cd576113c2600082611396565b6001810190506113af565b5050565b601f821115611412576113e3816112b2565b6113ec846112c7565b810160208510156113fb578190505b61140f611407856112c7565b8301826113ae565b50505b505050565b600082821c905092915050565b600061143560001984600802611417565b1980831691505092915050565b600061144e8383611424565b9150826002028217905092915050565b61146782610ade565b67ffffffffffffffff8111156114805761147f611283565b5b61148a8254610f75565b6114958282856113d1565b600060209050601f8311600181146114c857600084156114b6578287015190505b6114c08582611442565b865550611528565b601f1984166114d6866112b2565b60005b828110156114fe578489015182556001820191506020850194506020810190506114d9565b8683101561151b5784890151611517601f891682611424565b8355505b6001600288020188555050505b505050505050565b7f4974656d20616c726561647920736f6c642e0000000000000000000000000000600082015250565b6000611566601283610d87565b915061157182611530565b602082019050919050565b6000602082019050818103600083015261159581611559565b905091905056fea264697066735822122014fec3aee6a3bb52718be6a38602372b320c73291413122f178ceea55496031264736f6c63430008110033",
  "immutableReferences": {},
  "source": "// SPDX-License-Identifier: MIT\npragma solidity ^0.8.17;\n\ncontract Announcement {\n\n  struct Ann {\n    string name;\n    uint price;\n    address payable creator;\n    bool sold;\n    address payable buyer;\n    bool refunded;\n  }\n\n  Ann[] public anns;\n\n  function list() public view returns(Ann[] memory){\n    return anns;\n  }\n\n  function add(string calldata name, uint price) public {\n    anns.push(\n      Ann(name, price, payable(msg.sender), false, payable(0), false)\n    );\n  }\n\n  function pay(uint _index) public payable {\n    Ann storage ann = anns[_index];\n\n    require (!ann.sold, \"Item already sold.\");\n    require (msg.value == ann.price, \"Incorrect value. Please send amount equal to announcement price.\");\n\n\t\t(bool success,) = ann.creator.call{value: msg.value}(\"\");\n    require(success, \"Failed to send money\");\n\n    ann.sold = true;\n    ann.buyer = payable(msg.sender);\n  }\n\n  function refund(uint _index) public payable {\n    Ann storage ann = anns[_index];\n\n    require (ann.sold, \"Item not sold.\");\n    require (!ann.refunded, \"Item already refunded.\");\n    require (msg.sender == ann.creator, \"Only announcement creator can refund money.\");\n    require (msg.value == ann.price, \"Incorrect value. Please send amount equal to announcement price.\");\n\n\t\t(bool success,) = ann.buyer.call{value: msg.value}(\"\");\n    require(success, \"Failed to send money\");\n\n    ann.refunded = true;\n  }\n\n  function AnnsLength() public view returns(uint256) {\n    return anns.length;\n  }\n}\n",
  "sourcePath": "/Users/kmitg/AGH/blockchain/contracts/Announcement.sol",
  "compiler": {
    "name": "solc",
    "version": "0.8.17+commit.8df45f5f.Emscripten.clang"
  },
  "schemaVersion": "3.4.10",
  "updatedAt": "2022-11-05T16:33:10.768Z",
  "networkType": "ethereum",
  "devdoc": {
    "kind": "dev",
    "methods": {},
    "version": 1
  },
  "userdoc": {
    "kind": "user",
    "methods": {},
    "version": 1
  }
}