{
  "contractName": "Announcement",
  "abi": [
    {
      "inputs": [
        {
          "internalType": "uint256",
          "name": "",
          "type": "uint256"
        }
      ],
      "name": "anns",
      "outputs": [
        {
          "internalType": "string",
          "name": "name",
          "type": "string"
        },
        {
          "internalType": "uint256",
          "name": "price",
          "type": "uint256"
        },
        {
          "internalType": "address payable",
          "name": "creator",
          "type": "address"
        },
        {
          "internalType": "bool",
          "name": "sold",
          "type": "bool"
        },
        {
          "internalType": "address payable",
          "name": "buyer",
          "type": "address"
        },
        {
          "internalType": "bool",
          "name": "refunded",
          "type": "bool"
        }
      ],
      "stateMutability": "view",
      "type": "function",
      "constant": true
    },
    {
      "inputs": [],
      "name": "list",
      "outputs": [
        {
          "components": [
            {
              "internalType": "string",
              "name": "name",
              "type": "string"
            },
            {
              "internalType": "uint256",
              "name": "price",
              "type": "uint256"
            },
            {
              "internalType": "address payable",
              "name": "creator",
              "type": "address"
            },
            {
              "internalType": "bool",
              "name": "sold",
              "type": "bool"
            },
            {
              "internalType": "address payable",
              "name": "buyer",
              "type": "address"
            },
            {
              "internalType": "bool",
              "name": "refunded",
              "type": "bool"
            }
          ],
          "internalType": "struct Announcement.Ann[]",
          "name": "",
          "type": "tuple[]"
        }
      ],
      "stateMutability": "view",
      "type": "function",
      "constant": true
    },
    {
      "inputs": [
        {
          "internalType": "string",
          "name": "name",
          "type": "string"
        },
        {
          "internalType": "uint256",
          "name": "price",
          "type": "uint256"
        }
      ],
      "name": "add",
      "outputs": [],
      "stateMutability": "nonpayable",
      "type": "function"
    },
    {
      "inputs": [
        {
          "internalType": "uint256",
          "name": "_index",
          "type": "uint256"
        }
      ],
      "name": "pay",
      "outputs": [],
      "stateMutability": "payable",
      "type": "function",
      "payable": true
    },
    {
      "inputs": [
        {
          "internalType": "uint256",
          "name": "_index",
          "type": "uint256"
        }
      ],
      "name": "refund",
      "outputs": [],
      "stateMutability": "payable",
      "type": "function",
      "payable": true
    }
  ],
  "bytecode": "0x608060405234801561001057600080fd5b50611575806100206000396000f3fe60806040526004361061004a5760003560e01c80630f560cd71461004f5780631cbfdfe01461007a578063278ecde1146100bc57806336555b85146100d8578063c290d69114610101575b600080fd5b34801561005b57600080fd5b5061006461011d565b6040516100719190610cc0565b60405180910390f35b34801561008657600080fd5b506100a1600480360381019061009c9190610d18565b6102fa565b6040516100b396959493929190610dbc565b60405180910390f35b6100d660048036038101906100d19190610d18565b610428565b005b3480156100e457600080fd5b506100ff60048036038101906100fa9190610e89565b6106ba565b005b61011b60048036038101906101169190610d18565b61087e565b005b60606000805480602002602001604051908101604052809291908181526020016000905b828210156102f157838290600052602060002090600402016040518060c001604052908160008201805461017490610f18565b80601f01602080910402602001604051908101604052809291908181526020018280546101a090610f18565b80156101ed5780601f106101c2576101008083540402835291602001916101ed565b820191906000526020600020905b8154815290600101906020018083116101d057829003601f168201915b50505050508152602001600182015481526020016002820160009054906101000a900473ffffffffffffffffffffffffffffffffffffffff1673ffffffffffffffffffffffffffffffffffffffff1673ffffffffffffffffffffffffffffffffffffffff1681526020016002820160149054906101000a900460ff161515151581526020016003820160009054906101000a900473ffffffffffffffffffffffffffffffffffffffff1673ffffffffffffffffffffffffffffffffffffffff1673ffffffffffffffffffffffffffffffffffffffff1681526020016003820160149054906101000a900460ff16151515158152505081526020019060010190610141565b50505050905090565b6000818154811061030a57600080fd5b906000526020600020906004020160009150905080600001805461032d90610f18565b80601f016020809104026020016040519081016040528092919081815260200182805461035990610f18565b80156103a65780601f1061037b576101008083540402835291602001916103a6565b820191906000526020600020905b81548152906001019060200180831161038957829003601f168201915b5050505050908060010154908060020160009054906101000a900473ffffffffffffffffffffffffffffffffffffffff16908060020160149054906101000a900460ff16908060030160009054906101000a900473ffffffffffffffffffffffffffffffffffffffff16908060030160149054906101000a900460ff16905086565b600080828154811061043d5761043c610f49565b5b906000526020600020906004020190508060020160149054906101000a900460ff1661049e576040517f08c379a000000000000000000000000000000000000000000000000000000000815260040161049590610fc4565b60405180910390fd5b8060030160149054906101000a900460ff16156104f0576040517f08c379a00000000000000000000000000000000000000000000000000000000081526004016104e790611030565b60405180910390fd5b8060020160009054906101000a900473ffffffffffffffffffffffffffffffffffffffff1673ffffffffffffffffffffffffffffffffffffffff163373ffffffffffffffffffffffffffffffffffffffff1614610582576040517f08c379a0000000000000000000000000000000000000000000000000000000008152600401610579906110c2565b60405180910390fd5b806001015434146105c8576040517f08c379a00000000000000000000000000000000000000000000000000000000081526004016105bf90611154565b60405180910390fd5b60008160030160009054906101000a900473ffffffffffffffffffffffffffffffffffffffff1673ffffffffffffffffffffffffffffffffffffffff1634604051610612906111a5565b60006040518083038185875af1925050503d806000811461064f576040519150601f19603f3d011682016040523d82523d6000602084013e610654565b606091505b5050905080610698576040517f08c379a000000000000000000000000000000000000000000000000000000000815260040161068f90611206565b60405180910390fd5b60018260030160146101000a81548160ff021916908315150217905550505050565b60006040518060c0016040528085858080601f016020809104026020016040519081016040528093929190818152602001838380828437600081840152601f19601f8201169050808301925050505050505081526020018381526020013373ffffffffffffffffffffffffffffffffffffffff168152602001600015158152602001600073ffffffffffffffffffffffffffffffffffffffff168152602001600015158152509080600181540180825580915050600190039060005260206000209060040201600090919091909150600082015181600001908161079e9190611401565b506020820151816001015560408201518160020160006101000a81548173ffffffffffffffffffffffffffffffffffffffff021916908373ffffffffffffffffffffffffffffffffffffffff16021790555060608201518160020160146101000a81548160ff02191690831515021790555060808201518160030160006101000a81548173ffffffffffffffffffffffffffffffffffffffff021916908373ffffffffffffffffffffffffffffffffffffffff16021790555060a08201518160030160146101000a81548160ff0219169083151502179055505050505050565b600080828154811061089357610892610f49565b5b906000526020600020906004020190508060020160149054906101000a900460ff16156108f5576040517f08c379a00000000000000000000000000000000000000000000000000000000081526004016108ec9061151f565b60405180910390fd5b8060010154341461093b576040517f08c379a000000000000000000000000000000000000000000000000000000000815260040161093290611154565b60405180910390fd5b60008160020160009054906101000a900473ffffffffffffffffffffffffffffffffffffffff1673ffffffffffffffffffffffffffffffffffffffff1634604051610985906111a5565b60006040518083038185875af1925050503d80600081146109c2576040519150601f19603f3d011682016040523d82523d6000602084013e6109c7565b606091505b5050905080610a0b576040517f08c379a0000000000000000000000000000000000000000000000000000000008152600401610a0290611206565b60405180910390fd5b60018260020160146101000a81548160ff021916908315150217905550338260030160006101000a81548173ffffffffffffffffffffffffffffffffffffffff021916908373ffffffffffffffffffffffffffffffffffffffff160217905550505050565b600081519050919050565b600082825260208201905092915050565b6000819050602082019050919050565b600081519050919050565b600082825260208201905092915050565b60005b83811015610ad6578082015181840152602081019050610abb565b60008484015250505050565b6000601f19601f8301169050919050565b6000610afe82610a9c565b610b088185610aa7565b9350610b18818560208601610ab8565b610b2181610ae2565b840191505092915050565b6000819050919050565b610b3f81610b2c565b82525050565b600073ffffffffffffffffffffffffffffffffffffffff82169050919050565b6000610b7082610b45565b9050919050565b610b8081610b65565b82525050565b60008115159050919050565b610b9b81610b86565b82525050565b600060c0830160008301518482036000860152610bbe8282610af3565b9150506020830151610bd36020860182610b36565b506040830151610be66040860182610b77565b506060830151610bf96060860182610b92565b506080830151610c0c6080860182610b77565b5060a0830151610c1f60a0860182610b92565b508091505092915050565b6000610c368383610ba1565b905092915050565b6000602082019050919050565b6000610c5682610a70565b610c608185610a7b565b935083602082028501610c7285610a8c565b8060005b85811015610cae5784840389528151610c8f8582610c2a565b9450610c9a83610c3e565b925060208a01995050600181019050610c76565b50829750879550505050505092915050565b60006020820190508181036000830152610cda8184610c4b565b905092915050565b600080fd5b600080fd5b610cf581610b2c565b8114610d0057600080fd5b50565b600081359050610d1281610cec565b92915050565b600060208284031215610d2e57610d2d610ce2565b5b6000610d3c84828501610d03565b91505092915050565b600082825260208201905092915050565b6000610d6182610a9c565b610d6b8185610d45565b9350610d7b818560208601610ab8565b610d8481610ae2565b840191505092915050565b610d9881610b2c565b82525050565b610da781610b65565b82525050565b610db681610b86565b82525050565b600060c0820190508181036000830152610dd68189610d56565b9050610de56020830188610d8f565b610df26040830187610d9e565b610dff6060830186610dad565b610e0c6080830185610d9e565b610e1960a0830184610dad565b979650505050505050565b600080fd5b600080fd5b600080fd5b60008083601f840112610e4957610e48610e24565b5b8235905067ffffffffffffffff811115610e6657610e65610e29565b5b602083019150836001820283011115610e8257610e81610e2e565b5b9250929050565b600080600060408486031215610ea257610ea1610ce2565b5b600084013567ffffffffffffffff811115610ec057610ebf610ce7565b5b610ecc86828701610e33565b93509350506020610edf86828701610d03565b9150509250925092565b7f4e487b7100000000000000000000000000000000000000000000000000000000600052602260045260246000fd5b60006002820490506001821680610f3057607f821691505b602082108103610f4357610f42610ee9565b5b50919050565b7f4e487b7100000000000000000000000000000000000000000000000000000000600052603260045260246000fd5b7f4974656d206e6f7420736f6c642e000000000000000000000000000000000000600082015250565b6000610fae600e83610d45565b9150610fb982610f78565b602082019050919050565b60006020820190508181036000830152610fdd81610fa1565b9050919050565b7f4974656d20616c726561647920726566756e6465642e00000000000000000000600082015250565b600061101a601683610d45565b915061102582610fe4565b602082019050919050565b600060208201905081810360008301526110498161100d565b9050919050565b7f4f6e6c7920616e6e6f756e63656d656e742063726561746f722063616e20726560008201527f66756e64206d6f6e65792e000000000000000000000000000000000000000000602082015250565b60006110ac602b83610d45565b91506110b782611050565b604082019050919050565b600060208201905081810360008301526110db8161109f565b9050919050565b7f496e636f72726563742076616c75652e20506c656173652073656e6420616d6f60008201527f756e7420657175616c20746f20616e6e6f756e63656d656e742070726963652e602082015250565b600061113e604083610d45565b9150611149826110e2565b604082019050919050565b6000602082019050818103600083015261116d81611131565b9050919050565b600081905092915050565b50565b600061118f600083611174565b915061119a8261117f565b600082019050919050565b60006111b082611182565b9150819050919050565b7f4661696c656420746f2073656e64206d6f6e6579000000000000000000000000600082015250565b60006111f0601483610d45565b91506111fb826111ba565b602082019050919050565b6000602082019050818103600083015261121f816111e3565b9050919050565b7f4e487b7100000000000000000000000000000000000000000000000000000000600052604160045260246000fd5b60008190508160005260206000209050919050565b60006020601f8301049050919050565b600082821b905092915050565b6000600883026112b77fffffffffffffffffffffffffffffffffffffffffffffffffffffffffffffffff8261127a565b6112c1868361127a565b95508019841693508086168417925050509392505050565b6000819050919050565b60006112fe6112f96112f484610b2c565b6112d9565b610b2c565b9050919050565b6000819050919050565b611318836112e3565b61132c61132482611305565b848454611287565b825550505050565b600090565b611341611334565b61134c81848461130f565b505050565b5b8181101561137057611365600082611339565b600181019050611352565b5050565b601f8211156113b55761138681611255565b61138f8461126a565b8101602085101561139e578190505b6113b26113aa8561126a565b830182611351565b50505b505050565b600082821c905092915050565b60006113d8600019846008026113ba565b1980831691505092915050565b60006113f183836113c7565b9150826002028217905092915050565b61140a82610a9c565b67ffffffffffffffff81111561142357611422611226565b5b61142d8254610f18565b611438828285611374565b600060209050601f83116001811461146b5760008415611459578287015190505b61146385826113e5565b8655506114cb565b601f19841661147986611255565b60005b828110156114a15784890151825560018201915060208501945060208101905061147c565b868310156114be57848901516114ba601f8916826113c7565b8355505b6001600288020188555050505b505050505050565b7f4974656d20616c726561647920736f6c642e0000000000000000000000000000600082015250565b6000611509601283610d45565b9150611514826114d3565b602082019050919050565b60006020820190508181036000830152611538816114fc565b905091905056fea2646970667358221220812e749686b0f08499c123502770fb16b0cc88a733382206bad79d9b533d187264736f6c63430008110033",
  "immutableReferences": {},
  "source": "// SPDX-License-Identifier: MIT\npragma solidity ^0.8.17;\n\ncontract Announcement {\n\n  struct Ann {\n    string name;\n    uint price;\n    address payable creator;\n    bool sold;\n    address payable buyer;\n    bool refunded;\n  }\n\n  Ann[] public anns;\n\n  function list() public view returns(Ann[] memory){\n    return anns;\n  }\n\n  function add(string calldata name, uint price) public {\n    anns.push(\n      Ann(name, price, payable(msg.sender), false, payable(0), false)\n    );\n  }\n\n  function pay(uint _index) public payable {\n    Ann storage ann = anns[_index];\n\n    require (!ann.sold, \"Item already sold.\");\n    require (msg.value == ann.price, \"Incorrect value. Please send amount equal to announcement price.\");\n\n\t\t(bool success,) = ann.creator.call{value: msg.value}(\"\");\n    require(success, \"Failed to send money\");\n\n    ann.sold = true;\n    ann.buyer = payable(msg.sender);\n  }\n\n  function refund(uint _index) public payable {\n    Ann storage ann = anns[_index];\n\n    require (ann.sold, \"Item not sold.\");\n    require (!ann.refunded, \"Item already refunded.\");\n    require (msg.sender == ann.creator, \"Only announcement creator can refund money.\");\n    require (msg.value == ann.price, \"Incorrect value. Please send amount equal to announcement price.\");\n\n\t\t(bool success,) = ann.buyer.call{value: msg.value}(\"\");\n    require(success, \"Failed to send money\");\n\n    ann.refunded = true;\n  }\n}\n",
  "sourcePath": "/Users/kmitg/AGH/blockchain/contracts/Announcement.sol",
  "compiler": {
    "name": "solc",
    "version": "0.8.17+commit.8df45f5f.Emscripten.clang"
  },
  "schemaVersion": "3.4.10",
  "updatedAt": "2022-11-10T17:28:28.831Z",
  "networkType": "ethereum",
  "devdoc": {
    "kind": "dev",
    "methods": {},
    "version": 1
  },
  "userdoc": {
    "kind": "user",
    "methods": {},
    "version": 1
  }
}